:2000E800AF83E582900001F0EFA3F0900001E0FEA3E0FFEE4F60197C827D0AEC4D600A008D
:2001080000001CBCFF011D80F21EBEFF011F80E322E582900003F0E0FFEF600B7E37EE60CA
:20012800031E80FA1F80F222AF83E582900004F0EFA3F0900004E0FEA3E0FFEE4F60107DAC
:1001480005ED60031D80FA001EBEFF011F80EC2232
:20015800E58290000DF0E0FF900007F0900008E0FBA3E0FCA3E0FDA3E0FE90000CE0FA9034
:200178000050EBF0ECA3F0EDA3F0EEA3F09000547401F0900055E4F0900056EAF08F8202E7
:200198000754AF83E58290000EF0EFA3F090000EE0FEA3E0FFBE0A29BF0026900007E0FFF9
:2001B800900010740DF09000627410F07400A3F0E4A3F090006504F0900066F08F82120A36
:2001D8002690000EE0FEA3E0FF8E05900007E0FC900011EDF09000627411F07400A3F0E40D
:2001F800A3F090006504F0900066F08C82C007C006120A26D006D0078E828F832290000720
:20021800E0FF900012E4F090005C7412F07400A3F0E4A3F090005F04F0900060F08F8212AB
:0E02380009C3900012E0FF7E008F828E8322A9
:20024600E582900015F07F00BF0300400122EF75F005A4FDAEF024C0F582EE343AF583E44D
:2002660093FC900015E0FBECB50302800302034A74F355A2FCEB2B25E0FB740C5B4CF5A2C3
:200286009000167403F0900017E4F090001804F0900014E0900019F090001AE4F090001BEE
:2002A600F090001C7403F090001D7401F090001EE4F090001FF0900020F0900021F0900031
:2002C60022F0ED24C0FDEE343AFE8D828E83A3A3E493FCC4540F900016F053040F9000173B
:2002E600ECF090001675F000C006C005120F41D005D0068D828E83A3A3A3A3E493FCC45442
:200306000F900016F053040F900017ECF090001675F000C006C005120F41D005D006900016
:2003260019E4F08D828E83A3A3A393FEC4540F900016F053060F900017EEF090001675F07B
:2003460000020F410F02024EAF82AE83ADF0FC900023EFF0EEA3F0EDA3F0ECA3F090002324
:20036600E0FCA3E0FDA3E0FEA3E0FF900100ECF0EDA3F0EEA3F0EFA3F0900EC075F01674DB
:2003860002C007C006C005C004122ED9A882A983D004D005D006D007900027E8F0E9A3F06F
:2003A6009000F7ECF0EDA3F0EEA3F0EFA3F0900EC075F0167402C001C000122D9AAC82ADCD
:2003C60083AEF0FFD000D001EC4D4E4F600B900027740128F0E439A3F0900027E0FEA3E009
:2003E600FF90002AEEF0EFA3F07D0090002AE0FBA3E0FC8B018C02C3740199E49A5012EC96
:20040600C313CB13CBFC90002AEBF0ECA3F00D80DA900029EDF08DF005F07B017C0080065A
:20042600EB2BFBEC33FCD5F0F7C3EB9EEC9F5006900029ED04F090002CE4F0900029E0FFDF
:2004460024FD500DEF24FC400890002C7401F0801D900029E0FFBF0200500890002C74031F
:20046600F0800BEF24FC500690002C7402F090002CE0F58222E582900031F090002FE0FF89
:20048600900030E0900014F08F82120246900031E0FF90002DE0420790002EE04F44D0F53B
:2004A600CE43AF0222AFF0AE83E582900037F0EEA3F0EFA3F0900037E0FDA3E0FEA3E0FFBA
:2004C6007830A60508A60608A607900032E0FEA3E0FF7835A60608A607900034E0FDA3E006
:2004E600FEA3E0FF7837A60508A60608A6078D828E838FF0E4122FF57833760008760078E3
:2005060030860508860608860778338603088604EB2DFDEC3EFE8D828E838FF0123AA0F56E
:20052600CF22AFF0AE83E58290003FF0EEA3F0EFA3F090003FE0FDA3E0FEA3E0FF8D028EFF
:20054600038F0490003AE0F8A3E0F990010DE4F090010EE8F0E9A3F08A828B838CF0C0071F
:20056600C006C005C001C000122FCDD000D001D005D006D00790003CE0FAA3E0FBA3E0FC95
:20058600900032E8F0E9A3F0900034EAF0EBA3F0ECA3F08D828E838FF00204ABC0E0C0F004
:2005A600C082C083C007C006C005C004C003C000C0D075D00043CDC07830860508860608A3
:2005C600860778338603088604EB2DFDEC3EFE8D828E838FF0E5CF122FF578338606088637
:2005E600070EBE00010F7833A60608A60778358604088605C3EE9CEF9D50247830860508B4
:20060600860608860778338603088604EB2DFDEC3EFE8D828E838FF0123AA0F5CF80157854
:200626003786050886060886078D828E838FF07401122FF5D0D0D000D003D004D005D006BD
:0B064600D007D083D082D0F0D0E0328B
:0F3AC00000541314150122232425033534333207
:2000A900784A7610784B7600784C7600784D7600784E7600784F763A087600087640786278
:1C00C9007610786376007864760078657600786676007867765208760008764068
:20065100E582900043F0900044E4F0A3F0A3F0900043E0FFBF010D900044744AF0E4A3F019
:200671007440A3F0900044E0FDA3E0FEA3E0FF8D828E838FF022E582900047F0900048E4C3
:20069100F0A3F0A3F0900047E0FFBF010D9000487462F0E4A3F07440A3F0900048E0FDA3FC
:2006B100E0FEA3E0FF8D828E838FF022E58290004BF0E0F582120687AD82AE83AFF0740469
:2006D1002DFDE43EFE8D828E838FF0123AA0B401009200E433F58222E58290004DF0C2AF98
:2006F10090004DE0F5821206871218D4AF8290004CE0FEC3EF9E9201B3E433FFD2AF8F82EF
:2007110022E58290004EF0C2AF90004EE0F582120651AD82AE83AFF00DBD00010E8D828EED
:20073100838FF0123AA0FDD2AF8D8222E58290004FF0C2AF90004FE0F58212065112182873
:20075100D2AF22E582900057F0900058E4F09000597402F0900057E0FFBF0109900055E048
:2007710060030207F6900054E06005900059EFF0900059E0FF900050E0FBA3E0FCA3E0FD93
:20079100A3E0FE900100EBF0ECA3F0EDA3F0EEA3F0900EC075F0167402C007122ED9AB827F
:2007B100AC83ADF0FED007EEC313FEED13FDEC13FCEB13FBEEC313FEED13FDEC13FCEB131C
:2007D10090006AF0ECA3F0EDA3F0EEA3F090006EE4F090006FF0900070F08F82120AD9E502
:2007F10082900058F0900058E0600302091990005AE4F0900055E0FF24FC4049EF2F90085E
:2008110013738006801480128010900057E0FEBE013390005A7401F0802B900057E0FEBED1
:20083100011D900050E0FBA3E0A3E0A3E0530302E4C313CB13CB90005A74024BF0800690D9
:20085100005A7401F0BF03047F2080027F0090005AE030E1047E8080027E00EE4F4410FFF5
:20087100900057E0FEBE010280030208F990005AE0FEBE0102800ABE02028017BE0344806A
:200891002B900059E0FDBD0205438E018035538EFE8030900050E0FAA3E0A3E0A3E0EA301F
:2008B100E005438780801C53877F8017900050E0FAA3E0A3E0A3E0EA30E005438E208003B6
:2008D100538EDF743F55A2FD900056E0030354C0FC74C05C4DF5A2EE30E0047E4080027E90
:2008F10000EE4FF59843A810900057E0F582120687AD82AE83AFF074042DFDE43EFE8D8275
:200911008E838FF0E4122FF5900058E0F58222C021C0E0C0F0C082C083C007C006C005C0F3
:2009310004C003C002C001C000C0D075D000C2AFE59830E1325398FD7401C0E0745BC0E02A
:200951007400C0E0E4C0E090006275F040121A6EAF82E58124FCF581EF600890005BE0F579
:2009710099800478667600E59830E0275398FE90005BE599F07401C0E0745BC0E07400C047
:20099100E0E4C0E090004A75F04012190EE58124FCF581D2AFD0D0D000D001D002D003D0F7
:2009B10004D005D006D007D083D082D0F0D0E0D02132E582900061F0E0F582120651AD8231
:2009D100AE83AFF090005CE0F509A3E0F50AA3E0F50B900060E0F508C2AFA809A90AAC0B0E
:2009F100C007C006C00590005FE0C0E0C000C001C0048D828E838FF0121A6EAC82E58124EF
:200A1100FCF581D005D006D007D2AFE5086003EC60C68C8222E582900067F0E0F582120601
:200A310087AD82AE83AFF0900062E0F50DA3E0F50EA3E0F50F900066E0F50CC2AFA80DA998
:200A51000EAC0FC007C006C005900065E0C0E0C000C001C0048D828E838FF012190EAC82AA
:200A7100E58124FCF581D005D006D007D2AFE50C6003EC60C6EC604D74042DF9E43EFA8F1E
:200A91000389828A838BF0123AA0703989828A838BF07401122FF5C004C0E07468C0E07488
:200AB10000C0E0E4C0E08D828E838FF0121A6EE58124FCF581D004900067E0FFBF010690CC
:080AD1000068E0F5998C822217
:200AD900E582900071F0900072E4F090007304F090006AE0FCA3E0FDA3E0FEA3E0FFEC4D46
:200AF9004E4F70099000727401F0020CCF900074E4F0A3F0900071E0FB6003BB0158C3E41E
:200B19009CE49D74019EE49F4003020C93C3E49CE49D740C9EE49F4034900073E4F09001E4
:200B390000740CF0E4A3F0A3F0A3F08C828D838EF0EF122ED9A882A983AAF0FB90006AE81E
:200B5900F0E9A3F0EAA3F0EBA3F0020C939000727402F0020C93C3E49CE49D74019EE49F11
:200B79004003020C938E008F01900074E8F0E9A3F0C3E498740199505D900073E4F09000A1
:200B9900F0740CF0E4A3F088828983C007C006C005C004122D0DAA82AB83D004D005D00614
:200BB900D007900074EAF0EBA3F0900100740CF0E4A3F0A3F0A3F08C828D838EF0EF122E80
:200BD900D9AC82AD83AEF0FF90006AECF0EDA3F0EEA3F0EFA3F090006AE0FCA3E0FDA3E0F6
:200BF900FEA3E0FF900074E0F510A3E0F5119000F7E510F0E511A3F0E4A3F0A3F08C828D50
:200C1900838EF0EFC007C006C005C004122D9AA882A983AAF0FBD004D005D006D007E8496A
:200C39004A4B600D90007474012510F0E43511A3F0900074E0FAA3E0FB900100EAF0EBA3E9
:200C5900F0E4A3F0A3F08C828D838EF0EFC003C002122ED9AC82AD83AEF0FFD002D0039028
:200C7900006AECF0EDA3F0EEA3F0EFA3F01ABAFF011B900074EAF0EBA3F0900071E0FFBFA8
:200C99000202800ABF03028013BF042A801C900074E0FEA3E090FEA2EEF0801A900074E0DC
:200CB900FEA3E090FEA3EEF0800C900074E0FEA3E090FEA4EEF0900072E06003020E609045
:200CD900006AE0FCA3E0FDA3E0A3E0C3E49CFEE49DFF900071E0FD24FB5003020E60ED2D94
:200CF9002D900CFE73020D0D020D5D020DAD020DEA020E26747F558EFD900073E0035480A1
:200D1900FC74805C4DF58E5389F074F75589FD900070E0C40354F8FC74085C4DF58990006A
:200D39006EE06005438F018003538FFE8E8A8F8C90006FE0600543A802800353A8FD438807
:200D590010020E6053890F90006EE06005438F028003538FFD8E8B8F8D747F5589FD900003
:200D790070E0035480FC74805C4DF589900073E060077440458EFD800574BF558EFD8D8E9B
:200D990090006FE0600543A808800353A8F7438840020E60538EF790006EE06005438F0422
:200DB9008003538FFB8ED78FD6900073E060077404458EFD800574FB558EFD8D8E90006F70
:200DD900E0600543AF04800353AFFB438E10020E6053D1FB90006EE0600543D101800353A1
:200DF900D1FE900073E06007740245D1FD800574FD55D1FD8DD18ED58FD490006FE06005B7
:200E190043AF20800353AFDF43D108803A53D1BF90006EE0600543D110800353D1EF9000FD
:200E390073E06007742045D1FD800574DF55D1FD8DD18ED38FD290006FE0600543AF408027
:0E0E59000353AFBF43D180900072E0F58222B8
:200E6700E58290007BF0900077E06024900078E0FDA3E0FEA3E0FF740B2DFDE43EFE8D82DE
:200E87008E838FF0123AA0FD90007BE04DFF8022900078E0FCA3E0FDA3E0FE740C2CFCE488
:200EA7003DFD8C828D838EF0123AA0FC90007BE05CFF8F8222AFF0AE83E58290007CF0EED3
:200EC700A3F0EFA3F090007CE0FDA3E0FEA3E0FF74032DFDE43EFE8D828E838FF0123AA0BE
:200EE700FF600EBF01028009BF03028004C2028002D202A202E433F58222AFF0AE83E58246
:200F070090007FF0EEA3F0EFA3F090007FE0FDA3E0FEA3E0FF74032DFDE43EFE8D828E83F8
:200F27008FF0123AA0FF6009BF02028004C2038002D203A203E433F58222AFF0AE83E582E8
:200F4700900082F0EEA3F0EFA3F0900085E4F0900082E0FDA3E0FEA3E0FF74022DFAE43EEB
:200F6700FB8F048A828B838CF0123AA0FCEC600F900085E025E0F0E043E001F01C80EE7427
:200F87000B2DF512E43EF5138F1474012DF8E43EF98F04888289838CF0123AA0F89000856B
:200FA700E088F005F0800225E0D5F0FBF88512828513838514F0122FF5740C2DFAE43EFBE7
:200FC7008F04E8F48A828B838CF0122FF5900086E4F0900087F0900088F0900089F090003D
:200FE7008AF090008BF090008CF090008DF090008EF090008FF0900090F0900091F08D82FF
:201007008E838FF0123AA0FFBF01028014BF0202806EBF03030210E6BF0503021144021159
:20102700A0900086E591F0900087E592F090FE19E0900088F090FE11E0900089F090FE2941
:20104700E090008AF090FE21E090008BF090FE31E090008CF090FD31E090008DF090FD2101
:20106700E090008EF090FD11E090008FF090FD01E0900090F090FD41E0900091F00211A0FE
:20108700900086E595F0900087E596F090FE1AE0900088F090FE12E0900089F090FE2AE096
:2010A70090008AF090FE22E090008BF090FE32E090008CF090FD32E090008DF090FD22E09D
:2010C70090008EF090FD12E090008FF090FD02E0900090F090FD42E0900091F00211A090EB
:2010E7000086E5B1F0900087E5B2F090FE1BE0900088F090FE13E0900089F090FE2BE090FB
:20110700008AF090FE23E090008BF090FE33E090008CF090FD33E090008DF090FD23E09038
:20112700008EF090FD13E090008FF090FD03E0900090F090FD43E0900091F0805C90008668
:20114700E5C9F0900087E5CAF090FE1DE0900088F090FE15E0900089F090FE2DE090008A60
:20116700F090FE25E090008BF090FE35E090008CF090FD35E090008DF090FD25E090008ECC
:20118700F090FD15E090008FF090FD05E0900090F090FD45E0900091F0900086E0FF9000FD
:2011A70082E0FCA3E0FDA3E0FE74032CF9E43DFA8E0389828A838BF0123AA0F9900077748E
:2011C7000259F0900078ECF0EDA3F0EEA3F08F82120E67AF82900087E0FE900082E0FBA38A
:2011E700E0FCA3E0FD74032BF8E43CF98D02888289838AF0123AA0F8900077740158F09082
:201207000078EBF0ECA3F0EDA3F08E82C007120E67AE82900088E0F512900082E0FAA3E079
:20122700FBA3E0FC74042AF8E43BF98C05888289838DF0123AA0900077F0900078EAF0EBA7
:20124700A3F0ECA3F0851282C006120E67AD82900089E0F512900082E0F515A3E0F516A3B3
:20126700E0F51774052515F8E43516FBAC1788828B838CF0123AA0900077F0900078E5156A
:20128700F0E516A3F0E517A3F0851282C005120E67AC82900082E0F9A3E0FAA3E0FB8982B6
:2012A7008A838BF0C004120EBCE582D004D005D006D007700302136BC00490008AE0F51587
:2012C700900082E0F512A3E0F513A3E0F51474062512FAE43513FBAC148A828B838CF012BD
:2012E7003AA0FA90007774015AF0900078E512F0E513A3F0E514A3F0851582C007C006C0DE
:2013070005C004120E67E582D00490008AF090008BE0F515900082E0F512A3E0F513A3E025
:20132700F51474062512F8E43513FBAC1488828B838CF0123AA0F8900077740258F0900040
:2013470078E512F0E513A3F0E514A3F0851582C004120E67E582D004D005D006D00790005C
:201367008BF0D004900082E0F9A3E0FAA3E0FB89828A838BF0C007C006C005C004120F0166
:20138700E582D004D005D006D007605AC00490008CE0F515900082E0F512A3E0F513A3E0FE
:2013A700F51474072512FAE43513FBAC148A828B838CF0123AA0900077F0900078E512F022
:2013C700E513A3F0E514A3F0851582C007C006C005C004120E67E582D004D005D006D00779
:2013E70090008CF0D004C00490008DE0F515900082E0F512A3E0F513A3E0F5147409251277
:20140700FAE43513FBAC148A828B838CF0123AA0FA90007774025AF0900078E512F0E513BA
:20142700A3F0E514A3F0851582C007C006C005C004120E67858215D00490008EE0F5129048
:201447000082E0F518A3E0F519A3E0F51A74092518F8E43519FBAC1A88828B838CF0123A6E
:20146700A0F8900077740158F0900078E518F0E519A3F0E51AA3F0851282C004120E678508
:201487008218D004900082E0F512A3E0F513A3E0F514740C2512F8E43513F9AC14888289A0
:2014A700838CF0123AA0F890008FE058F0900090E0FC74082512F9E43513FAAB1489828AD9
:2014C700838BF0123AA0900077F0900078E512F0E513A3F0E514A3F08C82C004120E678540
:2014E7008212D004900091E0F51B900082E0F51CA3E0F51DA3E0F51E740A251CF8E4351D51
:20150700FBAC1E88828B838CF0123AA0900077F0900078E51CF0E51DA3F0E51EA3F0851BC4
:2015270082C004120E6785821CD004D005D006D007900082E0FAA3E0FBA3E0FC8A828B835B
:201547008CF0123AA0F51B7401B51B04D004801AD0047402B51B0280587403B51B03021500
:20156700FF7405B51B03021646228F918E9290FE19EDF090FE11ECF090008AE090FE29F0B9
:2015870090008BE090FE21F090008CE090FE31F090FD31E515F090FD21E518F090008FE0BD
:2015A70090FD11F090FD01E512F090FD41E51CF0228F958E9690FE1AEDF090FE12ECF09067
:2015C700008AE090FE2AF090008BE090FE22F090008CE090FE32F090FD32E515F090FD2253
:2015E700E518F090008FE090FD12F090FD02E512F090FD42E51CF0228FB18EB290FE1BEDFB
:20160700F090FE13ECF090008AE090FE2BF090008BE090FE23F090008CE090FE33F090FDDD
:2016270033E515F090FD23E518F090008FE090FD13F090FD03E512F090FD43E51CF0228F71
:20164700C98ECA90FE1DEDF090FE15ECF090008AE090FE2DF090008BE090FE25F090008CFC
:20166700E090FE35F090FD35E515F090FD25E518F090008FE090FD15F090FD05E512F090EB
:20168700FD45E51CF022E582900092F0900093E4F0900092E0FFBF0102800FBF02028012D7
:2016A700BF03028015BF05208018900093E590F08016900093E5A0F0800E900093E5B0F062
:2016C7008006900093E5C8F0900093E0F58222AFF0AE83E582900094F0EEA3F0EFA3F09043
:2016E7000094E0FDA3E0FEA3E0FF8D828E838FF0123AA0F582C007C006C00512168DAC8238
:20170700D005D006D007740B2DF9E43EFA8F0389828A838BF0123AA052040DBD00010E8DB2
:20172700828E838FF0123AA0FD8DF005F0EC8002C313D5F0FBF58222AFF0AE83E5829000D1
:2017470098F0EEA3F0EFA3F0900098E0FDA3E0FEA3E0FF74022DFAE43EFB8F048A828B8388
:201767008CF0123AA0FABA010E900097E060027401FC900097ECF074012DFAE43EFB8F040E
:201787008A828B838CF0123AA0FA900097E08AF005F0800225E0D5F0FBFA740B2DF9E43E48
:2017A700FB8F0489828B838CF0123AA09000975AF08D828E838FF0123AA0F582C007C00613
:2017C700C00512168DAC82D005D006D007740C2DF9E43EFA8F0389828A838BF0123AA052B3
:2017E70004900097E04CF08D828E838FF0123AA0FFBF0102800FBF02028011BF0302801315
:20180700BF051D8015900097E0F59022900097E0F5A022900097E0F5B022900097E0F5C84D
:01182700229E
:20182800AFF0AE83E58290009CF0EEA3F0EFA3F090009CE0FDA3E0FEA3E0FF74012DFAE4BE
:201848003EFB8F048A828B838CF0E4122FF574022DFAE43EFB8F048A828B838CF0E4122FFC
:20186800F574032DFAE43EFB8F048A828B838CF0E4122FF574042DFDE43EFE8D828E838FFC
:20188800F0E4022FF5AFF0AE83E58290009FF0EEA3F0EFA3F090009FE0FDA3E0FEA3E0FFDE
:2018A80074012DFAE43EFB8F048A828B838CF0123AA0FA8D828E838FF0123AA0FDEAB5052C
:2018C80003D38001C39204E433F58222AFF0AE83E5829000A2F0EEA3F0EFA3F09000A2E032
:2018E800FDA3E0FEA3E0FF8D828E838FF0123AA0FC0DBD00010E8D828E838FF0123AA0FDF8
:20190800ECC39DF58222C01F85811FC082C083C0F0E5812408F581A81F08868208868308A9
:2019280086F01218D4AC82E51F24FAF8C3EC96B39208E433FC200803021A66A81F08E51FBE
:201948002404F9740326F7E4083609F708E609F7E51F2404F886820886830886F0E51F24D7
:201968000AF9123AA0F7A81F08E51F2407F9740526F7E4083609F708E609F7E51F240BF8B1
:201988007600E51F240BF8E51F24FAF9C3E6974003021A28C004A81F088682088683088682
:2019A800F0123AA0FCE51F240AF8E6B504028004D0048009D004E51F240AF87600C004E57E
:2019C8001F2407F886820886830886F0123AA0FAA3123AA0FBA3123AA0FCE51F240AF8E61B
:2019E8002AFAE43BFBE51F24FBF88605088606088607E51F240BF8E62DFDE43EFE8D828EDA
:201A0800838FF0123AA08A828B838CF0122FF5E51F240AF806E51F240BF806D00402198A2A
:201A2800E51F2404F886820886830886F0E51F240AF9E7122FF5A81F08740126FDE4083612
:201A4800FE0886078D828E838FF0123AA0FBE51F24FAF8E62B8D828E838FF0122FF58C8257
:201A6800851F81D01F22C01F85811FC082C083C0F0E5812409F581A81F08740126FAE40896
:201A880036FB0886048A828B838CF0123AA0FFE51F24FAF8C3EF96B39208E51F2404F8A285
:201AA80008E433F6200803021BC6A81F08E51F2405F9740226F7E4083609F708E609F7E57E
:201AC8001F2405F886820886830886F0E51F240BF9123AA0F7A81F08E51F2408F974052681
:201AE800F7E4083609F708E609F7E51F240CF87600E51F240CF8E51F24FAF9C3E69740036B
:201B0800021B95A81F0886820886830886F0123AA0FDE51F240BF8E6B50507E51F240BF8BF
:201B28007600C002C003C004E51F24FBF88603088604088605E51F240CF8E62BFBE43CFCC1
:201B4800E51F2408F886820886830886F0123AA0FAA3123AA0FEA3123AA0FFE51F240BF892
:201B6800E62AFAE43EFE8A828E838FF0123AA08B828C838DF0122FF5E51F240BF806E51FA7
:201B8800240CF806D004D003D002021AF9E51F2405F886820886830886F0E51F240BF9E7B2
:201BA800122FF58A828B838CF0123AA0FFE51F24FAF8EFC3968A828B838CF0122FF5E51F34
:0B1BC8002404F88682851F81D01F22B4
:201BD30090014A75F000120F41021BEE9000977401F090014A75F00002173F900097E4F026
:081BF30090014AF5F002173FD2
:0D3CBA0002050100000003010000000000F1
:201BFB00AF82AE83ADF0FC9000ADEFF0EEA3F0EDA3F0ECA3F09000ADE0FCA3E0FDA3E0A374
:201C1B00E08C828D830200E890090075F03DE412034EAF8290002DE4F090002EEFF0900050
:201C3B002FE4F0900030F075822002047B90015875F000120F4190016575F000120F419041
:201C5B000097E4F0900158F5F012173F9000977401F090016575F00002173FE5829000B1E1
:201C7B00F0E0900097F090015875F00002173FE5829000B2F0E0903ACF939000B3F0900054
:201C9B00327401F0E4A3F09000347457F07401A3F0E4A3F09000B3F5F01204AB900157E06C
:201CBB0060FA9000B3E0903ACF93F58222E5829000B4F0E0900097F090016575F0000217C1
:201CDB003FE5829000B5F0E0FFBF01449000DF74A8F07400A3F0E4A3F09000E204F090003C
:201CFB00E3E4F075821D122B0B9000A8E09000A94401F09000E574A9F07400A3F0E4A3F030
:201D1B009000E804F09000E9E4F075821D022B779000DF74A8F07400A3F0E4A3F09000E2CC
:201D3B0004F09000E3E4F075821D122B0B9000A8E09000A954FEF09000E574A9F07400A3C5
:201D5B00F0E4A3F09000E804F09000E9E4F075821D022B77AFF0AE83E5829000B8F0EEA390
:201D7B00F0EFA3F09000DF74A8F07400A3F0E4A3F09000E204F09000E3E4F0758207122BF5
:201D9B000B9000A8E020E540900173E0FFBF03389000B7E0900174F0900175E0FFBF01081A
:201DBB009000ACE09000B6F09000B8E0FDA3E0FEA3E0FF9000B6E09000BBF08D828E838F7E
:201DDB00F0121DE77582012275820022AFF0AE83E5829000BCF0EEA3F0EFA3F07582001230
:201DFB001C76900174E0FFBF01089000A774B0F080069000A774A0F09000A7E0F582121CC2
:201E1B008A9000BCE0FDA3E0FEA3E0FF9000BBE0FCEC60378D828E838FF0123AA0FBA3AD71
:201E3B0082AE839000A7EBF08B82C007C006C005C004121C8AD004D005D006D0079000BC45
:201E5B00EDF0EEA3F0EFA3F01C80C69000BCEDF0EEA3F0EFA3F0758201021C769000DF748A
:201E7B00A8F07400A3F0E4A3F09000E204F09000E3E4F0758207122B0B9000A8E0FF30E512
:201E9B00219000E574A8F07400A3F0E4A3F09000E804F09000E9E4F0758207122B777582A5
:201EBB000122EF30E4219000E574A8F07400A3F0E4A3F09000E804F09000E9E4F07582070A
:201EDB00122B777582FF2275820022AFF0AE83E5829000C0F0EEA3F0EFA3F0900173E0FFA5
:201EFB00BF0402800302201D9000DF74A8F07400A3F0E4A3F09000E204F09000E3E4F07525
:201F1B008207122B0B9000A8E020E603022019900175E070089000ACE09000BFF0758200C9
:201F3B00121C769000A77461F0758261121C8A9000C0E0FDA3E0FEA3E0FF9000BFE0FCEC8F
:201F5B00603F9000A774FFF07582FFC007C006C005C004121C8AAB82D004D005D006D007E6
:201F7B00EB903ACF938D828E838FF0122FF5A3AD82AE839000C0EDF0EEA3F0EFA3F01C808B
:201F9B00BE9000C0EDF0EEA3F0EFA3F0758201121C769000DF74A8F07400A3F0E4A3F09013
:201FBB0000E204F09000E3E4F0758217122B0B9000A8E030E0449000DF74A8F07400A3F0A5
:201FDB00E4A3F09000E204F09000E3E4F0758207122B0B9000A8E09000A94440F09000E542
:201FFB0074A9F07400A3F0E4A3F09000E804F09000E9E4F0758207122B77758201227582BF
:20201B00022275820022E5829000C3F0E0FF602BBF0150900173E0FFBF031C758200121C5E
:20203B00769000A774E1F07582E1121C8A758201121C767582012275820022900173E0FF51
:20205B00BF041C758200121C769000A774E2F07582E2121C8A758201121C767582012275B2
:20207B00820022758200229001727401F0758200121CC89000A97408F09000E574A9F07498
:20209B0000A3F0E4A3F09000E804F09000E9E4F0758200122B779000A9743FF09000E574F2
:2020BB00A9F07400A3F0E4A3F09000E804F09000E9E4F0758201122B779000A9E4F09000EC
:2020DB00E574A9F07400A3F0E4A3F09000E804F09000E9E4F0758202122B779000A974035F
:2020FB00F09000E574A9F07400A3F0E4A3F09000E804F09000E9E4F0758203122B779000DE
:20211B00A97402F09000E574A9F07400A3F0E4A3F09000E804F09000E9E4F0758205122BA3
:20213B00779000A97427F09000E574A9F07400A3F0E4A3F09000E804F09000E9E4F0758299
:20215B0006122B779000A9740EF09000E574A9F07400A3F0E4A3F09000E804F09000E9E436
:20217B00F0758207122B777582031229E17582011220217582041229E17582001220219050
:20219B0000DF74A8F07400A3F0E4A3F09000E204F09000E3E4F0758207122B0B9000A8E0B0
:2021BB009000A94470F09000E574A9F07400A3F0E4A3F09000E804F09000E9E4F075820770
:2021DB00122B779000D97401F09000DAF07582011228E39000DC7402F075820112296D750C
:2021FB00820512271C75822E12288D7582021226E51226607582011226129000CF7402F047
:20221B007582101226A49000C87408F09006D612249175820212250A9000CC7402F07582D6
:20223B0000122546758201021CDCE5829000C5F0121C23121C48900096E4F5F0121BFB7515
:20225B008200121CC89000DF74A8F07400A3F0E4A3F09000E204F09000E3E4F0758200123C
:20227B002B0B9000C6E4F09000C6E060030223C79000DF74A8F07400A3F0E4A3F09000E2F3
:20229B0004F09000E3E4F0758200122B0B9000A8E0FF7E00C007C006E4C0E0C0E074CFC060
:2022BB00E0743BC0E07480C0E012305EE58124F9F5819000A8E0FF0F0F0F9000C7EFF0909D
:2022DB0000A9EFF09000E574A9F07400A3F0E4A3F09000E804F09000E9E4F0758200122B6E
:2022FB00779000A9E0FF7E00C007C006E4C0E0C0E074E2C0E0743BC0E07480C0E012305E8C
:20231B00E58124F9F5819000DF74A8F07400A3F0E4A3F09000E204F09000E3E4F07582000C
:20233B00122B0B9000A8E0FF7E00C007C006E4C0E0C0E074CFC0E0743BC0E07480C0E0121C
:20235B00305EE58124F9F5819000A8E0FF9000C7E0FEEFB5061E74F5C0E0743BC0E074807B
:20237B00C0E012305E1581158115819000C67401F00222827425C0E0743CC0E07480C0E0C2
:20239B0012305E1581158115819000A8E0FF7E00C007C006745BC0E0743CC0E07480C0E04B
:2023BB0012305EE58124FBF5810222827466C0E0743CC0E07480C0E012305E158115811582
:2023DB00819000C4E0FFBF01028006900172E070031220829000C5E0FF24FC500302247B94
:2023FB00EF2F902401738006801F8042805C7582001229E19000D9E4F09000DAF075820117
:20241B001228E37582030229E17582001229E19000D97401F09000DAF07582001228E375BA
:20243B0082041229E1900064E4F5F0021BFB7582001229E19000D97401F09000DAF07582D8
:20245B00011228E37582010229E17582001229E19000D97401F09000DAF07582010228E3FF
:20247B007582001229E19000D97401F09000DAF07582010228E3AF83E5829000C9F0EFA38D
:20249B00F09000A9E4F09000C9E0FEA3E0FFC374FA9EE49F50229000A9E0FDBD0F0050185D
:2024BB009000A9ED04F0EE2406FEEF34FFFF9000C9EEF0EFA3F080CE9000A9E0C454F0F098
:2024DB009000C8E0FF600BBF100050069000A9E04FF09000E574A9F07400A3F0E4A3F09032
:2024FB0000E804F09000E9E4F0758204022B77E5829000CBF0E0FFBF070050128FF005F0CC
:20251B007401800225E0D5F0FB149000A9F09000E574A9F07400A3F0E4A3F09000E804F03B
:20253B009000E9E4F0758201022B77E5829000CDF09000CCE0FFF582C00712250A9000DFBA
:20255B0074A8F07400A3F0E4A3F09000E204F09000E3E4F075821D122B0BD0079000CDE0B9
:20257B00FEBE01669000A8E09000A94404F09000E574A9F07400A3F0E4A3F09000E804F028
:20259B009000E9E4F075821DC007122B77D007BF070050128FF005F07401800225E0D5F010
:2025BB00FB149000A9F09000E574A9F07400A3F0E4A3F09000E804F09000E9E4F075821CFC
:2025DB00122B779001757401F0229000A8E09000A954FBF09000E574A9F07400A3F0E4A3FF
:2025FB00F09000E804F09000E9E4F075821D122B77900175E4F022E5829000CEF0E0FF1FA0
:20261B00C2D575F005EF30E704B2D5F404A430D50AF42401C5F0F43400C5F02476FE7401AA
:20263B0035F0FF7D009000ABE0FC9000E5EEF0EFA3F0EDA3F09000E8ECF09000E9E4F0755C
:20265B008210022B777F0A7E00BE0200503AEE75F005A42476FC740135F0FD7B009000ABF9
:20267B00E0FA9000E5ECF0EDA3F0EBA3F09000E8EAF09000E9E4F08F82C007C006122B7725
:20269B00D006D0070F0E80C122E5829000D0F07F119000CFE0FEEE60289000E574D0F074DB
:2026BB0000A3F0E4A3F09000E804F09000E9E4F08F82C007C006122B77D006D0070F1E8090
:2026DB00D59000D0E09000ACF022E5829000D1F0E0FF8FF005F07401800225E0D5F0FB14A1
:2026FB009000A9F09000E574A9F07400A3F0E4A3F09000E804F09000E9E4F0758202022BB7
:20271B0077E5829000D2F0E0FF24FA400EBF03004009EF24FE9000AAF080069000AA7403A6
:20273B00F09000E574AAF07400A3F0E4A3F09000E804F09000E9E4F0758203122B77900096
:20275B00D2E09000ABF022AF83E5829000D3F0EFA3F09000DF74A8F07400A3F0E4A3F09068
:20277B0000E204F09000E3E4F0758206122B0B9000A8E053E0D7F09000D3E0FEA3E0FFBE49
:20279B00FA05BF00028024BEE805BF03028012BED025BF07229000A8E09000A94408F08011
:2027BB001E9000A8E09000A9F080149000A8E09000A94420F080089000A8E09000A9F0900D
:2027DB0000E574A9F07400A3F0E4A3F09000E804F09000E9E4F0758206022B77E58290001D
:2027FB00D5F09000DF74A8F07400A3F0E4A3F09000E204F09000E3E4F0758206122B0B907E
:20281B0000A8E053E0F9F09000D5E0FF600FBF06028016BF0C02801DBF123080249000A8A2
:20283B00E09000A94406F0802C9000A8E09000A94404F080209000A8E09000A94402F0804E
:20285B00149000A8E09000A9F0800A9000A8E09000A94404F09000E574A9F07400A3F0E488
:20287B00A3F09000E804F09000E9E4F0758206022B77E5829000D6F0E0FF24824027BF01E7
:20289B000040229000D7EFF09000E574D7F07400A3F0E4A3F09000E804F09000E9E4F07519
:2028BB008205022B779000D87401F09000E574D8F07400A3F0E4A3F09000E804F09000E9F1
:2028DB00E4F0758205022B77E5829000DBF09000DF74A8F07400A3F0E4A3F09000E204F048
:2028FB009000E3E4F0758200122B0B9000DBE0600C9000A8E09000A94440F080089000A9FA
:20291B00E053E0BFF09000D9E0600A9000A9E043E020F080089000A9E053E0DFF09000DACE
:20293B00E0600A9000A9E043E010F080089000A9E053E0EFF09000E574A9F07400A3F0E4D6
:20295B00A3F09000E804F09000E9E4F0758200022B77E5829000DDF09000DF74A8F07400C2
:20297B00A3F0E4A3F09000E204F09000E3E4F0758200122B0B9000DDE0600C9000A8E090E5
:20299B0000A94408F080089000A9E053E0F7F09000DCE0FFBF020A9000A9E043E004F080B6
:2029BB00089000A9E053E0FBF09000E574A9F07400A3F0E4A3F09000E804F09000E9E4F004
:2029DB00758200022B77E5829000DEF09000DF74A8F07400A3F0E4A3F09000E204F090008D
:2029FB00E3E4F0758200122B0B9000DEE0FF24FB5003022AC7EF2F2F902A1773022A26022F
:202A1B002A46022A66022A87022AA8758200C007121CC89000A8E09000A954FDF09000023A
:202A3B00E4F5F0121BFBD007022AE4758200C007121CC89000A8E09000A94402F0900002D6
:202A5B00E4F5F0121BFBD007022AE4758201C007121CC89000A8E044029000A954FEF09065
:202A7B000002E4F5F0121BFBD007805D758201C007121CC89000A8E044029000A954FEF006
:202A9B00900002E4F5F0121BFBD007803C758201C007121CC89000A8E09000A94403F09038
:202ABB000002E4F5F0121BFBD007801D758200C007121CC89000A8E09000A954FDF09000BE
:202ADB0002E4F5F0121BFBD0079000E574A9F07400A3F0E4A3F09000E804F09000E9E4F058
:202AFB00758200C007122B77D007900173EFF022E5829000E4F0758200121C769000E4E0B3
:202B1B00FF9000A7F08F82121C8A9000A7E4F09000DFE0FDA3E0FEA3E0FF9000E2E0FCEC17
:202B3B00602D9000A7E0F582C007C006C005C004121C8AAB82D004D005D006D0078D828E71
:202B5B00838FF0EB122FF5A3AD82AE831C80D09000E3E07006758201021C7622E58290005A
:202B7B00EAF0758200121C769000EAE04420FF9000A7F08F82121C8A9000E5E0FDA3E0FE45
:202B9B00A3E0FF9000E8E0FCEC602D8D828E838FF0123AA0FBA3AD82AE839000A7EBF0E050
:202BBB00F582C007C006C005C004121C8AD004D005D006D0071C80D09000E9E0700675822D
:052BDB0001021C76223E
:203ACF00008040C020A060E0109050D030B070F0088848C828A868E8189858D838B878F857
:203AEF00048444C424A464E4149454D434B474F40C8C4CCC2CAC6CEC1C9C5CDC3CBC7CFCB7
:203B0F00028242C222A262E2129252D232B272F20A8A4ACA2AAA6AEA1A9A5ADA3ABA7AFAD6
:203B2F00068646C626A666E6169656D636B676F60E8E4ECE2EAE6EEE1E9E5EDE3EBE7EFE36
:203B4F00018141C121A161E1119151D131B171F1098949C929A969E9199959D939B979F9B6
:203B6F00058545C525A565E5159555D535B575F50D8D4DCD2DAD6DED1D9D5DDD3DBD7DFD16
:203B8F00038343C323A363E3139353D333B373F30B8B4BCB2BAB6BEB1B9B5BDB3BBB7BFB36
:203BAF00078747C727A767E7179757D737B777F70F8F4FCF2FAF6FEF1F9F5FDF3FBF7FFF96
:203BCF000D526561642066726F6D2025643A2025640A0053656E64696E6720746F2025646F
:203BEF003A2025640A000D526561642076616C7565206D61746368657320746865206E65AA
:203C0F00776C79207772697474656E2076616C7565203A440A000D526561642076616C75C6
:203C2F006520646F65736E2774206D6174636820746865206E65776C7920777269747465A0
:203C4F006E2076616C7565203B280A000D526561643A2025640A000D48617264776172656C
:0C3C6F00204465746563746564210A00DC
:203CC70000020601000000030100000000000207010000000301000000000000050100D2EA
:1D3CE700F0F0F0F0E1F0F0F0F0F0F0F0F0F0F0F0F0F0F0F0F0F0F0F0F0F0F0F0F09F
:040000000200513277
:01000B0032C2
:0100130032BA
:01001B0032B2
:03002300020920AF
:01002B0032A2
:01003300329A
:01003B003292
:01004300328A
:03004B000205A209
:0300E50002004EC8
:03004E00022BE0A2
:202BE00043BA80D2AF900008E4F074C2A3F07401A3F0E4A3F090000CF07582011201581222
:202C00001BD39000EC7430F09000ECE0FFBF7302802C9000EDE4F090005C74EDF07400A3D6
:202C2000F0E4A3F090005F04F0900060E4F07582011209C39000EDE09000ECF080CA90000D
:202C400062747BF0743CA3F07480A3F0900065740CF0900066E4F0758201120A269000C4AC
:202C60007401F07582011222457E007F00C3EE9418EF64809480505F8E059000DF74EFF039
:202C80007400A3F0E4A3F09000E204F09000E3E4F08D82C007C006122B0BD006D0079000E8
:202CA000EFE0FD7C00C007C006C005C004C006C0077487C0E0743CC0E07480C0E012305E0A
:202CC000E58124F9F5819000FA1200E8D006D0070EBE00990F80969000BF7401F09000EE0E
:202CE00075F000121EE6AF82BF02EC9000EEE0FF7E00C007C0067499C0E0743CC0E0748022
:0D2D0000C0E012305EE58124FBF58180CA41
:203C7B005374617274696E672E2E0A000D52656769737465722025643A2025640A000D5230
:143C9B00656365697665642056616C75653A20256420200000
:20005E00794AE94400601A7A0143E301903CBA15E390014AE405E393A315E3F0A3D9F5DAE8
:01007E00F38E
:202D0D00AF83E5829000F2F0EFA3F09000F4E4F0A3F09000F0E0FEA3E0FF7D109000F2E05F
:202D2D00FBA3E0FC9000F6235401F0EB2BFBEC33FC9000F2EBF0ECA3F09000F4E0FBA3E034
:202D4D00FCEB2BFBEC33FC9000F4EBF0ECA3F09000F6E060089000F4E043E001F09000F496
:202D6D00E0FBA3E0FCC3EB9EEC9F40139000F4EBC39EF0EC9FA3F09000F2E043E001F0DD91
:0D2D8D009B9000F2E0FEA3E08E82F5832211
:202D9A00AF82AE83ADF0FC9000FBEFF0EEA3F0EDA3F0ECA3F09000FFE4F09000FBE0FCA3C7
:202DBA00E0FDA3E0FEA3E0FF7B009000F7E0F52CA3E0F52DA3E0F52EA3E0F52F235401703C
:202DDA0074C003E52C252CF8E52D33F9E52E33FAE52F33FB9000F7E8F0E9A3F0EAA3F0EB45
:202DFA00A3F09000F7E0F52CA3E0F52DA3E0F52EA3E0F52FC3EC952CED952DEE952EEF9558
:202E1A002FD0035027E52FC313F52FE52E13F52EE52D13F52DE52C13F52C9000F7F0E52DB3
:202E3A00A3F0E52EA3F0E52FA3F080090B9000FFEBF0022DC49000FFE0FF9000FBE0FBA330
:202E5A00E0FCA3E0FDA3E0FE9000F7E0F52CA3E0F52DA3E0F52EA3E0F52FC3EB952CEC9511
:202E7A002DED952EEE952F40179000FBEBC3952CF0EC952DA3F0ED952EA3F0EE952FA3F09F
:202E9A009000F7E0FBA3E0FCA3E0FDA3E0C313FEED13FDEC13FCEB139000F7F0ECA3F0ED87
:1F2EBA00A3F0EEA3F08F061FEE708F9000FBE0FCA3E0FDA3E0FEA3E08C828D838EF0229B
:202ED900AF82AE83ADF0FC900104EFF0EEA3F0EDA3F0ECA3F0900108E4F0A3F0A3F0A3F0C4
:202EF900900100E0FCA3E0FDA3E0FEA3E0FF7B20C003900104E0F8A3E0F9A3E0FAA3E0FB87
:202F190090010C235401F0E828F8E933F9EA33FAEB33FB900104E8F0E9A3F0EAA3F0EBA352
:202F3900F0900108E0F8A3E0F9A3E0FAA3E0FBE828F8E933F9EA33FAEB33FB900108E8F0E2
:202F5900E9A3F0EAA3F0EBA3F0D00390010CE06008900108E043E001F0900108E0F52CA35F
:202F7900E0F52DA3E0F52EA3E0F52FC3E52C9CE52D9DE52E9EE52F9F401F900108E52CC39A
:202F99009CF0E52D9DA3F0E52E9EA3F0E52F9FA3F0900104E043E001F01BEB6003022F0994
:142FB900900104E0FCA3E0FDA3E0FEA3E08C828D838EF02251
:06007F00E478FFF6D8FD55
:202FCD00AC82AD8390010EE0FEA3E0FFBE000360121F0F90010DE08C828D83122FF5A3DED3
:082FED00FADFF88C828D8322CB
:1B2FF50020F71130F6138883A88220F509F6A8837583002280FEF280F5F022DB
:200085007800E84400600A790075A000E4F309D8FC784AE84401600C7902900000E4F0A32E
:0400A500D8FCD9FAB0
:20301000C01F85811F7E008E8312019AD01F22AFF0AE83E582900112F0EEA3F0EFA3F090F2
:203030000112E0FDA3E0FEA3E0FF900111E0FC900126E4F0A3F0A3F0900129EDF0EEA3F046
:20305000EFA3F090012CECF0903010023164C01FE581F51F24FBFF900126E4F0A3F0A3F0B6
:20307000E51F24FBF8900129E6F008E6A3F008E6A3F090012CEFF0903010123164D01F226F
:20309000E582900122F0E0FF900118E0C0E0A3E0C0E0A3E0C0E01230AB800D900116E0C007
:2030B000E0A3E0C0E08F8222158115811581900120E02401F0A3E03400F022E5829001237E
:2030D000F0E02430FF24C6500D74072FFF900115E060034307208F82023090E5829001248B
:2030F000F0E0FFC4540FF582C0071230CBD00753070F8F820230CBE582900125F090011B78
:20311000E0FCA3E0FDA3E0FEA3E0FF90011FE0FB900125E0FA79208B00E828F52CEF23546A
:2031300001452CFBEC2CFCED33FDEE33FEEF33FFC3EB9A4007EBC39AFB43040119E970D73E
:2031500090011BECF0EDA3F0EEA3F0EFA3F090011FEBF022AF83E58290012DF0EFA3F0904E
:20317000012DE0FEA3E0FF900116EEF0EFA3F0900126E0FDA3E0FEA3E0FF900118EDF0EE9F
:20319000A3F0EFA3F0900120E4F0A3F0900129E0FDA3E0FEA3E0FF8D828E838FF0123AA0CD
:2031B000FC90012974012DF0E43EA3F0EFA3F0EC7003023A5CBC25028003023A5490012FD3
:2031D000E4F0900130F0900131F0900132F0900133F0900134F0900135F0900136F090018E
:2031F00038F0900139F0A3F090013B14F0A3F0900129E0FDA3E0FEA3E0FF8D828E838FF0AE
:20321000123AA0FBA3AD82AE83900129EDF0EEA3F0EFA3F090013FEBF0BB25088B82123038
:203230009002319CBB300050030232FDEB24C650030232FD90013BE0F522A3E0F52374FF86
:20325000B52263B52360C005C006C007900139E0FAA3E0FF900148EAF0EFA3F090000AC0E5
:2032700005C003123A80AE82AF83D003D0058B057A00ED2EFEEA3FFFEE24D0FEEF34FFFF54
:20329000900139EEF0EFA3F0D007D006D005900139E0F5F0A3E045F0600302320A900130C9
:2032B0007401F002320AC005C006C007900148E522F0E523A3F090000AC006C005C00312A4
:2032D0003A80AA82AF83D003D005D0067E00EB2AFAEE3FFFEA24D0FAEF34FFFF90013BEAE0
:2032F000F0EFA3F0D007D006D00502320A90013FE0FBBB2E2FC005C006C00790013BE0FAD1
:20331000A3E0FFBAFF05BFFF028009D007D006D00502320AD007D006D00590013BE4F0A38F
:20333000F002320ABB61004014EB2485400F90013F74DF5BF09001157401F0800590011558
:20335000E4F090013FE0FBBB20028075BB2B028067BB2D028059BB4202806FBB4302807C90
:20337000BB44030235F4BB460302361ABB480302320ABB49030235F4BB4A0302320ABB4CF7
:20339000028050BB4F03023602BB5003023562BB53028077BB540302320ABB550302360AB1
:2033B000BB5803023612BB5A0302320A02362290012F7401F002320A9001317401F002322F
:2033D0000A9001327401F002320A9001347401F002320A9001357401F002320A900134E0F7
:2033F000600E90012CE014F9F090013FE7F0800F90012CE024FEFFF08F0190013FE7F0900A
:20341000013FE0F58212309002363190012CE024FDFFF08F01870509870609870719199012
:20343000011BEDF0EEA3F0EFA3F08D828E838FF0123A6885822285832390013BE0FAA3E0B0
:20345000FDBAFF0DBDFF0A90013BE522F0E523A3F090012FE0704B900139E0FAA3E0FDC333
:20347000E5229AE5239D503A900139EAC39522F0ED9523A3F0900139E0FAA3E0FD8A068DD5
:20349000071ABAFF011DEE4F6010758220C005C002123090D002D00580E3900139EAF0ED6C
:2034B000A3F090013BE0F525A3E0F52690011BE0FAA3E0FDA3E0FF8A828D838FF0123AA0F6
:2034D000F524603CC3E4952574808526F063F08095F0502C152574FFB52502152685248274
:2034F00012309090011BE0FAA3E0FDA3E0FF0ABA00010D90011BEAF0EDA3F0EFA3F080ACDC
:2035100090012FE07003023631900139E0FEA3E0FFC3E5229EE5239F400302363190013970
:20353000EEC39522F0EF9523A3F0900139E0FEA3E0FF8E028F051EBEFF011FEA4D700302F4
:203550003629758220C007C006123090D006D00780E090012CE024FDFDF08D018727098702
:2035700028098729191990011BE527F0E528A3F0E529A3F090011DE0FDBD8000400890019E
:203590003F7443F08020BD6000400890013F7450F08013BD4000400890013F7449F08006D1
:2035B00090013F7458F090013FE0FDF582C00512309075823A1230907582301230907582C1
:2035D00078123090D005BD4902800EBD5002800990011CE0F5821230EB90011BE0F5821248
:2035F00030EB803D9001337401F0900138740AF0802F9001387408F08027900138740AF0C1
:20361000801F9001387410F080179001367401F0800F8B821230908008900139EEF0EFA3CB
:20363000F0900136E0607190012CE024FCFFF08F01870309870509870609870719191990AF
:20365000011BEBF0EDA3F0EEA3F0EFA3F090011B74AFF0743CA3F07480A3F090011BE0F5D6
:2036700027A3E0F528A3E0F52974012527FAE43528FBAF2990011BEAF0EBA3F0EFA3F085F8
:2036900027828528838529F0123AA0FF700302319C8F8212309080C3900138E07003023101
:2036B0009C900134E0604790012CE014F9F087077E007D007B0090011BEFF0EEA3F0EDA3D8
:2036D000F0EBA3F0900133E0600302377490011BE0FBA3E0A3E0A3E07D007E007F0090019D
:2036F0001BEBF0EDA3F0EEA3F0EFA3F08076900135E0602890012CE024FCFFF08F01870357
:2037100009870509870609870719191990011BEBF0EDA3F0EEA3F0EFA3F0804890012CE01D
:2037300024FEFFF08F01870609870719EF3395E0FDFB90011BEEF0EFA3F0EDA3F0EBA3F002
:20375000900133E0701E90011BE0FBA3E0FDA3E0A3E07E007F0090011BEBF0EDA3F0EEA385
:20377000F0EFA3F0900133E0603D90011BE0A3E0A3E0A3E030E72B90011BE0FBA3E0FDA385
:20379000E0FEA3E0FFC3E49BFBE49DFDE49EFEE49FFF90011BEBF0EDA3F0EEA3F0EFA3F0F2
:2037B0008005900133E4F09001377401F0900138E0F525752A45752B01E4F522F5239001C3
:2037D0001FE4F0852582123107900137E0703390011FE0C454F0F52790011FE0C4540F4575
:2037F00027F527852A82852B83E0FFE5274207852A82852B83EFF0152A74FFB52A02152BC8
:20381000800B90011FE0852A82852B83F00522E4B522020523900137E0B40100E433F09029
:20383000011BE0FAA3E0FBA3E0FEA3E0FFEA4B4E4F708B900146E52AF0E52BA3F090013DED
:20385000E522F0E523A3F0900139E0F5F0A3E045F070099001397401F0E4A3F0900130E0BF
:20387000FFE0704790012FE0704185222A85232B900139E0FAA3E0FBC007AF2A0F8F067FC8
:2038900000C3EE9AEF9BD0075019758220C007C003C002123090D002D003D0071ABAFF017E
:2038B0001B80D5900139EAF0EBA3F0900133E0602075822DC007123090D007900139E024E0
:2038D000FFFDA3E034FFFE900139EDF0EEA3F0805690013DE0F5F0A3E045F0604A90013173
:2038F000E0602075822BC007123090D007900139E024FFFDA3E034FFFE900139EDF0EEA310
:20391000F08024900132E0601E758220C007123090D007900139E024FFFDA3E034FFFE904D
:203930000139EDF0EEA3F090012FE0704490013DE0F52AA3E0F52B900139E0FAA3E0FBC039
:20395000078A068B071ABAFF011BC3E52A9EE52B9FD007504FEF60047E3080027E208E8279
:20397000C007C003C002123090D002D003D00780CE900139E0FEA3E0FF90013DE0F52AA3B5
:20399000E0F52BC3E52A9EE52B9F500F900139EEC3952AF0EF952BA3F08011900139E4F0FE
:2039B000A3F08008900139EAF0EBA3F0900146E0FEA3E0FF90013DE0F52AA3E0F52BAA2A3F
:2039D000AD2B152A74FFB52A02152BEA4D6044900137E0B40100E433F0900137E070130EB4
:2039F000BE00010F8E828F83E0C4540F90011FF0800E8E828F83E0FD53050F90011FEDF09F
:203A100090011FE0F582C007C0061230CBD006D00780AB90012FE0700302319C900139E091
:203A3000FEA3E0FF8E038F051EBEFF011FEB4D700302319C758220C007C006123090D00610
:183A5000D00780E08C8212309002319C900120E0FEA3E08E82F58322BC
:0B3CAF003C4E4F20464C4F41543E005D
:183A6800AA82AB83123AA06003A380F8C3E5829AF582E5839BF58322AA
:203A8000AA83AB828BF0900148E0A4F8A9F08AF0E0A429F98BF0A3E0A429F58388822222B2
:0D005100758169123ABCE582600302004E21
:1C3AA00020F71430F6148883A88220F507E6A88375830022E280F7E49322E02235
:043ABC0075820022ED
:00000001FF
