:2000E800E582900007F0E0FF900001F0900002E0FBA3E0FCA3E0FDA3E0FE900006E0FA90BD
:200108000022EBF0ECA3F0EDA3F0EEA3F09000267401F0900027E4F0900028EAF08F82020F
:200128000350AF83E582900008F0EFA3F0900008E0FEA3E0FFBE0A29BF0026900001E0FF83
:2001480090000A740DF0900034740AF07400A3F0E4A3F090003704F0900038F08F82120640
:2001680044900008E0FEA3E0FF8E05900001E0FC90000BEDF0900034740BF07400A3F0E4A5
:20018800A3F090003704F0900038F08C82C007C006120644D006D0078E828F8322900001D8
:2001A800E0FF90000CE4F090002E740CF07400A3F0E4A3F090003104F0900032F08F8212B2
:0E01C80005D990000CE0FF7E008F828E83220E
:2001D600AF83E58290000EF0EFA3F090000EE0FEA3E0FFEE4F60197C827D0AEC4D600A0084
:2001F60000001CBCFF011D80F21EBEFF011F80E322E582900010F0E0FFEF600B7E37EE60CF
:20021600031E80FA1F80F222AF83E582900011F0EFA3F0900011E0FEA3E0FFEE4F60107DA3
:1002360005ED60031D80FA001EBEFF011F80EC2243
:2000A900783F7610784076007841760078427600784376007844762F0876000876407857D0
:1C00C90076107858760078597600785A7600785B7600785C7647087600087640AA
:20024600E582900014F0900015E4F0A3F0A3F0900014E0FFBF010D900015743FF0E4A3F0EF
:200266007440A3F0900015E0FDA3E0FEA3E0FF8D828E838FF022E582900018F0900019E45F
:20028600F0A3F0A3F0900018E0FFBF010D9000197457F0E4A3F07440A3F0900019E0FDA3A3
:2002A600E0FEA3E0FF8D828E838FF022E58290001CF0E0F58212027CAD82AE83AFF07404B6
:2002C6002DFDE43EFE8D828E838FF0123C18B40100E433F58222E58290001EF0C2AF90005E
:2002E6001EE0F58212027C120B61AF8290001DE0FEC3EF9EE43390001FB40100E433F0D215
:20030600AF90001FE0F58222E582900020F0C2AF900020E0F582120246AD82AE83AFF00D1B
:20032600BD00010E8D828E838FF0123C18FDD2AF8D8222E582900021F0C2AF900021E0F538
:2003460082120246120AB8D2AF22E582900029F090002AE4F090002B7402F0900029E0FFED
:20036600BF0109900027E060030203F4900026E0FEBE010590002BEFF090002BE0FF90009F
:2003860022E0FBA3E0FCA3E0FDA3E0FE900107EBF0ECA3F0EDA3F0EEA3F0900EC075F0160E
:2003A6007402C007123051AB82AC83ADF0FED007EEC313FEED13FDEC13FCEB13FBEEC31322
:2003C600FEED13FDEC13FCEB1390003CF0ECA3F0EDA3F0EEA3F0900040E4F0900041F090F2
:2003E6000042F08F821206FFE58290002AF090002AE0600302052F90002CE4F0900027E032
:20040600FF24FC404CEF2F900411738006801480128010900029E0FEBE013690002C7401FC
:20042600F0802E900029E0FEBE0120900022E0FBA3E0A3E0FDA3E0FE530302E4C313CB13A1
:20044600CBFC90002C74024BF0800690002C7401F0BF03067E207F0080047E007F009000C5
:200466002CE030E1067C807D0080047C007D00EC4E4410FF900029E0FEBE010280030205EE
:200486000F90002CE0FEBE0102800ABE02028017BE034A802E90002BE0FEBE0205438E0120
:2004A600803B538EFE8036900022E0FBA3E0FCA3E0FDA3E0FEEB30E005438780801F538716
:2004C6007F801A900022E0FBA3E0FCA3E0FDA3E0FEEB30E005438E208003538EDF743F55B4
:2004E600A2FE900028E0030354C0FD74C05D4EF5A290002CE030E0067D407E0080047D0043
:200506007E00ED4FF59843A810900029E0F58212027CAD82AE83AFF074042DFDE43EFE8DA5
:20052600828E838FF0E412316D90002AE0F58222C020C0E0C0F0C082C083C007C006C005D5
:20054600C004C003C002C001C000C0D075D000C2AFE59830E1325398FD7401C0E0742DC067
:20056600E07400C0E0E4C0E090005775F040120CFDAF82E58124FCF581EF600890002DE035
:20058600F5998004785B7600E59830E0275398FE90002DE599F07401C0E0742DC0E0740068
:2005A600C0E0E4C0E090003F75F040120B9BE58124FCF581D2AFD0D0D000D001D002D00382
:2005C600D004D005D006D007D083D082D0F0D0E0D02032E582900033F0E0F582120246AD10
:2005E60082AE83AFF090002EE0F509A3E0F50AA3E0F50B900032E0F9B90103E98001E4F567
:2006060008C2AFA809A90AAC0BC007C006C005900031E0C0E0C000C001C0048D828E838FB9
:20062600F0120CFDAC82E58124FCF581D005D006D007D2AFE5086003EC60C68C8222E58283
:20064600900039F0E0F58212027CAD82AE83AFF0900034E0F50DA3E0F50EA3E0F50F9000B2
:2006660038E0F9B90103E98001E4F50CC2AFA80DA90EAC0FC007C006C005900037E0C0E026
:20068600C000C001C0048D828E838FF0120B9BAC82E58124FCF581D005D006D007D2AFE5A6
:2006A6000C6003EC60C6EC604D74042DF9E43EFA8F0389828A838BF0123C18703989828A97
:2006C600838BF0740112316DC004C0E0743AC0E07400C0E0E4C0E08D828E838FF0120CFDED
:1906E600E58124FCF581D004900039E0FFBF010690003AE0F5998C822255
:2006FF00E582900043F0900044E4F090004504F090003CE0FCA3E0FDA3E0FEA3E0FFEC4DDC
:20071F004E4F70099000447401F00208F8900046E4F0A3F0900043E0FB6003BB0158C3E460
:20073F009CE49D74019EE49F40030208B9C3E49CE49D740C9EE49F4034900045E4F09001CE
:20075F0007740CF0E4A3F0A3F0A3F08C828D838EF0EF123051A882A983AAF0FB90003CE8A9
:20077F00F0E9A3F0EAA3F0EBA3F00208B99000447402F00208B9C3E49CE49D74019EE49FD9
:20079F0040030208B98E008F01900046E8F0E9A3F0C3E498740199505D900045E4F09000B9
:2007BF00F7740CF0E4A3F088828983C007C006C005C004122E84AA82AB83D004D005D00673
:2007DF00D007900046EAF0EBA3F0900107740CF0E4A3F0A3F0A3F08C828D838EF0EF123083
:2007FF0051AC82AD83AEF0FF90003CECF0EDA3F0EEA3F0EFA3F0900046E0F510A3E0F5111F
:20081F0090003CE0FAA3E0FBA3E0FCA3E0FD9000FEE510F0E511A3F0E4A3F0A3F08A828BF9
:20083F00838CF0EDC005C004C003C002122F11A882A983AEF0FFD002D003D004D005E849DB
:20085F004E4F600D90004674012510F0E43511A3F0900046E0FEA3E0FF900107EEF0EFA304
:20087F00F0E4A3F0A3F08A828B838CF0EDC007C006123051AA82AB83ACF0FDD006D007908C
:20089F00003CEAF0EBA3F0ECA3F0EDA3F01EBEFF011F900046EEF0EFA3F0900043E0FFBF04
:2008BF000202800ABF03028014BF042D801E900046E0FEA3E0FF90FEA2EEF0801C900046EF
:2008DF00E0FEA3E0FF90FEA3EEF0800D900046E0FEA3E0FF90FEA4EEF0900044E06003029E
:2008FF000AB190003CE0FCA3E0FDA3E0A3E0C3E49CFEE49DFF900043E0FD24FB5003020A01
:20091F00B1ED2D2D9009277302093602098A0209E3020A29020A6E747F558EFD900045E092
:20093F00035480FC74805C4DF58E5389F074F75589FD900042E0C40354F8FC74085C4DF5B8
:20095F0089900040E0FDBD0105438F018003538FFE8E8A8F8C900041E0FDBD010543A802B8
:20097F00800353A8FD438810020AB153890F900040E0FDBD0105438F028003538FFD8E8B9B
:20099F008F8D747F5589FD900042E0035480FC74805C4DF589900045E06009AC8E7D004396
:2009BF000440800874BF558EFBFC7D008C8E900041E0FDBD010543A808800353A8F7438804
:2009DF0040020AB1538EF7900040E0FDBD0105438F048003538FFB8ED78FD6900045E0609E
:2009FF0009AC8E7D00430404800874FB558EFBFC7D008C8E900041E0FDBD010543AF04807E
:200A1F000353AFFB438E10020AB153D1FB900040E0FDBD010543D101800353D1FE900045FB
:200A3F00E06009ACD17D00430402800874FD55D1FBFC7D008CD18ED58FD4900041E0FDBDEA
:200A5F00010543AF20800353AFDF43D108804353D1BF900040E0FDBD010543D110800353CF
:200A7F00D1EF900045E06009ACD17D00430420800874DF55D1FBFC7D008CD18ED38FD290F4
:190A9F000041E0FFBF010543AF40800353AFBF43D180900044E0F5822202
:200AB800AFF0AE83E582900049F0EEA3F0EFA3F0900049E0FDA3E0FEA3E0FF74012DFAE4E2
:200AD8003EFB8F048A828B838CF0E412316D74022DFAE43EFB8F048A828B838CF0E41231FE
:200AF8006D74032DFAE43EFB8F048A828B838CF0E412316D74042DFDE43EFE8D828E838F88
:200B1800F0E402316DAFF0AE83E58290004CF0EEA3F0EFA3F090004CE0FDA3E0FEA3E0FF87
:200B380074012DFAE43EFB8F048A828B838CF0123C18FA8D828E838FF0123C18FDEAB505B5
:200B58000474018001E4F58222AFF0AE83E58290004FF0EEA3F0EFA3F090004FE0FDA3E0BE
:200B7800FEA3E0FF8D828E838FF0123C18FC0DBD00010E8D828E838FF0123C18FDECC39DB5
:200B9800F58222C01F85811FC082C083C0F0E5812408F581A81F0886820886830886F012EB
:200BB8000B61AC82E51F24FAF8C3EC96B39200E433FC200003020CF5A81F08E51F2404F9B2
:200BD800740326F7E4083609F70809E6F7E51F2404F886820886830886F0E51F240AF91261
:200BF8003C18F7A81F08E51F2407F9740526F7E4083609F70809E6F7E51F240BF87600E56F
:200C18001F240BF8E51F24FAF9C3E6974003020CB6C004A81F0886820886830886F0123C9C
:200C380018FCE51F240AF8E6B504028004D0048009D004E51F240AF87600C004E51F240775
:200C5800F886820886830886F0123C18FAA3123C18FBA3123C18FCE51F240AF8E62AFAE46C
:200C78003BFBE51F24FBF88605088606088607E51F240BF8E62DFDE43EFE8D828E838FF05D
:200C9800123C18FD8A828B838CF012316DE51F240AF806E51F240BF806D004020C17E51F35
:200CB8002404F886820886830886F0E51F240AF9E712316DA81F08740126FDE40836FE0814
:200CD80086078D828E838FF0123C18FBE51F24FAF8E62BFB8D828E838FF012316D8C828567
:200CF8001F81D01F22C01F85811FC082C083C0F0E5812409F581A81F08740126FAE4083663
:200D1800FB0886048A828B838CF0123C18FFE51F24FAF8C3EF96B39200E51F2404F8A200C6
:200D3800E433F6200003020E56A81F08E51F2405F9740226F7E4083609F70809E6F7E51F69
:200D58002405F886820886830886F0E51F240BF9123C18F7A81F08E51F2408F9740526F7AC
:200D7800E4083609F70809E6F7E51F240CF87600E51F240CF8E51F24FAF9C3E697400302DD
:200D98000E24A81F0886820886830886F0123C18FDE51F240BF8E6B50507E51F240BF876CD
:200DB80000C002C003C004E51F24FBF88603088604088605E51F240CF8E62BFBE43CFCE5D0
:200DD8001F2408F886820886830886F0123C18FAA3123C18FEA3123C18FFE51F240BF8E6A1
:200DF8002AFAE43EFE8A828E838FF0123C188B828C838DF012316DE51F240BF806E51F24F3
:200E18000CF806D004D003D002020D88E51F2405F886820886830886F0E51F240BF9E712BF
:200E3800316D8A828B838CF0123C18FFE51F24FAF8EFC396FF8A828B838CF012316DE51F56
:0B0E58002404F88682851F81D01F2231
:200E6300E582900057F0900053E06024900054E0FDA3E0FEA3E0FF740B2DFDE43EFE8D824E
:200E83008E838FF0123C18FD900057E04DFF8022900054E0FCA3E0FDA3E0FE740C2CFCE45A
:200EA3003DFD8C828D838EF0123C18FC900057E05CFF8F8222AFF0AE83E582900058F0EEA5
:200EC300A3F0EFA3F0900058E0FDA3E0FEA3E0FF74032DFDE43EFE8D828E838FF0123C186C
:200EE300FF600EBF01028009BF030280047F0080027F018F8222AFF0AE83E58290005BF029
:200F0300EEA3F0EFA3F090005BE0FDA3E0FEA3E0FF74032DFDE43EFE8D828E838FF0123C52
:200F230018FF6009BF020280047F0080027F018F8222AFF0AE83E582900061F0EEA3F0EFAB
:200F4300A3F0900061E0FDA3E0FEA3E0FF90005EE08D828E838FF012316D74012DFAE43E4F
:200F6300FB8F0490005FE08A828B838CF012316D74032DFAE43EFB8F04900060E08A828B16
:200F8300838CF012316D74042DFAE43EFB8F048A828B838CF0E412316D74052DFAE43EFB69
:200FA3008F048A828B838CF0E412316D74062DFAE43EFB8F048A828B838CF0740312316D63
:200FC30074072DFAE43EFB8F048A828B838CF0740112316D74082DFAE43EFB8F048A828B17
:200FE300838CF0E412316D74092DFAE43EFB8F048A828B838CF0E412316D740A2DFDE43E13
:20100300FE8D828E838FF0E402316DAFF0AE83E582900064F0EEA3F0EFA3F0900067E4F0C3
:20102300900064E0FDA3E0FEA3E0FF74022DFAE43EFB8F048A828B838CF0123C18FCEC6048
:2010430010900067E025E0FBF0E043E001F01C80ED740B2DF512E43EF5138F1474012DF81F
:20106300E43EF98F04888289838CF0123C18F8900067E088F005F0800225E0D5F0FBF885C7
:2010830012828513838514F012316D740C2DFAE43EFB8F04E8F4F88A828B838CF012316DF4
:2010A300900068E4F0900069F090006AF090006BF090006CF090006DF090006EF090006FDD
:2010C300F0900070F0900071F0900072F0900073F08D828E838FF0123C18FFBF01028014FD
:2010E300BF0202806EBF03030211B5BF050302121302126F900068E591F0900069E592F080
:2011030090FE19E090006AF090FE11E090006BF090FE29E090006CF090FE21E090006DF0F2
:2011230090FE31E090006EF090FD31E090006FF090FD21E0900070F090FD11E0900071F0A5
:2011430090FD01E0900072F090FD41E0900073F002126F900068E595F0900069E596F090B2
:20116300FE1AE090006AF090FE12E090006BF090FE2AE090006CF090FE22E090006DF0908E
:20118300FE32E090006EF090FD32E090006FF090FD22E0900070F090FD12E0900071F09041
:2011A300FD02E0900072F090FD42E0900073F002126F900068E5B1F0900069E5B2F090FEAA
:2011C3001BE090006AF090FE13E090006BF090FE2BE090006CF090FE23E090006DF090FE2A
:2011E30033E090006EF090FD33E090006FF090FD23E0900070F090FD13E0900071F090FDDE
:2012030003E0900072F090FD43E0900073F0805C900068E5C9F0900069E5CAF090FE1DE0BE
:2012230090006AF090FE15E090006BF090FE2DE090006CF090FE25E090006DF090FE35E0A9
:2012430090006EF090FD35E090006FF090FD25E0900070F090FD15E0900071F090FD05E0A5
:20126300900072F090FD45E0900073F0900068E0FF900064E0FCA3E0FDA3E0FE74032CF990
:20128300E43DFA8E0389828A838BF0123C18F9900053740259F0900054ECF0EDA3F0EEA33A
:2012A300F08F82120E63AF82900069E0FE900064E0FBA3E0FCA3E0FD74032BF8E43CF98D91
:2012C30002888289838AF0123C18F8900053740158F0900054EBF0ECA3F0EDA3F08E82C0ED
:2012E30007120E63AE8290006AE0F512900064E0FAA3E0FBA3E0FC74042AF8E43BF98C0542
:20130300888289838DF0123C18900053F0900054EAF0EBA3F0ECA3F0851282C006120E63E1
:20132300AD8290006BE0F512900064E0F515A3E0F516A3E0F51774052515F8E43516FBAC1D
:201343001788828B838CF0123C18900053F0900054E515F0E516A3F0E517A3F0851282C0E2
:2013630005120E63AC82900064E0F9A3E0FAA3E0FB89828A838BF0C004120EB8E582D00482
:20138300D005D006D007700302143AC00490006CE0F515900064E0F512A3E0F513A3E0F57D
:2013A3001474062512FAE43513FBAC148A828B838CF0123C18FA90005374015AF090005408
:2013C300E512F0E513A3F0E514A3F0851582C007C006C005C004120E63E582D00490006C20
:2013E300F090006DE0F515900064E0F512A3E0F513A3E0F51474062512F8E43513FBAC1491
:2014030088828B838CF0123C18F8900053740258F0900054E512F0E513A3F0E514A3F085CF
:201423001582C004120E63E582D004D005D006D00790006DF0D004900064E0F9A3E0FAA360
:20144300E0FB89828A838BF0C007C006C005C004120EF9E582D004D005D006D007605AC0B5
:201463000490006EE0F515900064E0F512A3E0F513A3E0F51474072512FAE43513FBAC14F8
:201483008A828B838CF0123C18900053F0900054E512F0E513A3F0E514A3F0851582C007B5
:2014A300C006C005C004120E63E582D004D005D006D00790006EF0D004C00490006FE0F540
:2014C30015900064E0F512A3E0F513A3E0F51474092512FAE43513FBAC148A828B838CF0D7
:2014E300123C18FA90005374025AF0900054E512F0E513A3F0E514A3F0851582C007C0065B
:20150300C005C004120E63858215D004900070E0F512900064E0F518A3E0F519A3E0F51AE1
:2015230074092518F8E43519FBAC1A88828B838CF0123C18F8900053740158F0900054E5A8
:2015430018F0E519A3F0E51AA3F0851282C004120E63858218D004900064E0F512A3E0F5B7
:2015630013A3E0F514740C2512F8E43513F9AC14888289838CF0123C18F8900071E058F01C
:20158300900072E0FC74082512F9E43513FAAB1489828A838BF0123C18900053F090005429
:2015A300E512F0E513A3F0E514A3F08C82C004120E63858212D004900073E0F51B90006401
:2015C300E0F51CA3E0F51DA3E0F51E740A251CF8E4351DFBAC1E88828B838CF0123C1890B0
:2015E3000053F0900054E51CF0E51DA3F0E51EA3F0851B82C004120E6385821CD004D00570
:20160300D006D007900064E0FAA3E0FBA3E0FC8A828B838CF0123C18F51B7401B51B04D02A
:2016230004801AD0047402B51B0280587403B51B030216CE7405B51B03021715228F918E9B
:201643009290FE19EDF090FE11ECF090006CE090FE29F090006DE090FE21F090006EE09089
:20166300FE31F090FD31E515F090FD21E518F0900071E090FD11F090FD01E512F090FD4153
:20168300E51CF0228F958E9690FE1AEDF090FE12ECF090006CE090FE2AF090006DE090FEFC
:2016A30022F090006EE090FE32F090FD32E515F090FD22E518F0900071E090FD12F090FD45
:2016C30002E512F090FD42E51CF0228FB18EB290FE1BEDF090FE13ECF090006CE090FE2B24
:2016E300F090006DE090FE23F090006EE090FE33F090FD33E515F090FD23E518F0900071A2
:20170300E090FD13F090FD03E512F090FD43E51CF0228FC98ECA90FE1DEDF090FE15ECF045
:2017230090006CE090FE2DF090006DE090FE25F090006EE090FE35F090FD35E515F090FDD5
:2017430025E518F0900071E090FD15F090FD05E512F090FD45E51CF022E582900074F090B8
:201763000075E4F0900074E0FFBF0102800FBF02028012BF03028015BF05208018900075BA
:20178300E590F08016900075E5A0F0800E900075E5B0F08006900075E5C8F0900075E0F5B7
:2017A3008222AFF0AE83E582900076F0EEA3F0EFA3F0900076E0FDA3E0FEA3E0FF8D828ECF
:2017C300838FF0123C18F582C007C006C00512175CAC82D005D006D007740B2DF9E43EFADF
:2017E3008F0389828A838BF0123C1852040DBD00010E8D828E838FF0123C18FD8DF005F0B8
:20180300EC8002C313D5F0FBF58222AFF0AE83E58290007AF0EEA3F0EFA3F090007AE0FD0D
:20182300A3E0FEA3E0FF74022DFAE43EFB8F048A828B838CF0123C18FABA0115900079E0A6
:2018430060067B017C0080047B007C00900079EBF074012DFAE43EFB8F048A828B838CF0E6
:20186300123C18FA900079E08AF005F0800225E0D5F0FBFA740B2DF9E43EFB8F0489828B81
:20188300838CF0123C189000795AF08D828E838FF0123C18F582C007C006C00512175CAC8E
:2018A30082D005D006D007740C2DF9E43EFA8F0389828A838BF0123C18F95204900079E09C
:2018C3004CF08D828E838FF0123C18FFBF0102800FBF02028011BF03028013BF051D801553
:1C18E300900079E0F59022900079E0F5A022900079E0F5B022900079E0F5C82241
:2018FF00E58290007FF07F00BF0300400122EF75F005A4FDAEF02438F582EE343CF583E49A
:20191F0093FC90007FE0FBECB503028003021A0374F355A2FCEB2B25E0FB740C5B4CF5A2B9
:20193F009000807403F0900081E4F090008204F090007EE0900083F0900084E4F090008538
:20195F00F09000867403F09000877401F0900088E4F0900089F090008AF090008BF09000E5
:20197F008CF0ED2438FDEE343CFE8D828E83A3A3E493FCC4540F900080F053040F900081B3
:20199F00ECF090008075F000C006C00512100ED005D0068D828E83A3A3A3A3E493FCC4543A
:2019BF000F900080F053040F900081ECF090008075F000C006C00512100ED005D00690003B
:2019DF0083E4F08D828E83A3A3A393FEC4540F900080F053060F900081EEF090008075F004
:2019FF000002100E0F021907AF82AE83ADF0FC90008DEFF0EEA3F0EDA3F0ECA3F090008DE3
:201A1F00E0FCA3E0FDA3E0FEA3E0FF900107ECF0EDA3F0EEA3F0EFA3F0900EC075F0167404
:201A3F0002C007C006C005C004123051A882A983D004D005D006D007900091E8F0E9A3F0BB
:201A5F009000FEECF0EDA3F0EEA3F0EFA3F0900EC075F0167402C001C000122F11AC82AD7D
:201A7F0083AEF0FFD000D001EC4D4E4F600B900091740128F0E439A3F0900091E0FEA3E065
:201A9F00FF900094EEF0EFA3F07D00900094E0FBA3E0FC8B018C02C3740199E49A5012ECF2
:201ABF00C313CB13CBFC900094EBF0ECA3F00D80DA900093EDF08DF005F07B017C008006B7
:201ADF00EB2BFBEC33FCD5F0F7C3EB9EEC9F5006900093ED04F0900096E4F0900093E0FFD2
:201AFF0024FD500DEF24FC40089000967401F0801D900093E0FFBF02005008900096740312
:201B1F00F0800BEF24FC50069000967402F0900096E0F58222E58290009BF0900099E0FF11
:201B3F0090009AE090007EF08F821218FF900097E0FF90009BE04207900098E04F44D0F58A
:201B5F00CE43AF0222AFF0AE83E5829000A1F0EEA3F0EFA3F09000A1E0FDA3E0FEA3E0FF16
:201B7F00785FA60508A60608A60790009CE0FEA3E0FF7864A60608A60790009EE0FDA3E004
:201B9F00FEA3E0FF7866A60508A60608A6078D828E838FF0E412316D78627600087600783B
:201BBF005F860508860608860778628603088604EB2DFDEC3EFE8D828E838FF0123C18F5C7
:201BDF00CF22AFF0AE83E5829000A9F0EEA3F0EFA3F09000A9E0FDA3E0FEA3E0FF8D028E5C
:201BFF00038F049000A4E0F8A3E0F9900114E4F0900115E8F0E9A3F08A828B838CF0C007D8
:201C1F00C006C005C001C000123145D000D001D005D006D0079000A6E0FAA3E0FBA3E0FCE1
:201C3F0090009CE8F0E9A3F090009EEAF0EBA3F0ECA3F08D828E838FF0021B64C0E0C0F090
:201C5F00C082C083C007C006C005C004C003C002C000C0D075D00043CDC0785F86050886F0
:201C7F000608860778628603088604EB2DFDEC3EFE8D828E838FF0E5CF12316D786286060F
:201C9F000886070EBE00010F7862A60608A6077862860408860578648602088603C3EE9A42
:201CBF00EF9B501F785F8603088606088607EC2BFCED3EFD8F028C828D838AF0123C18F5C4
:201CDF00CF8015786686050886060886078D828E838FF0740112316DD0D0D000D002D00316
:111CFF00D004D005D006D007D083D082D0F0D0E03237
:0F3C38000054131415012223242503353433328D
:201D1000AF82AE83ADF0FC9000B3EFF0EEA3F0EDA3F0ECA3F09000B3E0FCA3E0FDA3E0A351
:201D3000E08C828D830201D690090075F03DE4121A07AF82900097E4F0900098EFF09000A7
:201D500099E4F090009AF0758220021B3490015275F00012100E90015F75F00012100E90F7
:201D70000079E4F090015275F00012180E9000797401F090015F75F00002180EE5829000A4
:201D9000B7F0E0900079F090015275F00002180EE5829000B8F0E0903C47939000B9F09055
:201DB000009C7401F0E4A3F090009E7451F07401A3F0E4A3F09000B975F000121B64900169
:201DD00051E060FA9000B9E0903C4793F58222E5829000BAF0E0900079F090015F75F00031
:201DF00002180EE5829000BBF0E0FFBF01449000E574AEF07400A3F0E4A3F09000E804F0B5
:201E10009000E9E4F075821D122CAA9000AEE09000AF4401F09000EB74AFF07400A3F0E45E
:201E3000A3F09000EE04F09000EFE4F075821D022D169000E574AEF07400A3F0E4A3F0904C
:201E500000E804F09000E9E4F075821D122CAA9000AEE09000AF54FEF09000EB74AFF074AC
:201E700000A3F0E4A3F09000EE04F09000EFE4F075821D022D16AFF0AE83E5829000BEF0B5
:201E9000EEA3F0EFA3F09000E574AEF07400A3F0E4A3F09000E804F09000E9E4F075820773
:201EB000122CAA9000AEE020E54090016DE0FFBF03389000BDE090016EF090016FE0FFBF36
:201ED00001089000B2E09000BCF09000BEE0FDA3E0FEA3E0FF9000BCE09000C1F08D828E53
:201EF000838FF0121EFE7582012275820022AFF0AE83E5829000C2F0EEA3F0EFA3F07582FC
:201F100000121D8C90016EE0FFBF01089000AD74B0F080069000AD74A0F09000ADE0F582A4
:201F3000121DA09000C2E0FDA3E0FEA3E0FF9000C1E0FCEC60378D828E838FF0123C18FBE0
:201F5000A3AD82AE839000ADEBF08B82C007C006C005C004121DA0D004D005D006D007907E
:201F700000C2EDF0EEA3F0EFA3F01C80C69000C2EDF0EEA3F0EFA3F0758201021D8C9000E8
:201F9000E574AEF07400A3F0E4A3F09000E804F09000E9E4F0758207122CAA9000AEE0FF00
:201FB00030E5219000EB74AEF07400A3F0E4A3F09000EE04F09000EFE4F0758207122D16B8
:201FD00075820122EF30E4219000EB74AEF07400A3F0E4A3F09000EE04F09000EFE4F0756E
:201FF0008207122D167582FF2275820022AFF0AE83E5829000C6F0EEA3F0EFA3F090016D44
:20201000E0FFBF040280030221309000E574AEF07400A3F0E4A3F09000E804F09000E9E468
:20203000F0758207122CAA9000AEE020E60302212C90016FE070089000B2E09000C5F07510
:202050008200121D8C9000AD7461F0758261121DA09000C6E0FDA3E0FEA3E0FF9000C5E09F
:20207000FCEC603B9000AD74FFF07582FFC007C006C005C004121DA0AB82D004D005D006A6
:20209000D0078D828E838FF0EB12316DA3AD82AE839000C6EDF0EEA3F0EFA3F01C80C290F8
:2020B00000C6EDF0EEA3F0EFA3F0758201121D8C9000E574AEF07400A3F0E4A3F09000E83A
:2020D00004F09000E9E4F0758217122CAA9000AEE030E0449000E574AEF07400A3F0E4A332
:2020F000F09000E804F09000E9E4F0758207122CAA9000AEE09000AF4440F09000EB74AFD2
:20211000F07400A3F0E4A3F09000EE04F09000EFE4F0758207122D167582012275820222F4
:2021300075820022E5829000C9F0E0FF602BBF015090016DE0FFBF031C758200121D8C904F
:2021500000AD74E1F07582E1121DA0758201121D8C758201227582002290016DE0FFBF0450
:202170001C758200121D8C9000AD74E2F07582E2121DA0758201121D8C7582012275820092
:20219000227582002290016C7401F0758200121DDF9000AF7408F09000EB74AFF07400A33D
:2021B000F0E4A3F09000EE04F09000EFE4F0758200122D169000AF743FF09000EB74AFF027
:2021D0007400A3F0E4A3F09000EE04F09000EFE4F0758201122D169000AFE4F09000EB745D
:2021F000AFF07400A3F0E4A3F09000EE04F09000EFE4F0758202122D169000AF7403F09069
:2022100000EB74AFF07400A3F0E4A3F09000EE04F09000EFE4F0758203122D169000AF746B
:2022300002F09000EB74AFF07400A3F0E4A3F09000EE04F09000EFE4F0758205122D1690EA
:2022500000AF7427F09000EB74AFF07400A3F0E4A3F09000EE04F09000EFE4F07582061254
:202270002D169000AF740EF09000EB74AFF07400A3F0E4A3F09000EE04F09000EFE4F07514
:202290008207122D16758203122B80758201122134758204122B807582001221349000E5AF
:2022B00074AEF07400A3F0E4A3F09000E804F09000E9E4F0758207122CAA9000AEE0900031
:2022D000AF4470F09000EB74AFF07400A3F0E4A3F09000EE04F09000EFE4F0758207122D8D
:2022F000169000DF7401F09000E0F0758201122A829000E27402F0758201122B0C758205B9
:202310001228BB75822E122A2C7582021228841227FF7582011227B19000D57402F0758298
:20233000101228439000CE7408F09006D61226307582021226A99000D27402F075820012B7
:2023500026E5758201021DF3E5829000CBF0121D38121D5D900096E4F5F0121D107582008E
:20237000121DDF9000E574AEF07400A3F0E4A3F09000E804F09000E9E4F0758200122CAAA2
:202390009000CCE4F09000CCE060030224DA9000E574AEF07400A3F0E4A3F09000E804F0ED
:2023B0009000E9E4F0758200122CAA9000AEE0FF7E00C007C006E4C0E0C0E07447C0E074C6
:2023D0003DC0E07480C0E01231D6E58124F9F5819000AEE0FF0F0F0F9000CDEFF09000AFA5
:2023F000EFF09000EB74AFF07400A3F0E4A3F09000EE04F09000EFE4F0758200122D169041
:2024100000AFE0FF7E00C007C006E4C0E0C0E0745AC0E0743DC0E07480C0E01231D6E5811D
:2024300024F9F5819000E574AEF07400A3F0E4A3F09000E804F09000E9E4F0758200122C06
:20245000AA9000AEE0FF7E00C007C006E4C0E0C0E07447C0E0743DC0E07480C0E01231D61D
:20247000E58124F9F5819000AEE0FF9000CDE0FEEFB5061E746DC0E0743DC0E07480C0E0CD
:202490001231D61581158115819000CC7401F0022395749DC0E0743DC0E07480C0E01231FD
:2024B000D61581158115819000AEE0FF7E00C007C00674D3C0E0743DC0E07480C0E012313D
:2024D000D6E58124FBF58102239574DEC0E0743DC0E07480C0E01231D6158115811581901F
:2024F00000CAE0FFBF0102800690016CE070031221959000CBE0FF24FC5003022596EF2F3B
:20251000902514738006802180468062758200122B809000DFE4F09000E0F0758201122A15
:2025300082758203122B808073758200122B809000DF7401F09000E0F0758200122A82754D
:202550008204122B80900064E4F5F0121D10804C758200122B809000DF7401F09000E0F078
:20257000758201122A82758201122B80802E758200122B809000DF7401F09000E0F0758253
:2025900001122A828016758200122B809000DF7401F09000E0F0758201122A827E007F003B
:2025B000C3EE9418EF64809480505F8E059000E574AEF07400A3F0E4A3F09000E804F09084
:2025D00000E9E4F08D82C007C006122CAAD006D0079000AEE0FD7C00C007C006C005C00450
:2025F000C006C00774F3C0E0743DC0E07480C0E01231D6E58124F9F5819000141201D6D0E3
:2026100006D0070EBE00990F80967405C0E0743EC0E07480C0E01231D61581158115812247
:20263000AF83E5829000CFF0EFA3F09000AFE4F09000CFE0FEA3E0FFC374FA9EE49F50228A
:202650009000AFE0FDBD0F0050189000AFED04F0EE2406FEEF34FFFF9000CFEEF0EFA3F004
:2026700080CE9000AFE0C454F0F09000CEE0FF600BBF100050069000AFE04FF09000EB74CB
:20269000AFF07400A3F0E4A3F09000EE04F09000EFE4F0758204022D16E5829000D1F0E070
:2026B000FFBF070050128FF005F07401800225E0D5F0FB149000AFF09000EB74AFF074006E
:2026D000A3F0E4A3F09000EE04F09000EFE4F0758201022D16E5829000D3F09000D2E0FFE3
:2026F000F582C0071226A99000E574AEF07400A3F0E4A3F09000E804F09000E9E4F07582F6
:202710001D122CAAD0079000D3E0FEBE01669000AEE09000AF4404F09000EB74AFF07400D0
:20273000A3F0E4A3F09000EE04F09000EFE4F075821DC007122D16D007BF070050128FF00C
:2027500005F07401800225E0D5F0FB149000AFF09000EB74AFF07400A3F0E4A3F09000EEEB
:2027700004F09000EFE4F075821C122D1690016F7401F0229000AEE09000AF54FBF09000E7
:20279000EB74AFF07400A3F0E4A3F09000EE04F09000EFE4F075821D122D1690016FE4F0AB
:2027B00022E5829000D4F0E0FF1FC2D575F005EF30E704B2D5F404A430D50AF42401C5F023
:2027D000F43400C5F02470FE740135F0FF7D009000B1E0FC9000EBEEF0EFA3F0EDA3F0905C
:2027F00000EEECF09000EFE4F0758210022D167F0A7E00BE0200503AEE75F005A42470FC83
:20281000740135F0FD7B009000B1E0FA9000EBECF0EDA3F0EBA3F09000EEEAF09000EFE46B
:20283000F08F82C007C006122D16D006D0070F0E80C122E5829000D6F07F119000D5E0FEE8
:20285000EE60289000EB74D6F07400A3F0E4A3F09000EE04F09000EFE4F08F82C007C0065C
:20287000122D16D006D0070F1E80D59000D6E09000B2F022E5829000D7F0E0FF8FF005F019
:202890007401800225E0D5F0FB149000AFF09000EB74AFF07400A3F0E4A3F09000EE04F0AB
:2028B0009000EFE4F0758202022D16E5829000D8F0E0FF24FA400EBF03004009EF24FE90C1
:2028D00000B0F080069000B07403F09000EB74B0F07400A3F0E4A3F09000EE04F09000EF1D
:2028F000E4F0758203122D169000D8E09000B1F022AF83E5829000D9F0EFA3F09000E574AD
:20291000AEF07400A3F0E4A3F09000E804F09000E9E4F0758206122CAA9000AEE053E0D7C5
:20293000F09000D9E0FEA3E0FFBEFA05BF00028024BEE805BF03028012BED025BF07229080
:2029500000AEE09000AF4408F0801E9000AEE09000AFF080149000AEE09000AF4420F080AE
:20297000089000AEE09000AFF09000EB74AFF07400A3F0E4A3F09000EE04F09000EFE4F021
:20299000758206022D16E5829000DBF09000E574AEF07400A3F0E4A3F09000E804F0900022
:2029B000E9E4F0758206122CAA9000AEE053E0F9F09000DBE0FF600FBF06028016BF0C0248
:2029D000801DBF123080249000AEE09000AF4406F0802C9000AEE09000AF4404F08020909D
:2029F00000AEE09000AF4402F080149000AEE09000AFF0800A9000AEE09000AF4404F09034
:202A100000EB74AFF07400A3F0E4A3F09000EE04F09000EFE4F0758206022D16E58290002C
:202A3000DCF0E0FF24824027BF010040229000DDEFF09000EB74DDF07400A3F0E4A3F09096
:202A500000EE04F09000EFE4F0758205022D169000DE7401F09000EB74DEF07400A3F0E475
:202A7000A3F09000EE04F09000EFE4F0758205022D16E5829000E1F09000E574AEF07400EA
:202A9000A3F0E4A3F09000E804F09000E9E4F0758200122CAA9000E1E0600C9000AEE09019
:202AB00000AF4440F080089000AFE053E0BFF09000DFE0600A9000AFE043E020F080089037
:202AD00000AFE053E0DFF09000E0E0600A9000AFE043E010F080089000AFE053E0EFF09010
:202AF00000EB74AFF07400A3F0E4A3F09000EE04F09000EFE4F0758200022D16E582900052
:202B1000E3F09000E574AEF07400A3F0E4A3F09000E804F09000E9E4F0758200122CAA90A5
:202B300000E3E0600C9000AEE09000AF4408F080089000AFE053E0F7F09000E2E0FFBF02EA
:202B50000A9000AFE043E004F080089000AFE053E0FBF09000EB74AFF07400A3F0E4A3F054
:202B70009000EE04F09000EFE4F0758200022D16E5829000E4F09000E574AEF07400A3F0EB
:202B9000E4A3F09000E804F09000E9E4F0758200122CAA9000E4E0FF24FB5003022C66EFCE
:202BB0002F2F902BB673022BC5022BE5022C05022C26022C47758200C007121DDF9000AEB9
:202BD000E09000AF54FDF0900002E4F5F0121D10D007022C83758200C007121DDF9000AE59
:202BF000E09000AF4402F0900002E4F5F0121D10D007022C83758201C007121DDF9000AE43
:202C1000E044029000AF54FEF0900002E4F5F0121D10D007805D758201C007121DDF900052
:202C3000AEE044029000AF54FEF0900002E4F5F0121D10D007803C758201C007121DDF90A5
:202C500000AEE09000AF4403F0900002E4F5F0121D10D007801D758200C007121DDF9000F6
:202C7000AEE09000AF54FDF0900002E4F5F0121D10D0079000EB74AFF07400A3F0E4A3F0B9
:202C90009000EE04F09000EFE4F0758200C007122D16D00790016DEFF022E5829000EAF0A5
:202CB000758200121D8C9000EAE0FF9000ADF08F82121DA09000ADE4F09000E5E0FDA3E006
:202CD000FEA3E0FF9000E8E0FCEC602D9000ADE0F582C007C006C005C004121DA0AB82D021
:202CF00004D005D006D0078D828E838FF0EB12316DA3AD82AE831C80D09000E9E070067551
:202D10008201021D8C22E5829000F0F0758200121D8C9000F0E04420FF9000ADF08F8212B7
:202D30001DA09000EBE0FDA3E0FEA3E0FF9000EEE0FCEC602D8D828E838FF0123C18FBA3F5
:202D5000AD82AE839000ADEBF0E0F582C007C006C005C004121DA0D004D005D006D0071C3D
:0F2D700080D09000EFE07006758201021D8C226A
:203C4700008040C020A060E0109050D030B070F0088848C828A868E8189858D838B878F8DD
:203C6700048444C424A464E4149454D434B474F40C8C4CCC2CAC6CEC1C9C5CDC3CBC7CFC3D
:203C8700028242C222A262E2129252D232B272F20A8A4ACA2AAA6AEA1A9A5ADA3ABA7AFA5D
:203CA700068646C626A666E6169656D636B676F60E8E4ECE2EAE6EEE1E9E5EDE3EBE7EFEBD
:203CC700018141C121A161E1119151D131B171F1098949C929A969E9199959D939B979F93D
:203CE700058545C525A565E5159555D535B575F50D8D4DCD2DAD6DED1D9D5DDD3DBD7DFD9D
:203D0700038343C323A363E3139353D333B373F30B8B4BCB2BAB6BEB1B9B5BDB3BBB7BFBBC
:203D2700078747C727A767E7179757D737B777F70F8F4FCF2FAF6FEF1F9F5FDF3FBF7FFF1C
:203D47000D526561642066726F6D2025643A2025640A0053656E64696E6720746F202564F5
:203D67003A2025640A000D526561642076616C7565206D61746368657320746865206E6530
:203D8700776C79207772697474656E2076616C7565203A440A000D526561642076616C754D
:203DA7006520646F65736E2774206D6174636820746865206E65776C792077726974746527
:203DC7006E2076616C7565203B280A000D526561643A2025640A000D4861726477617265F3
:203DE700204465746563746564210A000D52656769737465722025643A2025640A000A0A53
:013E070000BA
:203E340000020601000000030100000000000207010000000301000000000000050100D27B
:1D3E5400F0F0F0F0E1F0F0F0F0F0F0F0F0F0F0F0F0F0F0F0F0F0F0F0F0F0F0F0F030
:040000000200513277
:01000B0032C2
:0100130032BA
:01001B0032B2
:030023000205369D
:01002B0032A2
:01003300329A
:01003B003292
:01004300328A
:03004B00021C5B39
:0300E50002004EC8
:03004E00022D7F01
:202D7F0043BA80D2AF900002E4F074C2A3F07401A3F0E4A3F0900006F07582011200E812FE
:202D9F002E5B9000F27430F09000F2E0FFBF7302802C9000F3E4F090002E74F3F07400A3B1
:202DBF00F0E4A3F090003104F0900032E4F07582011205D99000F3E09000F2F080CA9000AB
:202DDF00347408F0743EA3F07480A3F0900037740CF0900038E4F07582011206449000CAE7
:202DFF007401F07582011223589000C57401F09000F475F000121FFDAF82BF0202802890CD
:202E1F0000F4E0FF7E00C007C0067414C0E0743EC0E07480C0E01231D6E58124FBF5819003
:1C2E3F0000F4E09000F5F09000F5E0FFBF3105122E6780B5BF30B2122E7680AD75
:203E08005374617274696E672E2E0A000D52656365697665642056616C75653A2025630AAB
:013E28000099
:202E5B0090018E75F00012100E022E769000797401F090018E75F00002180E900079E4F006
:092E7B0090018E75F00002180EA2
:0D3E71000205010000000301000000000038
:20005E00794AE94400601A7A0143E301903E3415E3900151E405E393A315E3F0A3D9F5DA65
:01007E00F38E
:202E8400AF83E5829000F9F0EFA3F09000FBE4F0A3F09000F7E0FEA3E0FF7D109000F9E0CB
:202EA400FBA3E0FC9000FD235401F0EB2BFBEC33FC9000F9EBF0ECA3F09000FBE0FBA3E0A7
:202EC400FCEB2BFBEC33FC9000FBEBF0ECA3F09000FDE060089000FBE043E001F09000FB02
:202EE400E0FBA3E0FCC3EB9EEC9F40139000FBEBC39EF0EC9FA3F09000F9E043E001F0DD0B
:0D2F04009B9000F9E0FEA3E08E82F5832291
:202F1100AF82AE83ADF0FC900102EFF0EEA3F0EDA3F0ECA3F0900106E4F0900102E0FCA336
:202F3100E0FDA3E0FEA3E0FF7B009000FEE0F52BA3E0F52CA3E0F52DA3E0F52E235401FA36
:202F51007074C003E52B252BF8E52C33F9E52D33FAE52E33FB9000FEE8F0E9A3F0EAA3F045
:202F7100EBA3F09000FEE0F52BA3E0F52CA3E0F52DA3E0F52EC3EC952BED952CEE952DEF89
:202F9100952ED0035027E52EC313F52EE52D13F52DE52C13F52CE52B13F52B9000FEF0E5D5
:202FB1002CA3F0E52DA3F0E52EA3F080090B900106EBF0022F3B900106E0FF900102E0FBA0
:202FD100A3E0FCA3E0FDA3E0FE9000FEE0F52BA3E0F52CA3E0F52DA3E0F52EC3EB952BEC89
:202FF100952CED952DEE952E4017900102EBC3952BF0EC952CA3F0ED952DA3F0EE952EA381
:20301100F09000FEE0FBA3E0FCA3E0FDA3E0C313FEED13FDEC13FCEB139000FEF0ECA3F0FD
:20303100EDA3F0EEA3F08F061FEE708F900102E0FCA3E0FDA3E0FEA3E08C828D838EF0222C
:20305100AF82AE83ADF0FC90010BEFF0EEA3F0EDA3F0ECA3F090010FE4F0A3F0A3F0A3F03C
:20307100900107E0FCA3E0FDA3E0FEA3E0FF7B20C00390010BE0F8A3E0F9A3E0FAA3E0FBFF
:20309100900113235401F0E828F8E933F9EA33FAEB33FB90010BE8F0E9A3F0EAA3F0EBA3CB
:2030B100F090010FE0F8A3E0F9A3E0FAA3E0FBE828F8E933F9EA33FAEB33FB90010FE8F05B
:2030D100E9A3F0EAA3F0EBA3F0D003900113E0600890010FE043E001F090010FE0F52BA3D2
:2030F100E0F52CA3E0F52DA3E0F52EC3E52B9CE52C9DE52D9EE52E9F401F90010FE52BC322
:203111009CF0E52C9DA3F0E52D9EA3F0E52E9FA3F090010BE043E001F01BEB60030230819D
:1431310090010BE0FCA3E0FDA3E0FEA3E08C828D838EF022D0
:06007F00E478FFF6D8FD55
:20314500AC82AD83900115E0FEA3E0FFBE000360121F0F900114E08C828D8312316DA3DED1
:08316500FADFF88C828D832251
:1B316D0020F71130F6138883A88220F509F6A8837583002280FEF280F5F02261
:200085007800E84400600A790075A000E4F309D8FC7851E84401600C7902900000E4F0A327
:0400A500D8FCD9FAB0
:20318800C01F85811F7E008E8312012AD01F22AFF0AE83E582900119F0EEA3F0EFA3F090E2
:2031A8000119E0FDA3E0FEA3E0FF900118E0FC90012DE4F0A3F0A3F0900130EDF0EEA3F0B1
:2031C800EFA3F0900133ECF09031880232DFC01FE581F51F24FBFF90012DE4F0A3F0A3F03A
:2031E800E51F24FBF8900130E6F008E6A3F008E6A3F0900133EFF09031881232DFD01F22F3
:20320800E582900129F0E0FF90011FE0C0E0A3E0C0E0A3E0C0E0123223800D90011DE0C0FE
:20322800E0A3E0C0E08F8222158115811581900127E02401F0A3E03400F022E58290012AF6
:20324800F0E02430FF24C6500D74072FFF90011CE060034307208F82023208E58290012B89
:20326800F0E0FFC4540FF582C007123243D00753070F8F82023243E58290012CF0900122FC
:20328800E0FCA3E0FDA3E0FEA3E0FF900126E0FB752B2090012CE0F98B00E828F8EF2354E6
:2032A8000148FBEC2CFCED33FDEE33FEEF33FFC3EB994007EBC399FB430401E52B14FA8A91
:2032C8002B70D5900122ECF0EDA3F0EEA3F0EFA3F0900126EBF022AF83E582900134F0EF73
:2032E800A3F0900134E0FEA3E0FF90011DEEF0EFA3F090012DE0FDA3E0FEA3E0FF90011FB2
:20330800EDF0EEA3F0EFA3F0900127E4F0A3F0900130E0FDA3E0FEA3E0FF8D828E838FF066
:20332800123C18FC90013074012DF0E43EA3F0EFA3F0EC7003023BD4BC25028003023BCCBA
:20334800900136E4F0900137F0900138F0900139F090013AF090013BF090013CF090013D9D
:20336800F090013FF0900140F0A3F090014214F0A3F0900130E0FDA3E0FEA3E0FF8D828E99
:20338800838FF0123C18FBA3AD82AE83900130EDF0EEA3F0EFA3F0900146EBF0BB25088BF9
:2033A80082123208023317BB30005003023478EB24C65003023478900142E0F521A3E0F5E8
:2033C8002274FFB52163B52260C005C006C007900140E0FAA3E0FF90014FEAF0EFA3F09095
:2033E800000AC005C003123BF8AE82AF83D003D0058B027D00EA2EFEED3FFFEE24D0FEEFCA
:2034080034FFFF900140EEF0EFA3F0D007D006D005900140E0F5F0A3E045F0600302338554
:203428009001377401F0023385C005C006C00790014FE521F0E522A3F090000AC006C005B6
:20344800C003123BF8AA82AF83D003D005D0067E00EB2AFAEE3FFFEA24D0FAEF34FFFF903E
:203468000142EAF0EFA3F0D007D006D005023385900146E0FBBB2E2FC005C006C0079001BC
:2034880042E0FAA3E0FFBAFF05BFFF028009D007D006D005023385D007D006D005900142EE
:2034A800E4F0A3F0023385BB61004014EB2485400F90014674DF5BF090011C7401F0800584
:2034C80090011CE4F0900146E0FBBB20028075BB2B028067BB2D028059BB4202806FBB4361
:2034E80002807CBB440302376FBB4603023795BB4803023385BB490302376FBB4A0302339E
:2035080085BB4C028050BB4F0302377DBB50030236DDBB53028077BB5403023385BB550379
:20352800023785BB580302378DBB5A0302338502379D9001367401F002338590013874011D
:20354800F00233859001397401F002338590013B7401F002338590013C7401F00233859069
:20356800013BE0600E900133E014F9F0900146E7F0800F900133E024FEFFF08F01900146BF
:20358800E7F0900146E0F5821232080237AC900133E024FDFFF08F018705098706098707F0
:2035A8001919900122EDF0EEA3F0EFA3F08D828E838FF0123BE0858221858322900142E06D
:2035C800FAA3E0FDBAFF0DBDFF0A900142E521F0E522A3F0900136E0704B900140E0FAA3CA
:2035E800E0FDC3E5219AE5229D503A900140EAC39521F0ED9522A3F0900140E0FAA3E0FDCF
:203608008A068D071ABAFF011DEE4F6010758220C005C002123208D002D00580E39001401B
:20362800EAF0EDA3F0900142E0F524A3E0F525900122E0FAA3E0FDA3E0FF8A828D838FF095
:20364800123C18F523603CC3E4952474808525F063F08095F0502C152474FFB524021525C5
:20366800852382123208900122E0FAA3E0FDA3E0FF0ABA00010D900122EAF0EDA3F0EFA3CC
:20368800F080AC900136E070030237AC900140E0FEA3E0FFC3E5219EE5229F40030237ACA1
:2036A800900140EEC39521F0EF9522A3F0900140E0FEA3E0FF8E028F051EBEFF011FEA4D1A
:2036C80070030237A4758220C007C006123208D006D00780E0900133E024FDFDF08D0187CE
:2036E800260987270987281919900122E526F0E527A3F0E528A3F0900124E0FDBD800040FF
:20370800089001467443F08020BD600040089001467450F08013BD4000400890014674491F
:20372800F080069001467458F0900146E0FDF582C00512320875823A123208758230123254
:2037480008758278123208D005BD4902800EBD50028009900123E0F582123263900122E056
:20376800F582123263803D90013A7401F090013F740AF0802F90013F7408F0802790013F96
:20378800740AF0801F90013F7410F0801790013D7401F0800F8B821232088008900140EED7
:2037A800F0EFA3F090013DE06071900133E024FCFFF08F0187030987050987060987071968
:2037C8001919900122EBF0EDA3F0EEA3F0EFA3F09001227429F0743EA3F07480A3F0900101
:2037E80022E0F526A3E0F527A3E0F52874012526FAE43527FBAF28900122EAF0EBA3F0EF9F
:20380800A3F08526828527838528F0123C18FF70030233178F8212320880C390013FE07030
:203828000302331790013BE06047900133E014F9F087077E007D007B00900122EFF0EEA316
:20384800F0EDA3F0EBA3F090013AE060030238EF900122E0FBA3E0A3E0A3E07D007E007FAA
:2038680000900122EBF0EDA3F0EEA3F0EFA3F0807690013CE06028900133E024FCFFF08FC2
:20388800018703098705098706098707191919900122EBF0EDA3F0EEA3F0EFA3F08048901F
:2038A8000133E024FEFFF08F01870609870719EF3395E0FDFB900122EEF0EFA3F0EDA3F0EC
:2038C800EBA3F090013AE0701E900122E0FBA3E0FDA3E0A3E07E007F00900122EBF0EDA3FA
:2038E800F0EEA3F0EFA3F090013AE06041900122E0FBA3E0FDA3E0FEA3E0FF30E72B90019D
:2039080022E0FBA3E0FDA3E0FEA3E0FFC3E49BFBE49DFDE49EFEE49FFF900122EBF0EDA344
:20392800F0EEA3F0EFA3F0800590013AE4F090013E7401F090013FE0F52475294C752A01E1
:20394800E4F521F522900126E4F085248212327F90013EE07026900126E0C4F526852982EA
:20396800852A83E0FFE5264207852982852A83EFF0152974FFB52902152A800C900126E0A6
:20398800FF852982852A83F00521E4B52102052290013EE0B40100E433F0900122E0FAA32A
:2039A800E0FBA3E0FEA3E0FFEA4B4E4F709790014DE529F0E52AA3F0900144E521F0E522F8
:2039C800A3F0900140E0F5F0A3E045F070099001407401F0E4A3F0900137E0FFE07047900A
:2039E8000136E0704185212985222A900140E0FAA3E0FBC007AF290F8F067F00C3EE9AEF32
:203A08009BD0075019758220C007C003C002123208D002D003D0071ABAFF011B80D59001C3
:203A280040EAF0EBA3F090013AE0602075822DC007123208D007900140E024FFFDA3E03425
:203A4800FFFE900140EDF0EEA3F08056900144E0F5F0A3E045F0604A900138E06020758240
:203A68002BC007123208D007900140E024FFFDA3E034FFFE900140EDF0EEA3F08024900140
:203A880039E0601E758220C007123208D007900140E024FFFDA3E034FFFE900140EDF0EE65
:203AA800A3F0900136E07048900144E0F529A3E0F52A900140E0FAA3E0FBC0078A068B0785
:203AC8001ABAFF011BC3E5299EE52A9FD0075053EF60067D307E0080047D207E008D82C06A
:203AE80007C003C002123208D002D003D00780CA900140E0FEA3E0FF900144E0F529A3E099
:203B0800F52AC3E5299EE52A9F500F900140EEC39529F0EF952AA3F08011900140E4F0A3B8
:203B2800F08008900140EAF0EBA3F090014DE0FEA3E0FF900144E0F529A3E0F52AAA29ADA9
:203B48002A152974FFB52902152AEA4D604590013EE0B40100E433F090013EE070140EBE1D
:203B680000010F8E828F83E0C4540FFD900126F0800E8E828F83E0FD53050F900126EDF0D8
:203B8800900126E0F582C007C006123243D006D00780AA900136E07003023317900140E00D
:203BA800FEA3E0FF8E038F051EBEFF011FEB4D7003023317758220C007C006123208D006A0
:183BC800D00780E08C82123208023317900127E0FEA3E08E82F5832245
:0B3E29003C4E4F20464C4F41543E00E1
:183BE000AA82AB83123C186003A380F8C3E5829AF582E5839BF58322B7
:203BF800AA83AB828BF090014FE0A4F8A9F08AF0E0A429F98BF0A3E0A429F5838882222232
:0D005100758168123C34E582600302004EA8
:1C3C180020F71430F6148883A88220F507E6A88375830022E280F7E49322E022BB
:043C34007582002273
:00000001FF
