:200081007835761078367600783776007838760078397600783A7625087600087640784D48
:1C00A1007610784E7600784F760078507600785176007852763D0876000876400E
:2000C000E582900001F0900002E4F0A3F0A3F0900001E0FFBF010D9000027435F0E4A3F0CD
:2000E0007440A3F0900002E0FDA3E0FEA3E0FF8D828E838FF022E582900005F0900006E420
:20010000F0A3F0A3F0900005E0FFBF010D900006744DF0E4A3F07440A3F0900006E0FDA36D
:20012000E0FEA3E0FF8D828E838FF022E582900009F0E0F5821200F6AD82AE83AFF07404D8
:200140002DFDE43EFE8D828E838FF0121C2AB40100E433F58222E58290000BF0C2AF900006
:200160000BE0F5821200F6120AC9AF8290000AE0FEC3EF9EE43390000CB40100E433F0D2F6
:20018000AF90000CE0F58222E58290000DF0C2AF90000DE0F5821200C0AD82AE83AFF00D64
:2001A000BD00010E8D828E838FF0121C2AFDD2AF8D8222E58290000EF0C2AF90000EE0F5F4
:2001C000821200C0120A20D2AF22E582900016F0900017E4F09000187402F0900016E0FFE1
:2001E000BF0109900014E0600302026E900013E0FEBE0105900018EFF0900018E0FF9000FA
:200200000FE0FBA3E0FCA3E0FDA3E0FE900090EBF0ECA3F0EDA3F0EEA3F0900EC075F01620
:200220007402C007121B1BAB82AC83ADF0FED007EEC313FEED13FDEC13FCEB13FBEEC313F4
:20024000FEED13FDEC13FCEB13900029F0ECA3F0EDA3F0EEA3F090002DE4F090002EF090B2
:20026000002FF08F82120579E582900017F0900017E060030203A9900019E4F0900014E027
:20028000FF24FC404CEF2F90028B738006801480128010900016E0FEBE0136900019740132
:2002A000F0802E900016E0FEBE012090000FE0FBA3E0A3E0FDA3E0FE530302E4C313CB134F
:2002C000CBFC90001974024BF080069000197401F0BF03067E207F0080047E007F00900073
:2002E00019E030E1067C807D0080047C007D00EC4E4410FF900016E0FEBE0102800302039E
:2003000089900019E0FEBE0102800ABE02028017BE034A802E900018E0FEBE0205438E0153
:20032000803B538EFE803690000FE0FBA3E0FCA3E0FDA3E0FEEB30E005438780801F5387B0
:200340007F801A90000FE0FBA3E0FCA3E0FDA3E0FEEB30E005438E208003538EDF743F554E
:20036000A2FE900015E0030354C0FD74C05D4EF5A2900019E030E0067D407E0080047D00F0
:200380007E00ED4FF59843A810900016E0F5821200F6AD82AE83AFF074042DFDE43EFE8DC8
:2003A000828E838FF0E4121C0F900017E0F58222C020C0E0C0F0C082C083C007C006C005E3
:2003C000C004C003C002C001C000C0D075D000C2AFE59830E1325398FD7401C0E0741AC002
:2003E000E07400C0E0E4C0E090004D75F040120C65AF82E58124FCF581EF600890001AE072
:20040000F599800478517600E59830E0275398FE90001AE599F07401C0E0741AC0E074001F
:20042000C0E0E4C0E090003575F040120B03E58124FCF581D2AFD0D0D000D001D002D003AB
:20044000D004D005D006D007D083D082D0F0D0E0D02032E582900020F0E0F5821200C0AD32
:2004600082AE83AFF090001BE0F509A3E0F50AA3E0F50B90001FE0F9B90103E98001E4F514
:2004800008C2AFA809A90AAC0BC007C006C00590001EE0C0E0C000C001C0048D828E838F54
:2004A000F0120C65AC82E58124FCF581D005D006D007D2AFE5086003EC60C68C8222E582A3
:2004C000900026F0E0F5821200F6AD82AE83AFF0900021E0F50DA3E0F50EA3E0F50F9000E8
:2004E00025E0F9B90103E98001E4F50CC2AFA80DA90EAC0FC007C006C005900024E0C0E0D4
:20050000C000C001C0048D828E838FF0120B03AC82E58124FCF581D005D006D007D2AFE5C5
:200520000C6003EC60C6EC604D74042DF9E43EFA8F0389828A838BF0121C2A703989828A2C
:20054000838BF07401121C0FC004C0E07427C0E07400C0E0E4C0E08D828E838FF0120C6592
:19056000E58124FCF581D004900026E0FFBF0106900027E0F5998C822202
:20057900E582900030F0900031E4F090003204F0900029E0FCA3E0FDA3E0FEA3E0FFEC4DAF
:200599004E4F70099000317401F0020772900033E4F0A3F0900030E0FB6003BB0158C3E4A8
:2005B9009CE49D74019EE49F4003020733C3E49CE49D740C9EE49F4034900032E4F09000F1
:2005D90090740CF0E4A3F0A3F0A3F08C828D838EF0EF121B1BA882A983AAF0FB900029E806
:2005F900F0E9A3F0EAA3F0EBA3F00207339000317402F0020733C3E49CE49D74019EE49F82
:2006190040030207338E008F01900033E8F0E9A3F0C3E498740199505D900032E4F09000ED
:2006390080740CF0E4A3F088828983C007C006C005C00412194EAA82AB83D004D005D006BC
:20065900D007900033EAF0EBA3F0900090740CF0E4A3F0A3F0A3F08C828D838EF0EF121BAA
:200679001BAC82AD83AEF0FF900029ECF0EDA3F0EEA3F0EFA3F0900033E0F510A3E0F51102
:20069900900029E0FAA3E0FBA3E0FCA3E0FD900087E510F0E511A3F0E4A3F0A3F08A828B0B
:2006B900838CF0EDC005C004C003C0021219DBA882A983AEF0FFD002D003D004D005E849AF
:2006D9004E4F600D90003374012510F0E43511A3F0900033E0FEA3E0FF900090EEF0EFA32A
:2006F900F0E4A3F0A3F08A828B838CF0EDC007C006121B1BAA82AB83ACF0FDD006D007905F
:200719000029EAF0EBA3F0ECA3F0EDA3F01EBEFF011F900033EEF0EFA3F0900030E0FFBFC4
:200739000202800ABF03028014BF042D801E900033E0FEA3E0FF90FEA2EEF0801C9000339C
:20075900E0FEA3E0FF90FEA3EEF0800D900033E0FEA3E0FF90FEA4EEF0900031E06003024B
:20077900092B900029E0FCA3E0FDA3E0A3E0C3E49CFEE49DFF900030E0FD24FB5003020936
:200799002BED2D2D9007A1730207B002080402085D0208A30208E8747F558EFD900032E0E1
:2007B900035480FC74805C4DF58E5389F074F75589FD90002FE0C40354F8FC74085C4DF553
:2007D9008990002DE0FDBD0105438F018003538FFE8E8A8F8C90002EE0FDBD010543A80266
:2007F900800353A8FD43881002092B53890F90002DE0FDBD0105438F028003538FFD8E8BBD
:200819008F8D747F5589FD90002FE0035480FC74805C4DF589900032E06009AC8E7D004343
:200839000440800874BF558EFBFC7D008C8E90002EE0FDBD010543A808800353A8F743889E
:200859004002092B538EF790002DE0FDBD0105438F048003538FFB8ED78FD6900032E060D2
:2008790009AC8E7D00430404800874FB558EFBFC7D008C8E90002EE0FDBD010543AF048018
:200899000353AFFB438E1002092B53D1FB90002DE0FDBD010543D101800353D1FE90003230
:2008B900E06009ACD17D00430402800874FD55D1FBFC7D008CD18ED58FD490002EE0FDBD85
:2008D900010543AF20800353AFDF43D108804353D1BF90002DE0FDBD010543D1108003536A
:2008F900D1EF900032E06009ACD17D00430420800874DF55D1FBFC7D008CD18ED38FD2908F
:19091900002EE0FFBF010543AF40800353AFBF43D180900031E0F58222AF
:20093200E58290003CF0E0FF900036F0900037E0FBA3E0FCA3E0FDA3E0FE90003BE0FA9096
:20095200000FEBF0ECA3F0EDA3F0EEA3F09000137401F0900014E4F0900015EAF08F820209
:2009720001CAAF83E58290003DF0EFA3F090003DE0FEA3E0FFBE0A29BF0026900036E0FF1A
:2009920090003F740DF0900021743FF07400A3F0E4A3F090002404F0900025F08F821204BF
:2009B200BE90003DE0FEA3E0FF8E05900036E0FC900040EDF09000217440F07400A3F0E418
:2009D200A3F090002404F0900025F08C82C007C0061204BED006D0078E828F8322900036FF
:2009F200E0FF900041E4F090001B7441F07400A3F0E4A3F090001E04F090001FF08F82122F
:0E0A12000453900041E0FF7E008F828E83220D
:200A2000AFF0AE83E582900043F0EEA3F0EFA3F0900043E0FDA3E0FEA3E0FF74012DFAE486
:200A40003EFB8F048A828B838CF0E4121C0F74022DFAE43EFB8F048A828B838CF0E4121C1E
:200A60000F74032DFAE43EFB8F048A828B838CF0E4121C0F74042DFDE43EFE8D828E838FF1
:200A8000F0E4021C0FAFF0AE83E582900046F0EEA3F0EFA3F0900046E0FDA3E0FEA3E0FF9F
:200AA00074012DFAE43EFB8F048A828B838CF0121C2AFA8D828E838FF0121C2AFDEAB5056A
:200AC0000474018001E4F58222AFF0AE83E582900049F0EEA3F0EFA3F0900049E0FDA3E063
:200AE000FEA3E0FF8D828E838FF0121C2AFC0DBD00010E8D828E838FF0121C2AFDECC39D6A
:200B0000F58222C01F85811FC082C083C0F0E5812408F581A81F0886820886830886F01283
:200B20000AC9AC82E51F24FAF8C3EC96B39200E433FC200003020C5DA81F08E51F2404F97B
:200B4000740326F7E4083609F70809E6F7E51F2404F886820886830886F0E51F240AF912F9
:200B60001C2AF7A81F08E51F2407F9740526F7E4083609F70809E6F7E51F240BF87600E515
:200B80001F240BF8E51F24FAF9C3E6974003020C1EC004A81F0886820886830886F0121CED
:200BA0002AFCE51F240AF8E6B504028004D0048009D004E51F240AF87600C004E51F2407FC
:200BC000F886820886830886F0121C2AFAA3121C2AFBA3121C2AFCE51F240AF8E62AFAE42F
:200BE0003BFBE51F24FBF88605088606088607E51F240BF8E62DFDE43EFE8D828E838FF0F6
:200C0000121C2AFD8A828B838CF0121C0FE51F240AF806E51F240BF806D004020B7FE51FE7
:200C20002404F886820886830886F0E51F240AF9E7121C0FA81F08740126FDE40836FE081F
:200C400086078D828E838FF0121C2AFBE51F24FAF8E62BFB8D828E838FF0121C0F8C828580
:200C60001F81D01F22C01F85811FC082C083C0F0E5812409F581A81F08740126FAE40836FB
:200C8000FB0886048A828B838CF0121C2AFFE51F24FAF8C3EF96B39200E51F2404F8A2006D
:200CA000E433F6200003020DBEA81F08E51F2405F9740226F7E4083609F70809E6F7E51F9B
:200CC0002405F886820886830886F0E51F240BF9121C2AF7A81F08E51F2408F9740526F753
:200CE000E4083609F70809E6F7E51F240CF87600E51F240CF8E51F24FAF9C3E69740030276
:200D00000D8CA81F0886820886830886F0121C2AFDE51F240BF8E6B50507E51F240BF8760C
:200D200000C002C003C004E51F24FBF88603088604088605E51F240CF8E62BFBE43CFCE568
:200D40001F2408F886820886830886F0121C2AFAA3121C2AFEA3121C2AFFE51F240BF8E663
:200D60002AFAE43EFE8A828E838FF0121C2A8B828C838DF0121C0FE51F240BF806E51F240C
:200D80000CF806D004D003D002020CF0E51F2405F886820886830886F0E51F240BF9E712F1
:200DA0001C0F8A828B838CF0121C2AFFE51F24FAF8EFC396FF8A828B838CF0121C0FE51FE3
:0B0DC0002404F88682851F81D01F22CA
:200DCB00E582900051F090004DE0602490004EE0FDA3E0FEA3E0FF740B2DFDE43EFE8D82F9
:200DEB008E838FF0121C2AFD900051E04DFF802290004EE0FCA3E0FDA3E0FE740C2CFCE40D
:200E0B003DFD8C828D838EF0121C2AFC900051E05CFF8F8222AFF0AE83E582900052F0EE57
:200E2B00A3F0EFA3F0900052E0FDA3E0FEA3E0FF74032DFDE43EFE8D828E838FF0121C2A18
:200E4B00FF600EBF01028009BF030280047F0080027F018F8222AFF0AE83E582900055F0C7
:200E6B00EEA3F0EFA3F0900055E0FDA3E0FEA3E0FF74032DFDE43EFE8D828E838FF0121C11
:200E8B002AFF6009BF020280047F0080027F018F8222AFF0AE83E58290005BF0EEA3F0EF38
:200EAB00A3F090005BE0FDA3E0FEA3E0FF900058E08D828E838FF0121C0F74012DFAE43E67
:200ECB00FB8F04900059E08A828B838CF0121C0F74032DFAE43EFB8F0490005AE08A828B2E
:200EEB00838CF0121C0F74042DFAE43EFB8F048A828B838CF0E4121C0F74052DFAE43EFBE8
:200F0B008F048A828B838CF0E4121C0F74062DFAE43EFB8F048A828B838CF07403121C0FE1
:200F2B0074072DFAE43EFB8F048A828B838CF07401121C0F74082DFAE43EFB8F048A828B22
:200F4B00838CF0E4121C0F74092DFAE43EFB8F048A828B838CF0E4121C0F740A2DFDE43E91
:200F6B00FE8D828E838FF0E4021C0FAFF0AE83E58290005EF0EEA3F0EFA3F0900061E4F0DB
:200F8B0090005EE0FDA3E0FEA3E0FF74022DFAE43EFB8F048A828B838CF0121C2AFCEC60F5
:200FAB0010900061E025E0FBF0E043E001F01C80ED740B2DF512E43EF5138F1474012DF8BE
:200FCB00E43EF98F04888289838CF0121C2AF8900061E088F005F0800225E0D5F0FBF88574
:200FEB0012828513838514F0121C0F740C2DFAE43EFB8F04E8F4F88A828B838CF0121C0F73
:20100B00900062E4F0900063F0900064F0900065F0900066F0900067F0900068F0900069A5
:20102B00F090006AF090006BF090006CF090006DF08D828E838FF0121C2AFFBF01028014BB
:20104B00BF0202806EBF030302111DBF050302117B0211D7900062E591F0900063E592F0EE
:20106B0090FE19E0900064F090FE11E0900065F090FE29E0900066F090FE21E0900067F0A3
:20108B0090FE31E0900068F090FD31E0900069F090FD21E090006AF090FD11E090006BF056
:2010AB0090FD01E090006CF090FD41E090006DF00211D7900062E595F0900063E596F090FC
:2010CB00FE1AE0900064F090FE12E0900065F090FE2AE0900066F090FE22E0900067F0903F
:2010EB00FE32E0900068F090FD32E0900069F090FD22E090006AF090FD12E090006BF090F2
:20110B00FD02E090006CF090FD42E090006DF00211D7900062E5B1F0900063E5B2F090FEF3
:20112B001BE0900064F090FE13E0900065F090FE2BE0900066F090FE23E0900067F090FEDA
:20114B0033E0900068F090FD33E0900069F090FD23E090006AF090FD13E090006BF090FD8E
:20116B0003E090006CF090FD43E090006DF0805C900062E5C9F0900063E5CAF090FE1DE06F
:20118B00900064F090FE15E0900065F090FE2DE0900066F090FE25E0900067F090FE35E05A
:2011AB00900068F090FD35E0900069F090FD25E090006AF090FD15E090006BF090FD05E056
:2011CB0090006CF090FD45E090006DF0900062E0FF90005EE0FCA3E0FDA3E0FE74032CF941
:2011EB00E43DFA8E0389828A838BF0121C2AF990004D740259F090004EECF0EDA3F0EEA3ED
:20120B00F08F82120DCBAF82900063E0FE90005EE0FBA3E0FCA3E0FD74032BF8E43CF98DCE
:20122B0002888289838AF0121C2AF890004D740158F090004EEBF0ECA3F0EDA3F08E82C09F
:20124B0007120DCBAE82900064E0F51290005EE0FAA3E0FBA3E0FC74042AF8E43BF98C057F
:20126B00888289838DF0121C2A90004DF090004EEAF0EBA3F0ECA3F0851282C006120DCB2D
:20128B00AD82900065E0F51290005EE0F515A3E0F516A3E0F51774052515F8E43516FBACC2
:2012AB001788828B838CF0121C2A90004DF090004EE515F0E516A3F0E517A3F0851282C095
:2012CB0005120DCBAC8290005EE0F9A3E0FAA3E0FB89828A838BF0C004120E20E582D00452
:2012EB00D005D006D00770030213A2C004900066E0F51590005EE0F512A3E0F513A3E0F5BB
:20130B001474062512FAE43513FBAC148A828B838CF0121C2AFA90004D74015AF090004EBA
:20132B00E512F0E513A3F0E514A3F0851582C007C006C005C004120DCBE582D00490006657
:20134B00F0900067E0F51590005EE0F512A3E0F513A3E0F51474062512F8E43513FBAC1435
:20136B0088828B838CF0121C2AF890004D740258F090004EE512F0E513A3F0E514A3F08582
:20138B001582C004120DCBE582D004D005D006D007900067F0D00490005EE0F9A3E0FAA39E
:2013AB00E0FB89828A838BF0C007C006C005C004120E61E582D004D005D006D007605AC0E6
:2013CB0004900068E0F51590005EE0F512A3E0F513A3E0F51474072512FAE43513FBAC149D
:2013EB008A828B838CF0121C2A90004DF090004EE512F0E513A3F0E514A3F0851582C00768
:20140B00C006C005C004120DCBE582D004D005D006D007900068F0D004C004900069E0F57D
:20142B001590005EE0F512A3E0F513A3E0F51474092512FAE43513FBAC148A828B838CF075
:20144B00121C2AFA90004D74025AF090004EE512F0E513A3F0E514A3F0851582C007C0060D
:20146B00C005C004120DCB858215D00490006AE0F51290005EE0F518A3E0F519A3E0F51A1F
:20148B0074092518F8E43519FBAC1A88828B838CF0121C2AF890004D740158F090004EE55B
:2014AB0018F0E519A3F0E51AA3F0851282C004120DCB858218D00490005EE0F512A3E0F5EF
:2014CB0013A3E0F514740C2512F8E43513F9AC14888289838CF0121C2AF890006BE058F0C9
:2014EB0090006CE0FC74082512F9E43513FAAB1489828A838BF0121C2A90004DF090004EE2
:20150B00E512F0E513A3F0E514A3F08C82C004120DCB858212D00490006DE0F51B90005E3E
:20152B00E0F51CA3E0F51DA3E0F51E740A251CF8E4351DFBAC1E88828B838CF0121C2A9056
:20154B00004DF090004EE51CF0E51DA3F0E51EA3F0851B82C004120DCB85821CD004D005AD
:20156B00D006D00790005EE0FAA3E0FBA3E0FC8A828B838CF0121C2AF51B7401B51B04D0D7
:20158B0004801AD0047402B51B0280587403B51B030216367405B51B0302167D228F918E65
:2015AB009290FE19EDF090FE11ECF0900066E090FE29F0900067E090FE21F0900068E09034
:2015CB00FE31F090FD31E515F090FD21E518F090006BE090FD11F090FD01E512F090FD41F2
:2015EB00E51CF0228F958E9690FE1AEDF090FE12ECF0900066E090FE2AF0900067E090FEA1
:20160B0022F0900068E090FE32F090FD32E515F090FD22E518F090006BE090FD12F090FDE9
:20162B0002E512F090FD42E51CF0228FB18EB290FE1BEDF090FE13ECF0900066E090FE2BC2
:20164B00F0900067E090FE23F0900068E090FE33F090FD33E515F090FD23E518F090006B4C
:20166B00E090FD13F090FD03E512F090FD43E51CF0228FC98ECA90FE1DEDF090FE15ECF0DE
:20168B00900066E090FE2DF0900067E090FE25F0900068E090FE35F090FD35E515F090FD80
:2016AB0025E518F090006BE090FD15F090FD05E512F090FD45E51CF022E58290006EF0905D
:2016CB00006FE4F090006EE0FFBF0102800FBF02028012BF03028015BF0520801890006F65
:2016EB00E590F0801690006FE5A0F0800E90006FE5B0F0800690006FE5C8F090006FE0F568
:20170B008222AFF0AE83E582900070F0EEA3F0EFA3F0900070E0FDA3E0FEA3E0FF8D828E73
:20172B00838FF0121C2AF582C007C006C0051216C4AC82D005D006D007740B2DF9E43EFA1E
:20174B008F0389828A838BF0121C2A52040DBD00010E8D828E838FF0121C2AFD8DF005F06C
:20176B00EC8002C313D5F0FBF58222AFF0AE83E582900074F0EEA3F0EFA3F0900074E0FDB2
:20178B00A3E0FEA3E0FF74022DFAE43EFB8F048A828B838CF0121C2AFABA0115900073E053
:2017AB0060067B017C0080047B007C00900073EBF074012DFAE43EFB8F048A828B838CF085
:2017CB00121C2AFA900073E08AF005F0800225E0D5F0FBFA740B2DF9E43EFB8F0489828B2E
:2017EB00838CF0121C2A9000735AF08D828E838FF0121C2AF582C007C006C0051216C4ACE2
:20180B0082D005D006D007740C2DF9E43EFA8F0389828A838BF0121C2AF95204900073E048
:20182B004CF08D828E838FF0121C2AFFBF0102800FBF02028011BF03028013BF051D8015F9
:1C184B00900073E0F59022900073E0F5A022900073E0F5B022900073E0F5C822F1
:20186700AF83E582900078F0EFA3F0900078E0FEA3E0FFEE4F60197C827D0AEC4D600A0008
:2018870000001CBCFF011D80F21EBEFF011F80E322E58290007AF0E0FFEF600B7E37EE60BD
:2018A700031E80FA1F80F222AF83E58290007BF0EFA3F090007BE0FEA3E0FFEE4F60107D28
:1018C70005ED60031D80FA001EBEFF011F80EC229C
:04000000020029329F
:01000B0032C2
:0100130032BA
:01001B0032B2
:030023000203B025
:0300BD0002002618
:030026000218D7E6
:2018D70043BA80D2AF900037E4F074C2A3F07401A3F0E4A3F090003BF075820112093212FE
:2018F7001924900073E4F090000075F00012177690001E1218679000737401F0900000757D
:0D191700F00012177690001E12186780D5A0
:201924009000587402F09000597405F090005AE4F090000075F000120E9D90000075F0009E
:0A194400120F769000007401F022EB
:200036007900E94400601A7A0043E301901C4A15E390009EE405E393A315E3F0A3D9F5DA98
:01005600F3B6
:20194E00AF83E582900082F0EFA3F0900084E4F0A3F0900080E0FEA3E0FF7D10900082E0F2
:20196E00FBA3E0FC900086235401F0EB2BFBEC33FC900082EBF0ECA3F0900084E0FBA3E057
:20198E00FCEB2BFBEC33FC900084EBF0ECA3F0900086E06008900084E043E001F090008429
:2019AE00E0FBA3E0FCC3EB9EEC9F4013900084EBC39EF0EC9FA3F0900082E043E001F0DD44
:0D19CE009B900082E0FEA3E08E82F5832254
:2019DB00AF82AE83ADF0FC90008BEFF0EEA3F0EDA3F0ECA3F090008FE4F090008BE0FCA3EA
:2019FB00E0FDA3E0FEA3E0FF7B00900087E0F521A3E0F522A3E0F523A3E0F524235401FA21
:201A1B007074C003E5212521F8E52233F9E52333FAE52433FB900087E8F0E9A3F0EAA3F039
:201A3B00EBA3F0900087E0F521A3E0F522A3E0F523A3E0F524C3EC9521ED9522EE9523EF91
:201A5B009524D0035027E524C313F524E52313F523E52213F522E52113F521900087F0E5F1
:201A7B0022A3F0E523A3F0E524A3F080090B90008FEBF0021A0590008FE0FF90008BE0FBBC
:201A9B00A3E0FCA3E0FDA3E0FE900087E0F521A3E0F522A3E0F523A3E0F524C3EB9521EC7D
:201ABB009522ED9523EE9524401790008BEBC39521F0EC9522A3F0ED9523A3F0EE9524A38A
:201ADB00F0900087E0FBA3E0FCA3E0FDA3E0C313FEED13FDEC13FCEB13900087F0ECA3F037
:201AFB00EDA3F0EEA3F08F061FEE708F90008BE0FCA3E0FDA3E0FEA3E08C828D838EF022F0
:201B1B00AF82AE83ADF0FC900094EFF0EEA3F0EDA3F0ECA3F0900098E4F0A3F0A3F0A3F077
:201B3B00900090E0FCA3E0FDA3E0FEA3E0FF7B20C003900094E0F8A3E0F9A3E0FAA3E0FB3A
:201B5B0090009C235401F0E828F8E933F9EA33FAEB33FB900094E8F0E9A3F0EAA3F0EBA306
:201B7B00F0900098E0F8A3E0F9A3E0FAA3E0FBE828F8E933F9EA33FAEB33FB900098E8F096
:201B9B00E9A3F0EAA3F0EBA3F0D00390009CE06008900098E043E001F0900098E0F521A38F
:201BBB00E0F522A3E0F523A3E0F524C3E5219CE5229DE5239EE5249F401F900098E521C335
:201BDB009CF0E5229DA3F0E5239EA3F0E5249FA3F0900094E043E001F01BEB6003021B4BCA
:141BFB00900094E0FCA3E0FDA3E0FEA3E08C828D838EF02294
:06005700E478FFF6D8FD7D
:1B1C0F0020F71130F6138883A88220F509F6A8837583002280FEF280F5F022D4
:20005D007800E84400600A790075A000E4F309D8FC789EE84400600C7901900000E4F0A304
:04007D00D8FCD9FAD8
:0D002900758154121C46E58260030200261A
:1C1C2A0020F71430F6148883A88220F507E6A88375830022E280F7E49322E022C9
:041C46007582002281
:00000001FF
