:2000AC00E582900005F0900001E06024900002E0FDA3E0FEA3E0FF740B2DFDE43EFE8D8209
:2000CC008E838FF01249F9FD900005E04DFF8022900002E0FCA3E0FDA3E0FE740C2CFCE4D5
:2000EC003DFD8C828D838EF01249F9FC900005E05CFF8F8222AFF0AE83E582900006F0EE20
:20010C00A3F0EFA3F0900006E0FDA3E0FEA3E0FF74032DFDE43EFE8D828E838FF01249F994
:20012C00FF600EBF01028009BF030280047F0080027F018F8222AFF0AE83E582900009F03F
:20014C00EEA3F0EFA3F0900009E0FDA3E0FEA3E0FF74032DFDE43EFE8D828E838FF012495C
:20016C00F9FF6009BF020280047F0080027F018F8222AFF0AE83E58290000CF0EEA3F0EFE4
:20018C00A3F090000FE4F090000CE0FDA3E0FEA3E0FF74022DFAE43EFB8F048A828B838CDE
:2001AC00F01249F9FCEC601090000FE025E0FBF0E043E001F01C80ED740B2DF508E43EF5EB
:2001CC00098F0A74012DF8E43EF98F04888289838CF01249F9F890000FE088F005F08002DD
:2001EC0025E0D5F0FBF8850882850983850AF0123DD2740C2DFAE43EFB8F04E8F4F88A823F
:20020C008B838CF0123DD2900010E4F0900011F0900012F0900013F0900014F0900015F0D4
:20022C00900016F0900017F0900018F0900019F090001AF090001BF08D828E838FF0124925
:20024C00F9FFBF01028014BF0202806EBF0303020325BF05030203830203DF900010E5915B
:20026C00F0900011E592F090FE19E0900012F090FE11E0900013F090FE29E0900014F09094
:20028C00FE21E0900015F090FE31E0900016F090FD31E0900017F090FD21E0900018F0909E
:2002AC00FD11E0900019F090FD01E090001AF090FD41E090001BF00203DF900010E595F06C
:2002CC00900011E596F090FE1AE0900012F090FE12E0900013F090FE2AE0900014F090FE1F
:2002EC0022E0900015F090FE32E0900016F090FD32E0900017F090FD22E0900018F090FD3B
:20030C0012E0900019F090FD02E090001AF090FD42E090001BF00203DF900010E5B1F09059
:20032C000011E5B2F090FE1BE0900012F090FE13E0900013F090FE2BE0900014F090FE230C
:20034C00E0900015F090FE33E0900016F090FD33E0900017F090FD23E0900018F090FD13E6
:20036C00E0900019F090FD03E090001AF090FD43E090001BF0805C900010E5C9F0900011E8
:20038C00E5CAF090FE1DE0900012F090FE15E0900013F090FE2DE0900014F090FE25E0902D
:2003AC000015F090FE35E0900016F090FD35E0900017F090FD25E0900018F090FD15E0907E
:2003CC000019F090FD05E090001AF090FD45E090001BF0900010E0FF90000CE0FCA3E0FD38
:2003EC00A3E0FE74032CF9E43DFA8E0389828A838BF01249F9F9900001740259F090000266
:20040C00ECF0EDA3F0EEA3F08F821200ACAF82900011E0FE90000CE0FBA3E0FCA3E0FD748A
:20042C00032BF8E43CF98D02888289838AF01249F9F8900001740158F0900002EBF0ECA3BC
:20044C00F0EDA3F08E82C0071200ACAE8290000CE0FBA3E0FCA3E0FD8B828C838DF0C00686
:20046C00120142E582D006D0077003020663C006900012E0FD90000CE0FAA3E0FBA3E0FC71
:20048C0074042AF8E43BF98C06888289838EF01249F9900001F0900002EAF0EBA3F0ECA32A
:2004AC00F08D82C007C0061200ACE582D006900012F0900013E0FE90000CE0FBA3E0FCA3FD
:2004CC00E0FD74052BF8E43CF98D02888289838AF01249F9900001F0900002EBF0ECA3F09E
:2004EC00EDA3F08E82C0061200ACE582D006900013F0900016E0FE90000CE0FBA3E0FCA3EF
:20050C00E0FD74072BF8E43CF98D02888289838AF01249F9900001F0900002EBF0ECA3F05B
:20052C00EDA3F08E82C0061200ACE582D006900016F0900017E0FE90000CE0FBA3E0FCA3AA
:20054C00E0FD74092BF8E43CF98D02888289838AF01249F9F8900001740258F0900002EBC2
:20056C00F0ECA3F0EDA3F08E82C0061200ACE582D006900017F0900018E0FE90000CE0FB1B
:20058C00A3E0FCA3E0FD74092BF8E43CF98D02888289838AF01249F9F8900001740158F0DE
:2005AC00900002EBF0ECA3F0EDA3F08E82C0061200ACE582D006900018F090000CE0FCA33F
:2005CC00E0FDA3E0FE740C2CF9E43DFA8E0389828A838BF01249F9F9900019E059F090001E
:2005EC001AE0FB74082CF8E43DF98E02888289838AF01249F9900001F0900002ECF0EDA34D
:20060C00F0EEA3F08B82C0061200ACE582D00690001AF090001BE0FE90000CE0FBA3E0FC76
:20062C00A3E0FD740A2BF8E43CF98D02888289838AF01249F9900001F0900002EBF0ECA384
:20064C00F0EDA3F08E82C0061200ACE582D006D00790001BF0D00690000CE0FBA3E0FCA36C
:20066C00E0FD8B828C838DF0C007C006120101E582D006D0077003020716C006900014E067
:20068C00FD90000CE0FAA3E0FBA3E0FC74062AF8E43BF98C06888289838EF01249F9F89028
:2006AC000001740158F0900002EAF0EBA3F0ECA3F08D82C007C0061200ACE582D0069000E0
:2006CC0014F0900015E0FE90000CE0FBA3E0FCA3E0FD74062BF8E43CF98D02888289838A2C
:2006EC00F01249F9F8900001740258F0900002EBF0ECA3F0EDA3F08E82C0061200ACE582FC
:20070C00D006D007900015F0D00690000CE0FBA3E0FCA3E0FD8B828C838DF01249F9FDBD98
:20072C0001028012BD02028062BD03030207ECBD0503020841228F918E92900012E090FE3B
:20074C0019F0900013E090FE11F0900014E090FE29F0900015E090FE21F0900016E090FE0F
:20076C0031F0900017E090FD31F0900018E090FD21F0900019E090FD11F090001AE090FDC3
:20078C0001F090001BE090FD41F0228F958E96900012E090FE1AF0900013E090FE12F090EC
:2007AC000014E090FE2AF0900015E090FE22F0900016E090FE32F0900017E090FD32F09070
:2007CC000018E090FD22F0900019E090FD12F090001AE090FD02F090001BE090FD42F022E9
:2007EC008FB18EB2900012E090FE1BF0900013E090FE13F0900014E090FE2BF0900015E08C
:20080C0090FE23F0900016E090FE33F0900017E090FD33F0900018E090FD23F0900019E00C
:20082C0090FD13F090001AE090FD03F090001BE090FD43F0228FC98ECA900012E090FE1DC8
:20084C00F0900013E090FE15F0900014E090FE2DF0900015E090FE25F0900016E090FE35E6
:20086C00F0900017E090FD35F0900018E090FD25F0900019E090FD15F090001AE090FD05E2
:20088C00F090001BE090FD45F022E58290001CF090001DE4F090001CE0FFBF0102800FBFCE
:2008AC0002028012BF03028015BF0520801890001DE590F0801690001DE5A0F0800E9000D9
:2008CC001DE5B0F0800690001DE5C8F090001DE0F58222AFF0AE83E58290001EF0EEA3F01E
:2008EC00EFA3F090001EE0FDA3E0FEA3E0FF8D828E838FF01249F9F582C007C006C005120E
:20090C000896AC82D005D006D007740B2DF9E43EFA8F0389828A838BF01249F952040DBD23
:20092C0000010E8D828E838FF01249F9FD8DF005F0EC8002C313D5F0FBF58222AFF0AE83CD
:20094C00E582900022F0EEA3F0EFA3F0900022E0FDA3E0FEA3E0FF74022DFAE43EFB8F04A0
:20096C008A828B838CF01249F9FABA0115900021E060067B017C0080047B007C009000219C
:20098C00EBF074012DFAE43EFB8F048A828B838CF01249F9FA900021E08AF005F080022599
:2009AC00E0D5F0FBFA740B2DF9E43EFB8F0489828B838CF01249F99000215AF08D828E8338
:2009CC008FF01249F9F582C007C006C005120896AC82D005D006D007740C2DF9E43EFA8FBE
:2009EC000389828A838BF01249F9F95204900021E04CF08D828E838FF01249F9FFBF010231
:200A0C00800FBF02028011BF03028013BF051D8015900021E0F59022900021E0F5A022900A
:0D0A2C000021E0F5B022900021E0F5C82285
:200A3900E582900026F07F00BF0300400122EF75F003A4FDAEF0245CF582EE344AF583E497
:200A590093FC900026E0FBECB503028003020B0C74CF55BAFCEBC454F0FB74305B4CF5BAE5
:200A79009000277403F0900028E4F090002904F090002A7403F090002B7401F090002CE425
:200A9900F090002D7403F090002E7401F090002FE4F0900030F0900031F0900032F09000D0
:200AB90033F0ED245CFDEE344AFE8D828E83A3A3E493FCC4540F900027F053040F90002861
:200AD900ECF090002775F000C006C00512017ED005D0068D828E83A3E493FEC4540F90004F
:200AF90027F053060F900028EEF090002775F00002017E0F020A41E582900038F0E0F58259
:200B1900120A39900034E0FCA3E0FDA3E0FEA3E0FF9002D1ECF0EDA3F0EEA3F0EFA3F090F2
:200B39000EC075F0167402123BE9AC82AD83EDC313CC13CCC313CC13CC1C1C900039ECF07D
:200B5900EC24C05006900039743FF090FE81E4F090FE82F0900039E090FE8044C0F02290AA
:200B7900FE82E030E6F990FE82E053E0BFF02290FE817401F0020B7890FE817406F0020B7A
:200B990078E58290003AF0E0600A90FE82E043E001F0800890FE82E053E0FEF090FE817439
:200BB90005F0020B78E58290003BF0E090FE86F090FE817402F0020B7890FE817403F0121A
:200BD9000B7890FE82E0FF530702E4A2E713CF13CF8F822290FE817404F0120B7890FE87A9
:200BF900E0F58222E58290003DF0E025E0FF90003CE090FE864FF090FE817409F0120B784B
:200C190090FE82E0FF530702E4A2E713CF13CF8F8222E58290003EF0E090FE86F090FE81F4
:200C3900740AF0120B7890FE82E0FF530702E4A2E713CF13CF8F8222E58290003FF0E06083
:1A0C5900067E0C7F0080047E0B7F0090FE81EEF0120B7890FE87E0F58222D6
:094A5C0000151401252403323376
:200C7300AFF0AE83E582900041F0EEA3F0EFA3F0900041E0FDA3E0FEA3E0FF74012DFAE435
:200C93003EFB8F048A828B838CF0E4123DD274022DFAE43EFB8F048A828B838CF0E4123DC4
:200CB300D274032DFAE43EFB8F048A828B838CF0E4123DD274042DFDE43EFE8D828E838FF5
:200CD300F0E4023DD2AFF0AE83E582900044F0EEA3F0EFA3F0900044E0FDA3E0FEA3E0FF6A
:200CF30074012DFAE43EFB8F048A828B838CF01249F9FA8D828E838FF01249F9FDEAB5051D
:200D13000474018001E4F58222AFF0AE83E582900047F0EEA3F0EFA3F0900047E0FDA3E011
:200D3300FEA3E0FF8D828E838FF01249F9FC0DBD00010E8D828E838FF01249F9FDECC39D1C
:200D5300F58222C019858119C082C083C0F0E5812408F581A8190886820886830886F01240
:200D73000D1CAC82E51924FAF8C3EC96B39200E433FC200003020EB0A81908E5192404F98D
:200D9300740326F7E4083609F70809E6F7E5192404F886820886830886F0E519240AF912B0
:200DB30049F9F7A81908E5192407F9740526F7E4083609F70809E6F7E519240BF87600E5D6
:200DD30019240BF8E51924FAF9C3E6974003020E71C004A8190886820886830886F0124928
:200DF300F9FCE519240AF8E6B504028004D0048009D004E519240AF87600C004E5192407EA
:200E1300F886820886830886F01249F9FAA31249F9FBA31249F9FCE519240AF8E62AFAE4EB
:200E33003BFBE51924FBF88605088606088607E519240BF8E62DFDE43EFE8D828E838FF0AC
:200E53001249F9FD8A828B838CF0123DD2E519240AF806E519240BF806D004020DD2E5196F
:200E73002404F886820886830886F0E519240AF9E7123DD2A81908740126FDE40836FE08F2
:200E930086078D828E838FF01249F9FBE51924FAF8E62BFB8D828E838FF0123DD28C828551
:200EB3001981D01922C019858119C082C083C0F0E5812409F581A81908740126FAE40836C4
:200ED300FB0886048A828B838CF01249F9FFE51924FAF8C3EF96B39200E5192404F8A20028
:200EF300E433F6200003021011A81908E5192405F9740226F7E4083609F70809E6F7E51902
:200F13002405F886820886830886F0E519240BF91249F9F7A81908E5192408F9740526F713
:200F3300E4083609F70809E6F7E519240CF87600E519240CF8E51924FAF9C3E69740030232
:200F53000FDFA8190886820886830886F01249F9FDE519240BF8E6B50507E519240BF87678
:200F730000C002C003C004E51924FBF88603088604088605E519240CF8E62BFBE43CFCE51F
:200F9300192408F886820886830886F01249F9FAA31249F9FEA31249F9FFE519240BF8E626
:200FB3002AFAE43EFE8A828E838FF01249F98B828C838DF0123DD2E519240BF806E51924E3
:200FD3000CF806D004D003D002020F43E5192405F886820886830886F0E519240BF9E71252
:200FF3003DD28A828B838CF01249F9FFE51924FAF8EFC396FF8A828B838CF0123DD2E519D6
:0B1013002404F88682851981D0192280
:20101E00E582900051F0E0FF90004BF090004CE0FBA3E0FCA3E0FDA3E0FE900050E0FA904F
:20103E0001BEEBF0ECA3F0EDA3F0EEA3F09001C27401F09001C3E4F09001C4EAF08F820256
:20105E001A4CAF83E582900052F0EFA3F0900052E0FEA3E0FFBE0A29BF002690004BE0FF4D
:20107E00900054740DF09001D17454F07400A3F0E4A3F09001D404F09001D5F08F82121E75
:20109E0002900052E0FEA3E0FF8E0590004BE0FC900055EDF09001D17455F07400A3F0E4DC
:2010BE00A3F09001D404F09001D5F08C82C007C006121E02D006D0078E828F832290004B37
:2010DE00E0FF900056E4F09001CB7456F07400A3F0E4A3F09001CE04F09001CFF08F8212FF
:0E10FE001D97900056E0FF7E008F828E8322A9
:20110C00E582900059F07F00BF0300400122EF75F005A4FDAEF02465F582EE344AF583E47F
:20112C0093FC900059E0FBECB50302800302121674F355A2FCEB2B25E0FB740C5B4CF5A2CF
:20114C0090005A7403F090005BE4F090005C04F090005D04F090005E14F090005FE4F0906D
:20116C0000607403F09000617401F0900062E4F0900063F0900064F0900065F0900066F0EE
:20118C00ED2465FDEE344AFE8D828E83A3A3A3E493FCC4540F90005AF053040F90005BECAC
:2011AC00F090005A75F000C006C00512017ED005D006900058E090005DF0900060E4F08D27
:2011CC00828E83A3A393FCC4540F90005AF053040F90005BECF090005A75F000C006C00593
:2011EC0012017ED005D0068D828E83A3A3A3A3E493FEC4540F90005AF053060F90005BEE44
:20120C00F090005A75F00002017E0F021114AF82AE83ADF0FC900067EFF0EEA3F0EDA3F0FA
:20122C00ECA3F0900067E0FCA3E0FDA3E0FEA3E0FF9002D1ECF0EDA3F0EEA3F0EFA3F0907B
:20124C000EC075F0167402C007C006C005C004123BE9A882A983D004D005D006D00790003B
:20126C006BE8F0E9A3F09002C8ECF0EDA3F0EEA3F0EFA3F0900EC075F0167402C001C0001A
:20128C001239D8AC82AD83AEF0FFD000D001EC4D4E4F600B90006B740128F0E439A3F0907A
:2012AC00006BE0FEA3E0FF90006EEEF0EFA3F07D0090006EE0FBA3E0FC8B018C02C37401D2
:2012CC0099E49A5012ECC313CB13CBFC90006EEBF0ECA3F00D80DA90006DEDF08DF005F017
:2012EC007B017C008006EB2BFBEC33FCD5F0F7C3EB9EEC9F500690006DED04F0900070E48D
:20130C00F090006DE0FF24FD500DEF24FC40089000707401F0801D90006DE0FFBF02005031
:20132C00089000707403F0800BEF24FC50069000707402F0900070E0F58222E582900075F7
:20134C00F0900073E0FF900074E0900058F08F8212110C900071E0FF900075E04207900015
:20136C0072E04F44D0F5CE43AF0222AFF0AE83E58290007BF0EEA3F0EFA3F090007BE0FDB6
:20138C00A3E0FEA3E0FF7833A60508A60608A607900076E0FEA3E0FF7838A60608A6079078
:2013AC000078E0FDA3E0FEA3E0FF783AA60508A60608A6078D828E838FF0E4123DD27836B1
:2013CC0076000876007833860508860608860778368603088604EB2DFDEC3EFE8D828E8388
:2013EC008FF01249F9F5CF22AFF0AE83E582900083F0EEA3F0EFA3F0900083E0FDA3E0FE7A
:20140C00A3E0FF8D028E038F0490007EE0F8A3E0F99002DEE4F09002DFE8F0E9A3F08A8214
:20142C008B838CF0C007C006C005C001C000123D10D000D001D005D006D007900080E0FAD7
:20144C00A3E0FBA3E0FC900076E8F0E9A3F0900078EAF0EBA3F0ECA3F08D828E838FF002A9
:20146C001377C0E0C0F0C082C083C007C006C005C004C003C002C000C0D075D00043CDC001
:20148C007833860508860608860778368603088604EB2DFDEC3EFE8D828E838FF0E5CF1276
:2014AC003DD2783686060886070EBE00010F7836A60608A607783686040886057838860254
:2014CC00088603C3EE9AEF9B501F78338603088606088607EC2BFCED3EFD8F028C828D83E4
:2014EC008AF01249F9F5CF8015783A86050886060886078D828E838FF07401123DD2D0D07E
:17150C00D000D002D003D004D005D006D007D083D082D0F0D0E032B6
:0F4A650000541314150122232425033534333252
:20152300E58290008EF090008FE4F0900090F0900087E0FCA3E0FDA3E0FEA3E0FFEC4D4E33
:201543004F700990008F7401F002171D900091E4F0A3F090008EE0FB6003BB0159C3E49CCA
:20156300E49D74019EE49F40030216DEC3E49CE49D740C9EE49F40359000907401F0900227
:20158300D1740CF0E4A3F0A3F0A3F08C828D838EF0EF123BE9A882A983AAF0FB900087E8BF
:2015A300F0E9A3F0EAA3F0EBA3F00216DE90008F7402F00216DEC3E49CE49D74019EE49FF6
:2015C30040030216DE8E008F01900091E8F0E9A3F0C3E498740199505E9000907401F0902C
:2015E30002C1740CF0E4A3F088828983C007C006C005C00412394BAA82AB83D004D005D0A9
:2016030006D007900091EAF0EBA3F09002D1740CF0E4A3F0A3F0A3F08C828D838EF0EF1264
:201623003BE9AC82AD83AEF0FF900087ECF0EDA3F0EEA3F0EFA3F0900091E0F50BA3E0F599
:201643000C900087E0FAA3E0FBA3E0FCA3E0FD9002C8E50BF0E50CA3F0E4A3F0A3F08A8239
:201663008B838CF0EDC005C004C003C0021239D8A882A983AEF0FFD002D003D004D005E896
:20168300494E4F600D9000917401250BF0E4350CA3F0900091E0FEA3E0FF9002D1EEF0EFD5
:2016A300A3F0E4A3F0A3F08A828B838CF0EDC007C006123BE9AA82AB83ACF0FDD006D007A4
:2016C300900087EAF0EBA3F0ECA3F0EDA3F01EBEFF011F900091EEF0EFA3F090008EE0FF20
:2016E300BF0202800ABF03028014BF042D801E900091E0FEA3E0FF90FEA2EEF0801C9000F9
:2017030091E0FEA3E0FF90FEA3EEF0800D900091E0FEA3E0FF90FEA4EEF090008FE0600346
:20172300021885900087E0FCA3E0FDA3E0A3E0C3E49CFEE49DFF90008EE0FD24FB5003025E
:201743001885ED2D2D90174C7302175B0217A00217E502181B021851900090E06005538E2B
:201763007F8003438E805389F090008DE070055389F7800343890890008BE07005538FFE5B
:201783008003438F018E8A8F8C90008CE0700553A8FD800343A80243881002188553890F7F
:2017A30090008BE07005538FFD8003438F028E8B8F8D90008DE0700553897F8003438980AF
:2017C300900090E06005538EBF8003438E4090008CE0700553A8F7800343A8084388400287
:2017E3001885538EF790008BE07005538FFB8003438F0490008CE0700553AFFB800343AFE8
:20180300048ED78FD6900090E06005538EFB8003438E04438E10806A53D1FB90008BE07009
:201823000553D1FE800343D10190008CE0700553AFDF800343AF20900090E0600553D1FD79
:20184300800343D1028ED58FD443D108803453D1BF90008BE0700553D1EF800343D11090B9
:20186300008CE0700553AFBF800343AF40900090E0600553D1DF800343D1208ED38FD243EA
:20188300D18090008FE0F58222E582900093F0900094E4F0A3F0900093E0FF24FB4068EF9F
:2018A3002F9018A873800880188028803880485388EF900094E58AF0E58CA3F0538FFE803A
:2018C300465388BF900094E58BF0E58DA3F0538FFD8034538EEF900094E5D7F0E5D6A3F01B
:2018E300538FFB802253D1F7900094E5D5F0E5D4A3F053D1FE801053D17F900094E5D3F010
:13190300E5D2A3F053D1EF900094E0FEA3E08E82F5832245
:20191600E5829001B0F09001B1E4F0A3F0A3F09001B0E0FFBF01028005BF021E800F900177
:20193600B17422F07403A3F0E4A3F0800D9001B17432F07403A3F0E4A3F09001B1E0FDA331
:20195600E0FEA3E0FF8D828E838FF022E5829001B4F09001B5E4F0A3F0A3F09001B4E0FF50
:20197600BF01028005BF021E800F9001B5742AF07403A3F0E4A3F0800D9001B5743AF07462
:2019960003A3F0E4A3F09001B5E0FDA3E0FEA3E0FF8D828E838FF022E5829001B8F0E0F5C8
:2019B60082121962AD82AE83AFF074042DFDE43EFE8D828E838FF01249F9B40100E433F58D
:2019D6008222E5829001BAF0C2AF9001BAE0F582121962120D1CAF829001B9E0FEC3EF9E27
:2019F600E4339001BBB40100E433F0D2AF9001BBE0F58222E5829001BCF0C2AF9001BCE02A
:201A1600F582121916AD82AE83AFF00DBD00010E8D828E838FF01249F9FDD2AF8D8222E599
:201A3600829001BDF0C2AF9001BDE0F582121916120C73D2AF22E5829001C5F09001C6E45D
:201A5600F09001C77402F09001C5E0FFBF01099001C3E06003021AF09001C2E0FEBE01052C
:201A76009001C7EFF09001C7E0FF9001BEE0FBA3E0FCA3E0FDA3E0FE9002D1EBF0ECA3F07B
:201A9600EDA3F0EEA3F0900EC075F0167402C007123BE9AB82AC83ADF0FED007EEC313FE53
:201AB600ED13FDEC13FCEB13FBEEC313FEED13FDEC13FCEB13900087F0ECA3F0EDA3F0EE73
:201AD600A3F090008BE4F090008CF090008DF08F82121523E5829001C6F09001C6E06003B2
:201AF600021C489001C8E4F09001C3E0FF24FC404CEF2F901B0D7380068014801280109049
:201B160001C5E0FEBE01369001C87401F0802E9001C5E0FEBE01209001BEE0FBA3E0A3E067
:201B3600FDA3E0FE530302E4C313CB13CBFC9001C874024BF080069001C87401F0BF030644
:201B56007E207F0080047E007F009001C8E030E1067C807D0080047C007D00EC4E4410FFFE
:201B76009001C5E0FEBE01028009BE0203021C13021C289001C8E0FEBE0102800ABE020253
:201B96008017BE034A802E9001C7E0FEBE0205438E01803B538EFE80369001BEE0FBA3E015
:201BB600FCA3E0FDA3E0FEEB30E005438780801F53877F801A9001BEE0FBA3E0FCA3E0FD0D
:201BD600A3E0FEEB30E005438E208003538EDF743F55A2FE9001C4E0030354C0FD74C05DB5
:201BF6004EF5A29001C8E030E0067D407E0080047D007E00ED4FF59843A810801574FE55C1
:201C1600BAFE9001C4E0FD74015D4EF5BA8F9A43AF019001C5E0F582121962AD82AE83AF90
:201C3600F074042DFDE43EFE8D828E838FF0E4123DD29001C6E0F58222C020C0E0C0F0C078
:201C560082C083C007C006C005C004C003C002C001C000C0D075D000C2AFE59830E1335333
:201C760098FD7401C0E074C9C0E07401C0E0E4C0E090032A75F000120EB8AF82E58124FC7D
:201C9600F581EF60089001C9E0F599800590032EE4F0E59830E0275398FE9001C9E599F01A
:201CB6007401C0E074C9C0E07401C0E0E4C0E090032275F000120D56E58124FCF581D2AF77
:201CD600D0D0D000D001D002D003D004D005D006D007D083D082D0F0D0E0D02032C020C0DB
:201CF600E0C0F0C082C083C007C006C005C004C003C002C001C000C0D075D000C2AFE59AD8
:201D160030E133539AFD7401C0E074CAC0E07401C0E0E4C0E090033A75F000120EB8AF82B8
:201D3600E58124FCF581EF60089001CAE0F59B800590033EE4F0E59A30E027539AFE900113
:201D5600CAE59BF07401C0E074CAC0E07401C0E0E4C0E090033275F000120D56E58124FC82
:201D7600F581D2AFD0D0D000D001D002D003D004D005D006D007D083D082D0F0D0E0D02015
:201D960032E5829001D0F0E0F582121916AD82AE83AFF09001CBE0F50EA3E0F50FA3E0F56E
:201DB600109001CFE0F9B90103E98001E4F50DC2AFA80EA90FAC10C007C006C0059001CE6B
:201DD600E0C0E0C000C001C0048D828E838FF0120EB8AC82E58124FCF581D005D006D00705
:201DF600D2AFE50D6003EC60C68C8222E5829001D6F0E0F582121962AD82AE83AFF0900183
:201E1600D1E0F512A3E0F513A3E0F5149001D5E0F9B90103E98001E4F511C2AFA812A913A6
:201E3600AC14C007C006C0059001D4E0C0E0C000C001C0048D828E838FF0120D56AC82E529
:201E56008124FCF581D005D006D007D2AFE5116003EC60C6EC605C74042DF9E43EFA8F03F3
:201E760089828A838BF01249F9704889828A838BF07401123DD2C004C0E074D7C0E07401C0
:201E9600C0E0E4C0E08D828E838FF0120EB8E58124FCF581D0049001D6E0FFBF0102800534
:161EB600BF021080089001D7E0F59980069001D7E0F59B8C822259
:204CDB0010000000009700001000000000A70000E900000000B700001000000000A001000A
:201ECC00AF83E5829001D9F0EFA3F09001D9E0FEA3E0FFEE4F60197C827D0AEC4D600A00D9
:201EEC0000001CBCFF011D80F21EBEFF011F80E322E5829001DBF0E0FFEF600B7E37EE60F0
:201F0C00031E80FA1F80F222AF83E5829001DCF0EFA3F09001DCE0FEA3E0FFEE4F60107DF8
:101F2C0005ED60031D80FA001EBEFF011F80EC2230
:201F3C00AFF0AE83E5829001E3F0EEA3F0EFA3F09001E3E0FDA3E0FEA3E0FF7B007C00EBB1
:201F5C002DF8EC3EF98F02888289838AF01249F960070BBB00E90C80E68B828C832290034F
:201F7C004275F00012017E1238F2AC82AD83AEF0FF9001DFECF0EDA3F0EEA3F0EFA3F022E5
:201F9C001238F2AC82AD83AEF0FF9001DFE0F8A3E0F9A3E0FAA3E0FBECC398FCED99FDEE7B
:201FBC009AFEEF9BFFC3EC9490ED9401EE9400EF9400403590034275F0001208DFE582B4C7
:201FDC000100E433900021F090034275F0001209481238F2AC82AD83AEF0FF9001DFECF00C
:201FFC00EDA3F0EEA3F0EFA3F022C019E581F51924FBFFE51924FBF89002E2E6F008E6A3C5
:20201C00F008E6A3F09002E5EFF09001E675F000123E5D9002517401F075820012271D754A
:20203C0082001221D69002477410F0900248E4F0904A7475F08012227DE58270177485C073
:20205C00E0744AC0E07480C0E0123FB715811581158180D17582011221D6758202121EFD50
:20207C00122367E5827017749BC0E0744AC0E07480C0E0123FB715811581158180E27582F6
:20209C00001221D6749DC0E0744AC0E07480C0E0123FB71581158115819002517401F075F1
:1C20BC00820112271D74E6C0E07401C0E0E4C0E0123FB7158115811581D01922C7
:204A740074657374746573747465737474657374006E72663234206661696C656420746FEE
:0B4A94002073656E6421002E000A00F4
:0D4CFB0001030100010003010000000000A2
:040000000200513277
:03000B00023906B1
:0100130032BA
:01001B0032B2
:03002300021C4F6D
:01002B0032A2
:01003300329A
:01003B003292
:03004300021CF3A9
:03004B0002146E2E
:0300A90002004E04
:03004E000220D8B5
:2020D80043BA80D2AF90004CE4F074C2A3F07401A3F0E4A3F0900050F075820112101E12D8
:1A20F80038CF121F7A9002517401F075820112271D9001F4121ECC0238606B
:20211200AF82AE83ADF0FC90023FEFF0EEA3F0EDA3F0ECA3F090023FE0FCA3E0FDA3E0A32F
:20213200E08C828D83021ECC90090075F03DE412121AAF82900071E4F0900072EFF09000CF
:20215200737401F0900074E4F075820002134790035075F00012017E90035D75F000120129
:202172007E9000217401F090035075F000120948900021E4F090035D75F000020948E5827A
:20219200900243F0E0900021F090035075F000020948E582900244F09000767401F0E4A32D
:2021B200F0900078744FF07403A3F0E4A3F090024475F00012137790034FE060FA90024418
:2021D200E0F58222E582900245F0E0900021F090035D75F000020948E582900246F0E0FF0F
:2021F200BF0144900270743AF07402A3F0E4A3F090027304F0900274E4F075821D12305A26
:2022120090023AE090023B4401F0900276743BF07402A3F0E4A3F090027904F090027AE4E8
:20223200F075821D0230C6900270743AF07402A3F0E4A3F090027304F0900274E4F07582A6
:202252001D12305A90023AE090023B54FEF0900276743BF07402A3F0E4A3F090027904F0D2
:2022720090027AE4F075821D0230C6AFF0AE83E582900249F0EEA3F0EFA3F0900270743AAB
:20229200F07402A3F0E4A3F090027304F0900274E4F075820712305A90023AE020E53090DE
:2022B200036BE0FFBF0328900248E090036CF0900249E0FDA3E0FEA3E0FF900247E0900226
:2022D2004CF08D828E838FF01222E57582012275820022AFF0AE83E58290024DF0EEA3F03E
:2022F200EFA3F075820012219090036CE0FFBF010890023974B0F0800690023974A0F07541
:2023120082A01221A490024DE0FDA3E0FEA3E0FF90024CE0FCEC60378C027B001ABAFF01D9
:202332001BEA2DFAEB3EF98F038A8289838BF01249F9FA900239F08A82C007C006C005C0F1
:20235200041221A4D004D005D006D0071C80C6758201022190900270743AF07402A3F0E4A0
:20237200A3F090027304F0900274E4F075820712305A90023AE0FF30E521900276743AF0C4
:202392007402A3F0E4A3F090027904F090027AE4F07582071230C675820122EF30E42190F8
:2023B2000276743AF07402A3F0E4A3F090027904F090027AE4F07582071230C67582FF2278
:2023D20075820022C019858119AD82AE83AFF090036BE0FCBC04028003022503900270741C
:2023F2003AF07402A3F0E4A3F090027304F0900274E4F0758207C007C006C00512305AD092
:2024120005D006D00790023AE020E6030224FE90036DE0700C90023EE0FCE51924FDF8A65A
:2024320004758200C007C006C0051221909002397461F07582611221A4D005D006D007E554
:202452001924FDF88604EC603090023974FFF07582FFC007C006C005C0041221A4AB82D024
:2024720004D005D006D0078D828E838FF0EB123DD2A3AD82AE831C80CD7582011221909062
:202492000270743AF07402A3F0E4A3F090027304F0900274E4F075821712305A90023AE071
:2024B20030E044900270743AF07402A3F0E4A3F090027304F0900274E4F075820712305A29
:2024D20090023AE090023B4440F0900276743BF07402A3F0E4A3F090027904F090027AE4E7
:2024F200F07582071230C675820180087582028003758200D01922E582900250F0E0FF605E
:202512002BBF015090036BE0FFBF031C75820012219090023974E1F07582E11221A4758243
:2025320001122190758201227582002290036BE0FFBF041C75820012219090023974E2F00B
:202552007582E21221A475820112219075820122758200227582002290036A7401F0758259
:20257200001221D690023B7408F0900276743BF07402A3F0E4A3F090027904F090027AE4F1
:20259200F07582001230C690023B743FF0900276743BF07402A3F0E4A3F090027904F09014
:2025B200027AE4F07582011230C690023BE4F0900276743BF07402A3F0E4A3F090027904E2
:2025D200F090027AE4F07582021230C690023B7403F0900276743BF07402A3F0E4A3F0902D
:2025F200027904F090027AE4F07582031230C690023B7402F0900276743BF07402A3F0E4B1
:20261200A3F090027904F090027AE4F07582051230C690023B7427F0900276743BF07402BD
:20263200A3F0E4A3F090027904F090027AE4F07582061230C690023B740EF0900276743BA4
:20265200F07402A3F0E4A3F090027904F090027AE4F07582071230C6758203122F4375829E
:2026720001122509758204122F43758200122509900270743AF07402A3F0E4A3F09002732C
:2026920004F0900274E4F075820712305A90023AE090023B4470F0900276743BF07402A3E3
:2026B200F0E4A3F090027904F090027AE4F07582071230C690026D7402F0758201122ECF50
:2026D200758205122C7E75822E122DEF758202122C47122BC2758201122B7490026074024F
:2026F200F0758210122C069002597408F09006D61229F3758202122A6C90025D7402F07531
:202712008200122AA87582000221EAE582900252F090036EE0700F12213A1221619000967B
:20273200E4F5F01221127582001221D690036EE060030227DF900270743AF07402A3F0E4A0
:20275200A3F090027304F0900274E4F075820012305A90023AE0FF0F0F0F900253EFF09042
:20277200023BEFF0900276743BF07402A3F0E4A3F090027904F090027AE4F07582001230EC
:20279200C6900270743AF07402A3F0E4A3F090027304F0900274E4F075820012305A900249
:2027B2003AE0FF900253E0FEEFB5060990036E7401F002273E749FC0E0744AC0E07480C0E6
:2027D200E0123FB715811581158102273E900251E0FFBF0102800690036AE0700312256ADB
:2027F200900252E0FF24FC4038EF2F9028017380068010801A8024758200122F4375820359
:20281200022F43758200122F43758204022F43758200122F43758201022F43758200022F39
:2028320043758200022F437E007F00C3EE9418EF648094804003022957BE0A05BF000280C4
:2028520013BE0B05BF0002800BBE1005BF000280030228EF8E0590023DE0FC900270745401
:20287200F07402A3F0E4A3F0900273ECF0900274E4F08D82C007C00612305AD006D00790A6
:202892000258E0FD7C00900257E0FB7A00900256E0F989158C16900255E0F989178C1890A0
:2028B2000254E0F87900C007C006C005C004C003C002C015C016C017C018C000C001C00623
:2028D200C00774F4C0E0744AC0E07480C0E0123FB7E58124F1F581D006D00780528E05908A
:2028F2000270743AF07402A3F0E4A3F090027304F0900274E4F08D82C007C00612305AD05B
:2029120006D00790023AE0FD7C00C007C006C005C004C006C007742AC0E0744BC0E074806F
:20293200C0E0123FB7E58124F9F581D006D007900014C007C006121ECCD006D0070EBE0091
:20295200010F02283D900270743AF07402A3F0E4A3F090027304F0900274E4F075821C12D6
:20297200305A90023AE0FF7E00C007C0067440C0E0744BC0E07480C0E0123FB7E58124FB31
:20299200F581900014121ECC900270743AF07402A3F0E4A3F090027304F0900274E4F075A7
:2029B200821D12305A90023AE0FF7E00C007C0067454C0E0744BC0E07480C0E0123FB7E5CC
:2029D2008124FBF581900014121ECC7468C0E0744BC0E07480C0E0123FB7158115811581F6
:2029F20022AF83E58290025AF0EFA3F090023BE4F090025AE0FEA3E0FFC374FA9EE49F501D
:202A12002290023BE0FDBD0F00501890023BED04F0EE2406FEEF34FFFF90025AEEF0EFA363
:202A3200F080CE90023BE0C454F0F0900259E0FF600BBF1000500690023BE04FF090027653
:202A5200743BF07402A3F0E4A3F090027904F090027AE4F07582040230C6E58290025CF02E
:202A7200E0FFBF070050128FF005F07401800225E0D5F0FB1490023BF0900276743BF07421
:202A920002A3F0E4A3F090027904F090027AE4F07582010230C6E58290025EF090025DE033
:202AB200FFF582C007122A6C900270743AF07402A3F0E4A3F090027304F0900274E4F075B7
:202AD200821D12305AD00790025EE0FEBE016690023AE090023B4404F0900276743BF07413
:202AF20002A3F0E4A3F090027904F090027AE4F075821DC0071230C6D007BF070050128F68
:202B1200F005F07401800225E0D5F0FB1490023BF0900276743BF07402A3F0E4A3F0900278
:202B32007904F090027AE4F075821C1230C690036D7401F02290023AE090023B54FBF0904C
:202B52000276743BF07402A3F0E4A3F090027904F090027AE4F075821D1230C690036DE4ED
:202B7200F022E58290025FF0E0FF1FC2D575F005EF30E704B2D5F404A430D50AF42401C5D0
:202B9200F0F43400C5F0246FFE740335F0FF7D0090023DE0FC900276EEF0EFA3F0EDA3F01A
:202BB200900279ECF090027AE4F07582100230C67F0A7E00BE0200503AEE75F005A4246F5D
:202BD200FC740335F0FD7B0090023DE0FA900276ECF0EDA3F0EBA3F0900279EAF090027A57
:202BF200E4F08F82C007C0061230C6D006D0070F0E80C122E582900261F07F11900260E070
:202C1200FEEE60289002767461F07402A3F0E4A3F090027904F090027AE4F08F82C007C06A
:202C3200061230C6D006D0070F1E80D5900261E090023EF022E582900262F0E0FF8FF005E2
:202C5200F07401800225E0D5F0FB1490023BF0900276743BF07402A3F0E4A3F090027904AF
:202C7200F090027AE4F07582020230C6E582900263F0E0FF24FA400EBF03004009EF24FECE
:202C920090023CF0800690023C7403F0900276743CF07402A3F0E4A3F090027904F09002F0
:202CB2007AE4F07582031230C6900263E090023DF022AF83E582900264F0EFA3F0900270F9
:202CD200743AF07402A3F0E4A3F090027304F0900274E4F075820612305A90023AE053E079
:202CF200D7F0900264E0FEA3E0FFBEFA05BF00028024BEE805BF03028012BED025BF0722E7
:202D120090023AE090023B4408F0801E90023AE090023BF0801490023AE090023B4420F084
:202D3200800890023AE090023BF0900276743BF07402A3F0E4A3F090027904F090027AE47A
:202D5200F07582060230C6E582900266F0900270743AF07402A3F0E4A3F090027304F09084
:202D72000274E4F075820612305A90023AE053E0F9F0900266E0FF600FBF06028016BF0C28
:202D920002801DBF1230802490023AE090023B4406F0802C90023AE090023B4404F080202D
:202DB20090023AE090023B4402F0801490023AE090023BF0800A90023AE090023B4404F01A
:202DD200900276743BF07402A3F0E4A3F090027904F090027AE4F07582060230C6E58290EF
:202DF2000267F0E0FF24824027BF01004022900268EFF09002767468F07402A3F0E4A3F02D
:202E120090027904F090027AE4F07582050230C69002697401F09002767469F07402A3F08F
:202E3200E4A3F090027904F090027AE4F07582050230C6E58290026CF0900270743AF074CD
:202E520002A3F0E4A3F090027304F0900274E4F075820012305A90026CE0600C90023AE0F8
:202E720090023B4440F0800890023BE053E0BFF090026AE0600A90023BE043E020F080083A
:202E920090023BE053E0DFF090026BE0600A90023BE043E010F0800890023BE053E0EFF013
:202EB200900276743BF07402A3F0E4A3F090027904F090027AE4F07582000230C6E5829014
:202ED200026EF0900270743AF07402A3F0E4A3F090027304F0900274E4F075820012305AFA
:202EF20090026EE0600C90023AE090023B4408F0800890023BE053E0F7F090026DE0FFBFD3
:202F1200020A90023BE043E004F0800890023BE053E0FBF0900276743BF07402A3F0E4A345
:202F3200F090027904F090027AE4F07582000230C6E58290026FF0900270743AF07402A3B0
:202F5200F0E4A3F090027304F0900274E4F075820012305A90026FE0FF24FB5003023016F8
:202F7200EF2F902F7873800880268043805C8075758200C0071221D690023AE090023B5421
:202F9200FDF0900002E4F5F0122112D007023033758200C0071221D690023AE090023B44D2
:202FB20002F0900002E4F5F0122112D007807290023AE0440290023B54FEF0900002E4F538
:202FD200F0C007122112D007805790023AE0440290023B54FEF0900002E4F5F0C0071221DF
:202FF20012D007803C758201C0071221D690023AE090023B4403F0900002E4F5F012211202
:20301200D007801D758200C0071221D690023AE090023B54FDF0900002E4F5F0122112D039
:2030320007900276743BF07402A3F0E4A3F090027904F090027AE4F0758200C0071230C6AB
:20305200D00790036BEFF022E582900275F0758200122190900275E0FF900239F08F8212AC
:2030720021A4900239E4F0900270E0FDA3E0FEA3E0FF900273E0FCEC602D900239E0F5827C
:20309200C007C006C005C0041221A4AB82D004D005D006D0078D828E838FF0EB123DD2A360
:2030B200AD82AE831C80D0900274E0700675820102219022E58290027BF0758200122190EB
:2030D20090027BE04420FF900239F08F821221A4900276E0FDA3E0FEA3E0FF900279E0FC1C
:2030F200EC602D8D828E838FF01249F9FBA3AD82AE83900239EBF0E0F582C007C006C00505
:1D311200C0041221A4D004D005D006D0071C80D090027AE070067582010221902214
:204A9F000D6E726632346C3031204661696C656420746F20496E697469616C697A653A0A93
:204ABF00526561642076616C756520646F65736E2774206D6174636820746865206E657752
:204ADF006C79207772697474656E2076616C7565203B280A000D5265676973746572203039
:204AFF0078253032783A203078253032782030782530327820307825303278203078253074
:204B1F003278203078253032780A000D5265676973746572203078253032783A2025640AF5
:204B3F00000D526567697374657220307831433A2025640A000D5265676973746572203039
:0C4B5F007831443A2025640A000A0A005C
:204D080000020201000100030100000000000206010001000301000000000000050100006D
:1E4D2800E1F0F0F0F0D2F0F0F0F0F0F0F0F0F0F0F0F0F0F0F0F0F0F0F0F0F0F0F0F07A
:20312F00AFF0AE83E582900289F0EEA3F0EFA3F0900283E0FDA3E0FEA3E0FF8D828E838F97
:20314F00F01249F9FC900289E0F9A3E0FAA3E0FBEC29FCE43AFA8C828A838BF01249F9F925
:20316F0074012CF521E43AF5228B2390028CE521F0E522A3F0E523A3F090028FE9F09002D1
:20318F0090E4F0B92D289002907401F08521828522838523F01249F9F890028C74022CF041
:2031AF00E43AA3F0EBA3F090028FE8F08023B92B208521828522838523F01249F9F9900268
:2031CF008C74022CF0E43AA3F0EBA3F090028FE9F0900291E4F0A3F0A3F0A3F07C00F52454
:2031EF0090028CE0F8A3E0F9A3E0FAC005C006C00790028FE024D0F0E0F521C374099521AE
:20320F00D007D006D00550030232B40CEC24F7407BC005C006C007900291E0F525A3E0F52D
:20322F0026A3E0F527A3E0F528E5252525FBE52633FDE52733FEE52833FFEB2BFBED33FDE6
:20324F00EE33FEEF33FFE5252BFBE5263DFDE5273EFEE5283FFFEB2BF525ED33F526EE338B
:20326F00F527EF33F528AB217D007E007F00900291EB2525F0ED3526A3F0EE3527A3F0EFAF
:20328F003528A3F0D007D006D00580020524888289838AF01249F9FBA3A882A98390028F09
:2032AF00EBF00231FA90028CE8F0E9A3F0EAA3F0EC7003F58222900291E0F9A3E0FAA3E014
:2032CF00FBA3E0FC900295E9F0EAA3F0EBA3F0ECA3F0C374808524F063F08095F0400302FE
:2032EF00336CAC24900295E0F8A3E0F9A3E0FAA3E0888289838AF0C007C006C005C004121D
:20330F003D38A882A983AAF0FBC000C001C002C00390000075F0207441123B18A882A983B3
:20332F00AAF0FBE58124FCF581888289838AF0EB123D65A882A983AAF0FBD004D005D00654
:20334F00D007900295E8F0E9A3F0EAA3F0EBA3F01CC374808CF063F08095F0408790029081
:20336F00E0603BC005C006C007900286E0FAA3E0FBA3E0FC900295E0F8A3E0F9A3E0A3E001
:20338F00C3E498F8E499F98A828B838CF0E8123DD2A3E9123DD2D007D006D0058032C0052C
:2033AF00C006C007900286E0FAA3E0FBA3E0FC900295E0F8A3E0F9A3E0A3E08A828B838C5B
:2033CF00F0E8123DD2A3E9123DD2D007D006D005900289E0F525A3E0F526A3E0F5279002D2
:2033EF008CE0F8A3E0A3E0AA25E8C39A148D828E838FF0123DD275820122AFF0AE83E5821B
:20340F00900299F0EEA3F0EFA3F090029CE4F090029EF0A3F09002DEF09002DF7406F0E4AB
:20342F00A3F090027D75F000123D10900299E0FDA3E0FEA3E0FF90029CE0FC2DF9E43EFAC0
:20344F008F0389828A838BF01249F9FB700302364690029DEBF090029CEC04F090029DE0D1
:20346F00FCBC4100400FEC2485400AEC24A5501EBC61005019746BC0E0744BC0E07480C0DB
:20348F00E0123FB71581158115817582012290029DE0FCBC4102801BBC4E03023541BC541F
:2034AF000302354ABC6903023553BC6A030235BD023627900299E0F9A3E0FAA3E0FB9002BA
:2034CF0083749CF07402A3F0E4A3F0900286749EF07402A3F0E4A3F089828A838BF0C007E6
:2034EF00C006C00512312FE582D005D006D00770197480C0E0744BC0E07480C0E0123FB7BF
:20350F001581158115817582012290027DE06019749BC0E0744BC0E07480C0E0123FB71599
:20352F0081158115817582012290027D7401F002344590027D7402F002344590027D740350
:20354F00F0023445900299E0F9A3E0FAA3E0FB900283749CF07402A3F0E4A3F090028674D1
:20356F009EF07402A3F0E4A3F089828A838BF0C007C006C00512312FE582D005D006D007EE
:20358F00701974C9C0E0744BC0E07480C0E0123FB71581158115817582012290029EE0FAD5
:2035AF00A3E0FB90027EEAF0EBA3F0023445900299E0F9A3E0FAA3E0FB900283749CF07413
:2035CF0002A3F0E4A3F0900286749EF07402A3F0E4A3F089828A838BF0C007C006C005123F
:2035EF00312FE582D005D006D007701974C9C0E0744BC0E07480C0E0123FB71581158115D1
:20360F00817582012290029EE0FAA3E0FB900280EAF0EBA3F00234457F00C004C00774E035
:20362F00C0E0744BC0E07480C0E0123FB7E58124FBF5817582012290027DE0FFBF0102809B
:20364F0023BF0202801EBF030280197405C0E0744CC0E07480C0E0123FB7158115811581A3
:20366F007582012290027DE0FFBF0102800ABF02028026BF0351802690029EE0C0E0A3E092
:20368F00C0E07431C0E0744CC0E07480C0E0123FB7E58124FBF581804712283980421238F9
:2036AF00F2AC82AD83AEF0FFC004C005C006C0077445C0E0744CC0E07480C0E0122006E58E
:2036CF008124F9F5818019745FC0E0744CC0E07480C0E0123FB715811581158175820122E3
:0436EF0075820022BE
:204B6B000D45787065637465642061206C6574746572210A0042616420696E74656765727A
:204B8B00204E756D62657220466F726D61740A0043616E27742068617665203E3120636FFC
:204BAB006D6D616E64206C657474657220696E206F6E6520636F6D6D616E64210A00426107
:204BCB006420696E74204E756D62657220466F726D61740A00436F6D6D616E64204C6574DB
:204BEB007465722027256327204E6F7420496D706C656D656E7465640A0053484F554C44AB
:204C0B00204E45564552205245414348204845524520494E204552524F5220434845434B43
:204C2B00494E472E0A005265616420494E542076616C75653A2025640A0043757272656E33
:204C4B00742054696D65205061737365643A20256C750A0053484F554C44204E45564552CD
:0D4C6B0020524541434820484552452E0047
:2036F300C019858119AD82AE83AFF0E4123DD29001CBEDF0EEA3F0EFA3F0E51924FDF890D8
:2037130001CEE6F09001CFE4F0758201C007C006C005121D97D005D006D0078D828E838F7C
:20373300F01249F9F582D01922AF83E5829002B7F0EFA3F09002B6E0FF9002B5E0FEBE0A48
:20375300028003BE0D2290038DE024A1F582E43402F583E4F090038DF09002A175F000C0DA
:20377300071237E7D0078041EE24DF503C90038DE0FDBD13004020C0077478C0E0744CC0EA
:20379300E07480C0E0123FB7158115811581D00790038DE4F0801290038DED04F0ED24A1C8
:2037B300F582E43402F583EEF0C0077401C0E01237C780119002B7E0C0E0A3E0C0E0900214
:2037D300B575F00022AE821581D007EEB507012202374C22AFF0AE83E5829002B9F0EEA386
:2037F300F0EFA3F09002B9E0FDA3E0FEA3E0FF8D828E838FF01249F97016748DC0E0744C3F
:20381300C0E07480C0E0123FB7158115811581228D828E838FF0123409E582FF701674A087
:20383300C0E0744CC0E07480C0E0123FB715811581158122BF011574B3C0E0744CC0E07485
:2038530080C0E0123FB71581158115812274C6C0E0744CC0E07480C0E0123FB71581158147
:2038730015817401C0E09002B575F0001236F3AF821581EF601690038EE0FEA3E0FF900264
:20389300B6E4F08E828F8312373C802B7401C0E09002B575F0001223D6AF821581BF0202E3
:1C38B3008015900390E0FEA3E0FF9002B67402F08E828F8312373C121F9C80A699
:204C7800425546464552204F564552464C4F57212121210A00456E7465722052656365693A
:204C98007665642E2E0A0A00436F6D6D616E64207061737365642E2E0A0A00436F6D6D6191
:184CB8006E64204661696C65642E2E0A0A007374617274696E670A00C7
:054D460000F336D62346
:2038CF0090008774B8F07488A3F0E4A3F0A3F090008BF090008C04F090008DE4F07582000A
:2038EF000215239002BDE0FCA3E0FDA3E0FEA3E08C828D838EF022C0E0C082C083C007C066
:20390F0006C005C004C0D075D0009002BDE0FCA3E0FDA3E0FEA3E0FF9002BD74012CF0E4C2
:1C392F003DA3F0E43EA3F0E43FA3F0D0D0D004D005D006D007D083D082D0E032C4
:20005E007970E94400601A7A0143E301904CDB15E3900322E405E393A315E3F0A3D9F5DAB7
:01007E00F38E
:20394B00AF83E5829002C3F0EFA3F09002C5E4F0A3F09002C1E0FEA3E0FF7D109002C3E0C9
:20396B00FBA3E0FC9002C7235401F0EB2BFBEC33FC9002C3EBF0ECA3F09002C5E0FBA3E071
:20398B00FCEB2BFBEC33FC9002C5EBF0ECA3F09002C7E060089002C5E043E001F09002C500
:2039AB00E0FBA3E0FCC3EB9EEC9F40139002C5EBC39EF0EC9FA3F09002C3E043E001F0DDA1
:0D39CB009B9002C3E0FEA3E08E82F58322F4
:2039D800AF82AE83ADF0FC9002CCEFF0EEA3F0EDA3F0ECA3F09002D0E4F09002CCE0FCA304
:2039F800E0FDA3E0FEA3E0FF7B009002C8E0F51AA3E0F51BA3E0F51CA3E0F51D235401FADD
:203A18007074C003E51A251AF8E51B33F9E51C33FAE51D33FB9002C8E8F0E9A3F0EAA3F0FC
:203A3800EBA3F09002C8E0F51AA3E0F51BA3E0F51CA3E0F51DC3EC951AED951BEE951CEF62
:203A5800951DD0035027E51DC313F51DE51C13F51CE51B13F51BE51A13F51A9002C8F0E5D0
:203A78001BA3F0E51CA3F0E51DA3F080090B9002D0EBF0023A029002D0E0FF9002CCE0FBCE
:203A9800A3E0FCA3E0FDA3E0FE9002C8E0F51AA3E0F51BA3E0F51CA3E0F51DC3EB951AEC40
:203AB800951BED951CEE951D40179002CCEBC3951AF0EC951BA3F0ED951CA3F0EE951DA35B
:203AD800F09002C8E0FBA3E0FCA3E0FDA3E0C313FEED13FDEC13FCEB139002C8F0ECA3F094
:203AF800EDA3F0EEA3F08F061FEE708F9002CCE0FCA3E0FDA3E0FEA3E08C828D838EF02290
:203B1800123BBBBC0003023F3BEF60FA30D502B2D1E583B4FF03023F51E582B4FF03023F69
:203B380051258340072482400B023F3B2483145003023F51F582EA8DF0A4A8F0EA8EF0A4FA
:203B580028F8E435F0F9EB8DF0A428E935F0F9E433CA8FF0A429F9EA35F0FAEBF88EF0A4BC
:203B780029F9EA35F0FAE433FBEC8DF0A429F9EA35F0FAE43BFBE88FF0A42AFAEB35F0FB64
:203B9800E433CCFD8EF0A42AFAEB35F0FBE43CFCED8FF0A42BFBEC35F0FC20E703123CDD48
:033BB800023F1AAF
:203BBB00AA82AB83A2F73392D1F5826002D2F7ACF0E58124F9F8E6FD08E6FE0886F008E66D
:0E3BDB00A2F73392D5F5836002D2F7AFF02245
:203BE900AF82AE83ADF0FC9002D5EFF0EEA3F0EDA3F0ECA3F09002D9E4F0A3F0A3F0A3F003
:203C09009002D1E0FCA3E0FDA3E0FEA3E0FF7B20C0039002D5E0F8A3E0F9A3E0FAA3E0FBC5
:203C29009002DD235401F0E828F8E933F9EA33FAEB33FB9002D5E8F0E9A3F0EAA3F0EBA391
:203C4900F09002D9E0F8A3E0F9A3E0FAA3E0FBE828F8E933F9EA33FAEB33FB9002D9E8F021
:203C6900E9A3F0EAA3F0EBA3F0D0039002DDE060089002D9E043E001F09002D9E0F51AA3DE
:203C8900E0F51BA3E0F51CA3E0F51DC3E51A9CE51B9DE51C9EE51D9F401F9002D9E51AC33B
:203CA9009CF0E51B9DA3F0E51C9EA3F0E51D9FA3F09002D5E043E001F01BEB6003023C19BE
:143CC9009002D5E0FCA3E0FDA3E0FEA3E08C828D838EF02262
:06007F00E478FFF6D8FD55
:203CDD007804EC7011E58224F8500AF582E4C9CACBFCD8EF22EC7820058220E713D58201E6
:133CFD0022C3E933F9EA33FAEB33FBEC33FCD8EA158222F4
:203D1000AC82AD839002DFE0FEA3E0FFBE000360121F0F9002DEE08C828D83123DD2A3DEF3
:083D3000FADFF88C828D83227A
:203D3800FCABF0AA83A982749EF582C2D1EC30E716D2D1E9F42401F9EAF43400FAEBF4348A
:0D3D580000FBECF43400FC123CDD023F1ACD
:203D6500123DC0C3749E958240397900124A1530D126E9F42401F582EAF43400F583EBF4D7
:203D85003400F5F0ECF43400700AE582458345F0700122E430E70F22EC20E71489828A8335
:1B3DA5008BF02230D10AE4F582F583F5F074802274FFF582F583F5F0747F2231
:123DC000AA82AB83A2F73392D1F5826002D2F7ACF02208
:1B3DD20020F71130F6138883A88220F509F6A8837583002280FEF280F5F022F0
:203DED00C019858119C082058105810581E51924FBF8A9190909E6F70809E6F70809E6F748
:203E0D00A819080886820886830886F01249F9FAA31249F9FBA31249F9FF74012AFCE43B3D
:203E2D00FD8F06A819080886820886830886F0EC123DD2A3ED123DD2A3EE123DD28A828B74
:203E4D00838FF0A81908E6123DD2851981D01922AFF0AE83E5829002E6F0EEA3F0EFA3F0B7
:203E6D009002E2E0FDA3E0FEA3E0FF9002E5E0FC9002FE74E6F07402A3F0E4A3F0900301A0
:203E8D00EDF0EEA3F0EFA3F0900304ECF0903DED1240C0AE82AF839002E6E0FBA3E0FCA31F
:203EAD00E0FD8B828C838DF0E4123DD28E828F8322C019E581F51924F8FFE51924FBFE7D36
:203ECD00007C409002FEEEF0EDA3F0ECA3F0E51924F8F8900301E6F008E6A3F008E6A3F02E
:203EED00900304EFF0903DED1240C0AE82AF83E51924FBF886030886040886058B828C8332
:0D3F0D008DF0E4123DD28E828F83D01922F8
:200085007800E84400600A790075A000E4F309D8FC7822E84403600C7904900000E4F0A352
:0400A500D8FCD9FAB0
:203F1A00B98003EA13B34010EA2401FAE43BFBE43CFC50047C800582BC000EBB000BBA00EB
:203F3A0008E4F5F0F583F58222A2D1E582138CF092F78B838A8222E4F583F58275F080F4AB
:0F3F5A00A2D11322E4F583F58275F0C0747F22A3
:203F6900C0198581197E008E83121060D01922AFF0AE83E5829002EAF0EEA3F0EFA3F090EE
:203F890002EAE0FDA3E0FEA3E0FF9002E9E0FC9002FEE4F0A3F0A3F0900301EDF0EEA3F079
:203FA900EFA3F0900304ECF0903F690240C0C019E581F51924FBFF9002FEE4F0A3F0A3F0D4
:203FC900E51924FBF8900301E6F008E6A3F008E6A3F0900304EFF0903F691240C0D019228C
:203FE900E5829002FAF0E0FF9002F0E0C0E0A3E0C0E0A3E0C0E0124004800D9002EEE0C0AB
:20400900E0A3E0C0E08F82221581158115819002F8E02401F0A3E03400F022E5829002FB63
:20402900F0E02430FF24C6500D74072FFF9002EDE060034307208F82023FE9E5829002FC08
:20404900F0E0FFC4540FF582C007124024D00753070F8F82024024E5829002FDF09002F38B
:20406900E0FCA3E0FDA3E0FEA3E0FF9002F7E0FB751A209002FDE0F98B00E828F8EF235464
:204089000148FBEC2CFCED33FDEE33FEEF33FFC3EB994007EBC399FB430401E51A14FA8AB3
:2040A9001A70D59002F3ECF0EDA3F0EEA3F0EFA3F09002F7EBF022AF83E582900305F0EF1E
:2040C900A3F0900305E0FEA3E0FF9002EEEEF0EFA3F09002FEE0FDA3E0FEA3E0FF9002F07A
:2040E900EDF0EEA3F0EFA3F09002F8E4F0A3F0900301E0FDA3E0FEA3E0FF8D828E838FF0D3
:204109001249F9FC90030174012DF0E43EA3F0EFA3F0EC70030249B5BC250280030249AD2C
:20412900900307E4F0900308F0900309F090030AF090030BF090030CF090030DF090030E16
:20414900F0900310F0900311F0A3F090031314F0A3F0900301E0FDA3E0FEA3E0FF8D828E5E
:20416900838FF01249F9FBA3AD82AE83900301EDF0EEA3F0EFA3F0900317EBF0BB25088B76
:2041890082123FE90240F8BB30005003024259EB24C65003024259900313E0F529A3E0F564
:2041A9002A74FFB52963B52A60C005C006C007900311E0FAA3E0FF900320EAF0EFA3F090E8
:2041C900000AC005C0031249D9AE82AF83D003D0058B027D00EA2EFEED3FFFEE24D0FEEFEC
:2041E90034FFFF900311EEF0EFA3F0D007D006D005900311E0F5F0A3E045F06003024166D1
:204209009003087401F0024166C005C006C007900320E529F0E52AA3F090000AC006C00522
:20422900C0031249D9AA82AF83D003D005D0067E00EB2AFAEE3FFFEA24D0FAEF34FFFF9060
:204249000313EAF0EFA3F0D007D006D005024166900317E0FBBB2E2FC005C006C007900336
:2042690013E0FAA3E0FFBAFF05BFFF028009D007D006D005024166D007D006D0059003136C
:20428900E4F0A3F0024166BB61004014EB2485400F90031774DF5BF09002ED7401F0800501
:2042A9009002EDE4F0900317E0FBBB20028075BB2B028067BB2D028059BB4202806FBB43CD
:2042C90002807CBB4403024550BB4603024576BB4803024166BB4903024550BB4A030241E5
:2042E90066BB4C028050BB4F0302455EBB50030244BEBB53028077BB5403024166BB5503DD
:20430900024566BB580302456EBB5A0302416602457E9003077401F00241669003097401DD
:20432900F002416690030A7401F002416690030C7401F002416690030D7401F00241669045
:20434900030CE0600E900304E014F9F0900317E7F0800F900304E024FEFFF08F01900317B1
:20436900E7F0900317E0F582123FE902458D900304E024FDFFF08F0187050987060987077E
:2043890019199002F3EDF0EEA3F0EFA3F08D828E838FF01249C185822985832A900313E0DA
:2043A900FAA3E0FDBAFF0DBDFF0A900313E529F0E52AA3F0900307E0704B900311E0FAA352
:2043C900E0FDC3E5299AE52A9D503A900311EAC39529F0ED952AA3F0900311E0FAA3E0FD1A
:2043E9008A068D071ABAFF011DEE4F6010758220C005C002123FE9D002D00580E39003116C
:20440900EAF0EDA3F0900313E0F52CA3E0F52D9002F3E0FAA3E0FDA3E0FF8A828D838FF0F1
:204429001249F9F52B603CC3E4952C7480852DF063F08095F0502C152C74FFB52C02152DB8
:20444900852B82123FE99002F3E0FAA3E0FDA3E0FF0ABA00010D9002F3EAF0EDA3F0EFA343
:20446900F080AC900307E0700302458D900311E0FEA3E0FFC3E5299EE52A9F400302458D1E
:20448900900311EEC39529F0EF952AA3F0900311E0FEA3E0FF8E028F051EBEFF011FEA4D75
:2044A9007003024585758220C007C006123FE9D006D00780E0900304E024FDFDF08D01872F
:2044C9002E09872F09873019199002F3E52EF0E52FA3F0E530A3F09002F5E0FDBD8000403C
:2044E900089003177443F08020BD600040089003177450F08013BD400040089003177449B8
:20450900F080069003177458F0900317E0FDF582C005123FE975823A123FE9758230123FD6
:20452900E9758278123FE9D005BD4902800EBD500280099002F4E0F5821240449002F3E005
:20454900F582124044803D90030B7401F0900310740AF0802F9003107408F080279003106C
:20456900740AF0801F9003107410F0801790030E7401F0800F8B82123FE98008900311EE81
:20458900F0EFA3F090030EE06071900304E024FCFFF08F01870309870509870609870719D3
:2045A90019199002F3EBF0EDA3F0EEA3F0EFA3F09002F374D0F0744CA3F07480A3F09002B8
:2045C900F3E0F52EA3E0F52FA3E0F5307401252EFAE4352FFBAF309002F3EAF0EBA3F0EFDD
:2045E900A3F0852E82852F838530F01249F9FF70030240F88F82123FE980C3900310E0708D
:20460900030240F890030CE06047900304E014F9F087077E007D007B009002F3EFF0EEA3C1
:20462900F0EDA3F0EBA3F090030BE060030246D09002F3E0FBA3E0A3E0A3E07D007E007F27
:20464900009002F3EBF0EDA3F0EEA3F0EFA3F0807690030DE06028900304E024FCFFF08F5B
:204669000187030987050987060987071919199002F3EBF0EDA3F0EEA3F0EFA3F08048905E
:204689000304E024FEFFF08F01870609870719EF3395E0FDFB9002F3EEF0EFA3F0EDA3F058
:2046A900EBA3F090030BE0701E9002F3E0FBA3E0FDA3E0A3E07E007F009002F3EBF0EDA394
:2046C900F0EEA3F0EFA3F090030BE060419002F3E0FBA3E0FDA3E0FEA3E0FF30E72B900208
:2046E900F3E0FBA3E0FDA3E0FEA3E0FFC3E49BFBE49DFDE49EFEE49FFF9002F3EBF0EDA3B3
:20470900F0EEA3F0EFA3F0800590030BE4F090030F7401F0900310E0F52C75311D7532038E
:20472900E4F529F52A9002F7E4F0852C8212406090030FE070269002F7E0C4F52E8531826D
:20474900853283E0FFE52E4207853182853283EFF0153174FFB531021532800C9002F7E0AD
:20476900FF853182853283F00529E4B52902052A90030FE0B40100E433F09002F3E0FAA36E
:20478900E0FBA3E0FEA3E0FFEA4B4E4F709790031EE531F0E532A3F0900315E529F0E52A43
:2047A900A3F0900311E0F5F0A3E045F070099003117401F0E4A3F0900308E0FFE0704790A2
:2047C9000307E07041852931852A32900311E0FAA3E0FBC007AF310F8F067F00C3EE9AEF75
:2047E9009BD0075019758220C007C003C002123FE9D002D003D0071ABAFF011B80D59003E5
:2048090011EAF0EBA3F090030BE0602075822DC007123FE9D007900311E024FFFDA3E034D1
:20482900FFFE900311EDF0EEA3F08056900315E0F5F0A3E045F0604A900309E060207582D8
:204849002BC007123FE9D007900311E024FFFDA3E034FFFE900311EDF0EEA3F080249003BB
:204869000AE0601E758220C007123FE9D007900311E024FFFDA3E034FFFE900311EDF0EE11
:20488900A3F0900307E07048900315E0F531A3E0F532900311E0FAA3E0FBC0078A068B070D
:2048A9001ABAFF011BC3E5319EE5329FD0075053EF60067D307E0080047D207E008D82C06B
:2048C90007C003C002123FE9D002D003D00780CA900311E0FEA3E0FF900315E0F531A3E00E
:2048E900F532C3E5319EE5329F500F900311EEC39531F0EF9532A3F08011900311E4F0A3FC
:20490900F08008900311EAF0EBA3F090031EE0FEA3E0FF900315E0F531A3E0F532AA31AD29
:2049290032153174FFB531021532EA4D604590030FE0B40100E433F090030FE070140EBE68
:2049490000010F8E828F83E0C4540FFD9002F7F0800E8E828F83E0FD53050F9002F7EDF045
:204969009002F7E0F582C007C006124024D006D00780AA900307E070030240F8900311E0C9
:20498900FEA3E0FF8E038F051EBEFF011FEB4D70030240F8758220C007C006123FE9D006D5
:1849A900D00780E08C82123FE90240F89002F8E0FEA3E08E82F58322A8
:0B4CD0003C4E4F20464C4F41543E002C
:1849C100AA82AB831249F96003A380F8C3E5829AF582E5839BF58322DA
:2049D900AA83AB828BF0900320E0A4F8A9F08AF0E0A429F98BF0A3E0A429F5838882222270
:0D00510075813C124A58E582600302004EA2
:1C49F90020F71430F6148883A88220F507E6A88375830022E280F7E49322E022CD
:204A15006040F82582500274FFF582E824F8501ECCCBCAF9E4CC24F85014CBCAF9E4CB24A9
:204A3500F8500BCAF9E4CA24F8500379002224086010F8C3EC13FCEB13FBEA13FAE913F95C
:034A5500D8F12273
:044A58007582002241
:00000001FF
